{
  "contractName": "FlightSuretyData",
  "abi": [
    {
      "inputs": [
        {
          "internalType": "address",
          "name": "firstAirlineAddress",
          "type": "address"
        },
        {
          "internalType": "address",
          "name": "owner",
          "type": "address"
        }
      ],
      "stateMutability": "nonpayable",
      "type": "constructor"
    },
    {
      "inputs": [],
      "name": "isOperational",
      "outputs": [
        {
          "internalType": "bool",
          "name": "",
          "type": "bool"
        }
      ],
      "stateMutability": "view",
      "type": "function"
    },
    {
      "inputs": [
        {
          "internalType": "bool",
          "name": "mode",
          "type": "bool"
        }
      ],
      "name": "setOperatingStatus",
      "outputs": [],
      "stateMutability": "nonpayable",
      "type": "function"
    },
    {
      "inputs": [
        {
          "internalType": "address",
          "name": "owner",
          "type": "address"
        }
      ],
      "name": "setContractOwner",
      "outputs": [],
      "stateMutability": "nonpayable",
      "type": "function"
    },
    {
      "inputs": [],
      "name": "getContractOwner",
      "outputs": [
        {
          "internalType": "address",
          "name": "",
          "type": "address"
        }
      ],
      "stateMutability": "view",
      "type": "function"
    },
    {
      "inputs": [
        {
          "internalType": "address[]",
          "name": "approvingAirlines",
          "type": "address[]"
        },
        {
          "internalType": "address",
          "name": "newAirline",
          "type": "address"
        }
      ],
      "name": "registerAirline",
      "outputs": [],
      "stateMutability": "nonpayable",
      "type": "function"
    },
    {
      "inputs": [
        {
          "internalType": "address",
          "name": "airlineAddress",
          "type": "address"
        }
      ],
      "name": "getAirline",
      "outputs": [
        {
          "components": [
            {
              "internalType": "address",
              "name": "airlineAddress",
              "type": "address"
            },
            {
              "internalType": "uint256",
              "name": "funding",
              "type": "uint256"
            }
          ],
          "internalType": "struct FlightSuretyData.Airline",
          "name": "",
          "type": "tuple"
        }
      ],
      "stateMutability": "view",
      "type": "function"
    },
    {
      "inputs": [
        {
          "internalType": "address",
          "name": "airlineAddress",
          "type": "address"
        }
      ],
      "name": "getValidAirline",
      "outputs": [
        {
          "components": [
            {
              "internalType": "address",
              "name": "airlineAddress",
              "type": "address"
            },
            {
              "internalType": "uint256",
              "name": "funding",
              "type": "uint256"
            }
          ],
          "internalType": "struct FlightSuretyData.Airline",
          "name": "",
          "type": "tuple"
        }
      ],
      "stateMutability": "view",
      "type": "function"
    },
    {
      "inputs": [
        {
          "internalType": "address",
          "name": "passenger",
          "type": "address"
        },
        {
          "internalType": "address",
          "name": "airline",
          "type": "address"
        },
        {
          "internalType": "string",
          "name": "flightId",
          "type": "string"
        },
        {
          "internalType": "uint256",
          "name": "timestamp",
          "type": "uint256"
        },
        {
          "internalType": "uint256",
          "name": "insuranceValue",
          "type": "uint256"
        }
      ],
      "name": "buy",
      "outputs": [
        {
          "internalType": "bytes32",
          "name": "",
          "type": "bytes32"
        }
      ],
      "stateMutability": "nonpayable",
      "type": "function"
    },
    {
      "inputs": [
        {
          "internalType": "address",
          "name": "airline",
          "type": "address"
        },
        {
          "internalType": "string",
          "name": "flightId",
          "type": "string"
        },
        {
          "internalType": "uint256",
          "name": "timestamp",
          "type": "uint256"
        }
      ],
      "name": "getFlightPassengers",
      "outputs": [
        {
          "internalType": "address[]",
          "name": "",
          "type": "address[]"
        }
      ],
      "stateMutability": "view",
      "type": "function"
    },
    {
      "inputs": [
        {
          "internalType": "address",
          "name": "passenger",
          "type": "address"
        }
      ],
      "name": "getPassenger",
      "outputs": [
        {
          "components": [
            {
              "internalType": "address",
              "name": "passengerAddress",
              "type": "address"
            },
            {
              "internalType": "string",
              "name": "flightId",
              "type": "string"
            },
            {
              "internalType": "uint256",
              "name": "insuranceValue",
              "type": "uint256"
            },
            {
              "internalType": "uint256",
              "name": "payoutCredit",
              "type": "uint256"
            }
          ],
          "internalType": "struct FlightSuretyData.Passenger",
          "name": "",
          "type": "tuple"
        }
      ],
      "stateMutability": "view",
      "type": "function"
    },
    {
      "inputs": [
        {
          "internalType": "address",
          "name": "_passenger",
          "type": "address"
        }
      ],
      "name": "getInsuranceValueForPassenger",
      "outputs": [
        {
          "internalType": "uint256",
          "name": "",
          "type": "uint256"
        }
      ],
      "stateMutability": "view",
      "type": "function"
    },
    {
      "inputs": [
        {
          "internalType": "address",
          "name": "_passenger",
          "type": "address"
        }
      ],
      "name": "getPayoutCreditForPassenger",
      "outputs": [
        {
          "internalType": "uint256",
          "name": "",
          "type": "uint256"
        }
      ],
      "stateMutability": "view",
      "type": "function"
    },
    {
      "inputs": [
        {
          "internalType": "address",
          "name": "airline",
          "type": "address"
        },
        {
          "internalType": "string",
          "name": "flightId",
          "type": "string"
        },
        {
          "internalType": "uint256",
          "name": "timestamp",
          "type": "uint256"
        }
      ],
      "name": "creditInsurees",
      "outputs": [],
      "stateMutability": "nonpayable",
      "type": "function"
    },
    {
      "inputs": [
        {
          "internalType": "address",
          "name": "_passenger",
          "type": "address"
        }
      ],
      "name": "getBalanceDue",
      "outputs": [
        {
          "internalType": "uint256",
          "name": "",
          "type": "uint256"
        }
      ],
      "stateMutability": "view",
      "type": "function"
    },
    {
      "inputs": [
        {
          "internalType": "address payable",
          "name": "_passenger",
          "type": "address"
        }
      ],
      "name": "pay",
      "outputs": [],
      "stateMutability": "payable",
      "type": "function"
    },
    {
      "inputs": [
        {
          "internalType": "address",
          "name": "airlineAddress",
          "type": "address"
        },
        {
          "internalType": "uint256",
          "name": "funding",
          "type": "uint256"
        }
      ],
      "name": "fund",
      "outputs": [],
      "stateMutability": "payable",
      "type": "function"
    },
    {
      "inputs": [
        {
          "internalType": "address",
          "name": "airline",
          "type": "address"
        },
        {
          "internalType": "string",
          "name": "flightId",
          "type": "string"
        },
        {
          "internalType": "uint256",
          "name": "timestamp",
          "type": "uint256"
        }
      ],
      "name": "registerFlight",
      "outputs": [],
      "stateMutability": "nonpayable",
      "type": "function"
    },
    {
      "inputs": [
        {
          "internalType": "string",
          "name": "flightId",
          "type": "string"
        }
      ],
      "name": "flightExists",
      "outputs": [
        {
          "internalType": "bool",
          "name": "",
          "type": "bool"
        }
      ],
      "stateMutability": "view",
      "type": "function"
    },
    {
      "inputs": [
        {
          "internalType": "string",
          "name": "flightId",
          "type": "string"
        }
      ],
      "name": "getFlight",
      "outputs": [
        {
          "components": [
            {
              "internalType": "address",
              "name": "airline",
              "type": "address"
            },
            {
              "internalType": "string",
              "name": "flightId",
              "type": "string"
            },
            {
              "internalType": "uint256",
              "name": "timestamp",
              "type": "uint256"
            },
            {
              "internalType": "uint256",
              "name": "passengersSize",
              "type": "uint256"
            }
          ],
          "internalType": "struct FlightSuretyData.Flight",
          "name": "",
          "type": "tuple"
        }
      ],
      "stateMutability": "view",
      "type": "function"
    }
  ],
  "bytecode": "0x60806040526001600060146101000a81548160ff02191690831515021790555060006001556000600760006101000a81548160ff0219169083151502179055503480156200004c57600080fd5b506040516200319938038062003199833981810160405281019062000072919062000217565b806000806101000a81548173ffffffffffffffffffffffffffffffffffffffff021916908373ffffffffffffffffffffffffffffffffffffffff16021790555060008060146101000a81548160ff02191690831515021790555060405180604001604052808373ffffffffffffffffffffffffffffffffffffffff1681526020016000815250600260008473ffffffffffffffffffffffffffffffffffffffff1673ffffffffffffffffffffffffffffffffffffffff16815260200190815260200160002060008201518160000160006101000a81548173ffffffffffffffffffffffffffffffffffffffff021916908373ffffffffffffffffffffffffffffffffffffffff1602179055506020820151816001015590505060016000815480929190620001a09062000297565b91905055505050620002e4565b600080fd5b600073ffffffffffffffffffffffffffffffffffffffff82169050919050565b6000620001df82620001b2565b9050919050565b620001f181620001d2565b8114620001fd57600080fd5b50565b6000815190506200021181620001e6565b92915050565b60008060408385031215620002315762000230620001ad565b5b6000620002418582860162000200565b9250506020620002548582860162000200565b9150509250929050565b7f4e487b7100000000000000000000000000000000000000000000000000000000600052601160045260246000fd5b6000819050919050565b6000620002a4826200028d565b91507fffffffffffffffffffffffffffffffffffffffffffffffffffffffffffffffff8203620002d957620002d86200025e565b5b600182019050919050565b612ea580620002f46000396000f3fe6080604052600436106101145760003560e01c80638d7f97af116100a0578063cf90cc4411610064578063cf90cc44146103a5578063e1de0489146103e2578063e42a38371461041f578063e8413cf01461045c578063f7bf7f571461049957610114565b80638d7f97af146102ae578063a34d42b8146102eb578063c8820a7014610314578063cd905dff1461033d578063ce0595961461036857610114565b8063442890d5116100e7578063442890d5146101b0578063449d0543146101db57806366971c1f146102185780637b1837de14610255578063894c93251461027157610114565b80630c11dedd14610119578063110466ed14610135578063261a37041461015e5780633cc0be9c14610187575b600080fd5b610133600480360381019061012e9190611c55565b6104d6565b005b34801561014157600080fd5b5061015c60048036038101906101579190611cba565b610667565b005b34801561016a57600080fd5b5061018560048036038101906101809190611d8a565b610712565b005b34801561019357600080fd5b506101ae60048036038101906101a99190611e76565b6109c1565b005b3480156101bc57600080fd5b506101c5610c0d565b6040516101d29190611ef9565b60405180910390f35b3480156101e757600080fd5b5061020260048036038101906101fd9190611f14565b610c36565b60405161020f9190611f50565b60405180910390f35b34801561022457600080fd5b5061023f600480360381019061023a9190611f14565b610cfa565b60405161024c9190611f50565b60405180910390f35b61026f600480360381019061026a9190611f6b565b610d4b565b005b34801561027d57600080fd5b5061029860048036038101906102939190611f14565b610e75565b6040516102a59190611ff8565b60405180910390f35b3480156102ba57600080fd5b506102d560048036038101906102d09190612013565b611096565b6040516102e2919061206f565b60405180910390f35b3480156102f757600080fd5b50610312600480360381019061030d9190611f14565b611113565b005b34801561032057600080fd5b5061033b600480360381019061033691906121cb565b611156565b005b34801561034957600080fd5b506103526112ae565b60405161035f919061206f565b60405180910390f35b34801561037457600080fd5b5061038f600480360381019061038a9190612013565b6112c4565b60405161039c9190612325565b60405180910390f35b3480156103b157600080fd5b506103cc60048036038101906103c79190612347565b6113fb565b6040516103d991906123f7565b60405180910390f35b3480156103ee57600080fd5b5061040960048036038101906104049190611f14565b611678565b6040516104169190611ff8565b60405180910390f35b34801561042b57600080fd5b5061044660048036038101906104419190611f14565b61180a565b6040516104539190611f50565b60405180910390f35b34801561046857600080fd5b50610483600480360381019061047e9190611f14565b61185b565b6040516104909190612475565b60405180910390f35b3480156104a557600080fd5b506104c060048036038101906104bb91906121cb565b6119ff565b6040516104cd9190612546565b60405180910390f35b600760009054906101000a900460ff1615610526576040517f08c379a000000000000000000000000000000000000000000000000000000000815260040161051d906125c5565b60405180910390fd5b6001600760006101000a81548160ff0219169083151502179055506000600560008373ffffffffffffffffffffffffffffffffffffffff1673ffffffffffffffffffffffffffffffffffffffff16815260200190815260200160002090508173ffffffffffffffffffffffffffffffffffffffff168160000160009054906101000a900473ffffffffffffffffffffffffffffffffffffffff1673ffffffffffffffffffffffffffffffffffffffff161480156105e7575060008160030154115b1561064857600081600301549050600082600301819055508273ffffffffffffffffffffffffffffffffffffffff166108fc829081150290604051600060405180830381858888f19350505050158015610645573d6000803e3d6000fd5b50505b6000600760006101000a81548160ff0219169083151502179055505050565b60008054906101000a900473ffffffffffffffffffffffffffffffffffffffff1673ffffffffffffffffffffffffffffffffffffffff163373ffffffffffffffffffffffffffffffffffffffff16146106f5576040517f08c379a00000000000000000000000000000000000000000000000000000000081526004016106ec90612631565b60405180910390fd5b80600060146101000a81548160ff02191690831515021790555050565b828260005b828290508110156108335760006002600085858581811061073b5761073a612651565b5b90506020020160208101906107509190611f14565b73ffffffffffffffffffffffffffffffffffffffff1673ffffffffffffffffffffffffffffffffffffffff1681526020019081526020016000209050600073ffffffffffffffffffffffffffffffffffffffff168160000160009054906101000a900473ffffffffffffffffffffffffffffffffffffffff1673ffffffffffffffffffffffffffffffffffffffff160361081f576040517f08c379a0000000000000000000000000000000000000000000000000000000008152600401610816906126cc565b60405180910390fd5b50808061082b9061271b565b915050610717565b5084846004600154101561088c5760008282905011610887576040517f08c379a000000000000000000000000000000000000000000000000000000000815260040161087e906127af565b60405180910390fd5b6108e1565b600260015461089b91906127fe565b8282905010156108e0576040517f08c379a00000000000000000000000000000000000000000000000000000000081526004016108d7906127af565b60405180910390fd5b5b60405180604001604052808673ffffffffffffffffffffffffffffffffffffffff1681526020016000815250600260008773ffffffffffffffffffffffffffffffffffffffff1673ffffffffffffffffffffffffffffffffffffffff16815260200190815260200160002060008201518160000160006101000a81548173ffffffffffffffffffffffffffffffffffffffff021916908373ffffffffffffffffffffffffffffffffffffffff16021790555060208201518160010155905050600160008154809291906109b39061271b565b919050555050505050505050565b600060149054906101000a900460ff16610a10576040517f08c379a0000000000000000000000000000000000000000000000000000000008152600401610a07906128a1565b60405180910390fd5b836000600260008373ffffffffffffffffffffffffffffffffffffffff1673ffffffffffffffffffffffffffffffffffffffff1681526020019081526020016000209050600073ffffffffffffffffffffffffffffffffffffffff168160000160009054906101000a900473ffffffffffffffffffffffffffffffffffffffff1673ffffffffffffffffffffffffffffffffffffffff1603610ae7576040517f08c379a0000000000000000000000000000000000000000000000000000000008152600401610ade906126cc565b60405180910390fd5b85678ac7230489e80000600260008373ffffffffffffffffffffffffffffffffffffffff1673ffffffffffffffffffffffffffffffffffffffff168152602001908152602001600020600101541015610b75576040517f08c379a0000000000000000000000000000000000000000000000000000000008152600401610b6c9061290d565b60405180910390fd5b600060038787604051610b8992919061295d565b90815260200160405180910390209050878160000160006101000a81548173ffffffffffffffffffffffffffffffffffffffff021916908373ffffffffffffffffffffffffffffffffffffffff1602179055508686826001019182610bef929190612b8d565b50848160020181905550600081600301819055505050505050505050565b60008060009054906101000a900473ffffffffffffffffffffffffffffffffffffffff16905090565b600080600560008473ffffffffffffffffffffffffffffffffffffffff1673ffffffffffffffffffffffffffffffffffffffff16815260200190815260200160002090508273ffffffffffffffffffffffffffffffffffffffff168160000160009054906101000a900473ffffffffffffffffffffffffffffffffffffffff1673ffffffffffffffffffffffffffffffffffffffff16148015610cdd575060008160030154115b15610cef578060030154915050610cf5565b60009150505b919050565b600080600560008473ffffffffffffffffffffffffffffffffffffffff1673ffffffffffffffffffffffffffffffffffffffff16815260200190815260200160002090508060030154915050919050565b816000600260008373ffffffffffffffffffffffffffffffffffffffff1673ffffffffffffffffffffffffffffffffffffffff1681526020019081526020016000209050600073ffffffffffffffffffffffffffffffffffffffff168160000160009054906101000a900473ffffffffffffffffffffffffffffffffffffffff1673ffffffffffffffffffffffffffffffffffffffff1603610e22576040517f08c379a0000000000000000000000000000000000000000000000000000000008152600401610e19906126cc565b60405180910390fd5b6000600260008673ffffffffffffffffffffffffffffffffffffffff1673ffffffffffffffffffffffffffffffffffffffff16815260200190815260200160002090508381600101819055505050505050565b610e7d611b37565b816000600260008373ffffffffffffffffffffffffffffffffffffffff1673ffffffffffffffffffffffffffffffffffffffff1681526020019081526020016000209050600073ffffffffffffffffffffffffffffffffffffffff168160000160009054906101000a900473ffffffffffffffffffffffffffffffffffffffff1673ffffffffffffffffffffffffffffffffffffffff1603610f54576040517f08c379a0000000000000000000000000000000000000000000000000000000008152600401610f4b906126cc565b60405180910390fd5b83678ac7230489e80000600260008373ffffffffffffffffffffffffffffffffffffffff1673ffffffffffffffffffffffffffffffffffffffff168152602001908152602001600020600101541015610fe2576040517f08c379a0000000000000000000000000000000000000000000000000000000008152600401610fd99061290d565b60405180910390fd5b600260008673ffffffffffffffffffffffffffffffffffffffff1673ffffffffffffffffffffffffffffffffffffffff1681526020019081526020016000206040518060400160405290816000820160009054906101000a900473ffffffffffffffffffffffffffffffffffffffff1673ffffffffffffffffffffffffffffffffffffffff1673ffffffffffffffffffffffffffffffffffffffff1681526020016001820154815250509350505050919050565b60008073ffffffffffffffffffffffffffffffffffffffff16600384846040516110c192919061295d565b908152602001604051809103902060000160009054906101000a900473ffffffffffffffffffffffffffffffffffffffff1673ffffffffffffffffffffffffffffffffffffffff161415905092915050565b806000806101000a81548173ffffffffffffffffffffffffffffffffffffffff021916908373ffffffffffffffffffffffffffffffffffffffff16021790555050565b6000611163848484611b01565b90506000600460008381526020019081526020016000208054806020026020016040519081016040528092919081815260200182805480156111fa57602002820191906000526020600020905b8160009054906101000a900473ffffffffffffffffffffffffffffffffffffffff1673ffffffffffffffffffffffffffffffffffffffff16815260200190600101908083116111b0575b5050505050905060005b81518110156112a65760006005600084848151811061122657611225612651565b5b602002602001015173ffffffffffffffffffffffffffffffffffffffff1673ffffffffffffffffffffffffffffffffffffffff16815260200190815260200160002090506002816002015461127b91906127fe565b816002015461128a9190612c5d565b816003018190555050808061129e9061271b565b915050611204565b505050505050565b60008060149054906101000a900460ff16905090565b6112cc611b67565b600383836040516112de92919061295d565b90815260200160405180910390206040518060800160405290816000820160009054906101000a900473ffffffffffffffffffffffffffffffffffffffff1673ffffffffffffffffffffffffffffffffffffffff1673ffffffffffffffffffffffffffffffffffffffff16815260200160018201805461135d906129b0565b80601f0160208091040260200160405190810160405280929190818152602001828054611389906129b0565b80156113d65780601f106113ab576101008083540402835291602001916113d6565b820191906000526020600020905b8154815290600101906020018083116113b957829003601f168201915b5050505050815260200160028201548152602001600382015481525050905092915050565b60008060149054906101000a900460ff1661144b576040517f08c379a0000000000000000000000000000000000000000000000000000000008152600401611442906128a1565b60405180910390fd5b6000611458868686611b01565b905086600560008973ffffffffffffffffffffffffffffffffffffffff1673ffffffffffffffffffffffffffffffffffffffff16815260200190815260200160002060000160006101000a81548173ffffffffffffffffffffffffffffffffffffffff021916908373ffffffffffffffffffffffffffffffffffffffff16021790555084600560008973ffffffffffffffffffffffffffffffffffffffff1673ffffffffffffffffffffffffffffffffffffffff168152602001908152602001600020600101908161152a9190612cb3565b5082600560008973ffffffffffffffffffffffffffffffffffffffff1673ffffffffffffffffffffffffffffffffffffffff168152602001908152602001600020600201819055506000600560008973ffffffffffffffffffffffffffffffffffffffff1673ffffffffffffffffffffffffffffffffffffffff1681526020019081526020016000206003018190555060046000828152602001908152602001600020879080600181540180825580915050600190039060005260206000200160009091909190916101000a81548173ffffffffffffffffffffffffffffffffffffffff021916908373ffffffffffffffffffffffffffffffffffffffff16021790555060006003866040516116409190612db6565b908152602001604051809103902090508060030160008154809291906116659061271b565b9190505550819250505095945050505050565b611680611b37565b816000600260008373ffffffffffffffffffffffffffffffffffffffff1673ffffffffffffffffffffffffffffffffffffffff1681526020019081526020016000209050600073ffffffffffffffffffffffffffffffffffffffff168160000160009054906101000a900473ffffffffffffffffffffffffffffffffffffffff1673ffffffffffffffffffffffffffffffffffffffff1603611757576040517f08c379a000000000000000000000000000000000000000000000000000000000815260040161174e906126cc565b60405180910390fd5b600260008573ffffffffffffffffffffffffffffffffffffffff1673ffffffffffffffffffffffffffffffffffffffff1681526020019081526020016000206040518060400160405290816000820160009054906101000a900473ffffffffffffffffffffffffffffffffffffffff1673ffffffffffffffffffffffffffffffffffffffff1673ffffffffffffffffffffffffffffffffffffffff16815260200160018201548152505092505050919050565b600080600560008473ffffffffffffffffffffffffffffffffffffffff1673ffffffffffffffffffffffffffffffffffffffff16815260200190815260200160002090508060020154915050919050565b611863611ba5565b600060149054906101000a900460ff166118b2576040517f08c379a00000000000000000000000000000000000000000000000000000000081526004016118a9906128a1565b60405180910390fd5b600560008373ffffffffffffffffffffffffffffffffffffffff1673ffffffffffffffffffffffffffffffffffffffff1681526020019081526020016000206040518060800160405290816000820160009054906101000a900473ffffffffffffffffffffffffffffffffffffffff1673ffffffffffffffffffffffffffffffffffffffff1673ffffffffffffffffffffffffffffffffffffffff168152602001600182018054611962906129b0565b80601f016020809104026020016040519081016040528092919081815260200182805461198e906129b0565b80156119db5780601f106119b0576101008083540402835291602001916119db565b820191906000526020600020905b8154815290600101906020018083116119be57829003601f168201915b50505050508152602001600282015481526020016003820154815250509050919050565b6060600060149054906101000a900460ff16611a50576040517f08c379a0000000000000000000000000000000000000000000000000000000008152600401611a47906128a1565b60405180910390fd5b6000611a5d858585611b01565b905060046000828152602001908152602001600020805480602002602001604051908101604052809291908181526020018280548015611af257602002820191906000526020600020905b8160009054906101000a900473ffffffffffffffffffffffffffffffffffffffff1673ffffffffffffffffffffffffffffffffffffffff1681526020019060010190808311611aa8575b50505050509150509392505050565b6000838383604051602001611b1893929190612e36565b6040516020818303038152906040528051906020012090509392505050565b6040518060400160405280600073ffffffffffffffffffffffffffffffffffffffff168152602001600081525090565b6040518060800160405280600073ffffffffffffffffffffffffffffffffffffffff1681526020016060815260200160008152602001600081525090565b6040518060800160405280600073ffffffffffffffffffffffffffffffffffffffff1681526020016060815260200160008152602001600081525090565b6000604051905090565b600080fd5b600080fd5b600073ffffffffffffffffffffffffffffffffffffffff82169050919050565b6000611c2282611bf7565b9050919050565b611c3281611c17565b8114611c3d57600080fd5b50565b600081359050611c4f81611c29565b92915050565b600060208284031215611c6b57611c6a611bed565b5b6000611c7984828501611c40565b91505092915050565b60008115159050919050565b611c9781611c82565b8114611ca257600080fd5b50565b600081359050611cb481611c8e565b92915050565b600060208284031215611cd057611ccf611bed565b5b6000611cde84828501611ca5565b91505092915050565b600080fd5b600080fd5b600080fd5b60008083601f840112611d0c57611d0b611ce7565b5b8235905067ffffffffffffffff811115611d2957611d28611cec565b5b602083019150836020820283011115611d4557611d44611cf1565b5b9250929050565b6000611d5782611bf7565b9050919050565b611d6781611d4c565b8114611d7257600080fd5b50565b600081359050611d8481611d5e565b92915050565b600080600060408486031215611da357611da2611bed565b5b600084013567ffffffffffffffff811115611dc157611dc0611bf2565b5b611dcd86828701611cf6565b93509350506020611de086828701611d75565b9150509250925092565b60008083601f840112611e0057611dff611ce7565b5b8235905067ffffffffffffffff811115611e1d57611e1c611cec565b5b602083019150836001820283011115611e3957611e38611cf1565b5b9250929050565b6000819050919050565b611e5381611e40565b8114611e5e57600080fd5b50565b600081359050611e7081611e4a565b92915050565b60008060008060608587031215611e9057611e8f611bed565b5b6000611e9e87828801611d75565b945050602085013567ffffffffffffffff811115611ebf57611ebe611bf2565b5b611ecb87828801611dea565b93509350506040611ede87828801611e61565b91505092959194509250565b611ef381611d4c565b82525050565b6000602082019050611f0e6000830184611eea565b92915050565b600060208284031215611f2a57611f29611bed565b5b6000611f3884828501611d75565b91505092915050565b611f4a81611e40565b82525050565b6000602082019050611f656000830184611f41565b92915050565b60008060408385031215611f8257611f81611bed565b5b6000611f9085828601611d75565b9250506020611fa185828601611e61565b9150509250929050565b611fb481611d4c565b82525050565b611fc381611e40565b82525050565b604082016000820151611fdf6000850182611fab565b506020820151611ff26020850182611fba565b50505050565b600060408201905061200d6000830184611fc9565b92915050565b6000806020838503121561202a57612029611bed565b5b600083013567ffffffffffffffff81111561204857612047611bf2565b5b61205485828601611dea565b92509250509250929050565b61206981611c82565b82525050565b60006020820190506120846000830184612060565b92915050565b600080fd5b6000601f19601f8301169050919050565b7f4e487b7100000000000000000000000000000000000000000000000000000000600052604160045260246000fd5b6120d88261208f565b810181811067ffffffffffffffff821117156120f7576120f66120a0565b5b80604052505050565b600061210a611be3565b905061211682826120cf565b919050565b600067ffffffffffffffff821115612136576121356120a0565b5b61213f8261208f565b9050602081019050919050565b82818337600083830152505050565b600061216e6121698461211b565b612100565b90508281526020810184848401111561218a5761218961208a565b5b61219584828561214c565b509392505050565b600082601f8301126121b2576121b1611ce7565b5b81356121c284826020860161215b565b91505092915050565b6000806000606084860312156121e4576121e3611bed565b5b60006121f286828701611d75565b935050602084013567ffffffffffffffff81111561221357612212611bf2565b5b61221f8682870161219d565b925050604061223086828701611e61565b9150509250925092565b600081519050919050565b600082825260208201905092915050565b60005b83811015612274578082015181840152602081019050612259565b83811115612283576000848401525b50505050565b60006122948261223a565b61229e8185612245565b93506122ae818560208601612256565b6122b78161208f565b840191505092915050565b60006080830160008301516122da6000860182611fab565b50602083015184820360208601526122f28282612289565b91505060408301516123076040860182611fba565b50606083015161231a6060860182611fba565b508091505092915050565b6000602082019050818103600083015261233f81846122c2565b905092915050565b600080600080600060a0868803121561236357612362611bed565b5b600061237188828901611d75565b955050602061238288828901611d75565b945050604086013567ffffffffffffffff8111156123a3576123a2611bf2565b5b6123af8882890161219d565b93505060606123c088828901611e61565b92505060806123d188828901611e61565b9150509295509295909350565b6000819050919050565b6123f1816123de565b82525050565b600060208201905061240c60008301846123e8565b92915050565b600060808301600083015161242a6000860182611fab565b50602083015184820360208601526124428282612289565b91505060408301516124576040860182611fba565b50606083015161246a6060860182611fba565b508091505092915050565b6000602082019050818103600083015261248f8184612412565b905092915050565b600081519050919050565b600082825260208201905092915050565b6000819050602082019050919050565b60006124cf8383611fab565b60208301905092915050565b6000602082019050919050565b60006124f382612497565b6124fd81856124a2565b9350612508836124b3565b8060005b8381101561253957815161252088826124c3565b975061252b836124db565b92505060018101905061250c565b5085935050505092915050565b6000602082019050818103600083015261256081846124e8565b905092915050565b600082825260208201905092915050565b7f5265656e7472616e742063616c6c206465746563746564210000000000000000600082015250565b60006125af601883612568565b91506125ba82612579565b602082019050919050565b600060208201905081810360008301526125de816125a2565b9050919050565b7f43616c6c6572206973206e6f7420636f6e7472616374206f776e657200000000600082015250565b600061261b601c83612568565b9150612626826125e5565b602082019050919050565b6000602082019050818103600083015261264a8161260e565b9050919050565b7f4e487b7100000000000000000000000000000000000000000000000000000000600052603260045260246000fd5b7f4169726c696e65206e6f74207265676973746572656400000000000000000000600082015250565b60006126b6601683612568565b91506126c182612680565b602082019050919050565b600060208201905081810360008301526126e5816126a9565b9050919050565b7f4e487b7100000000000000000000000000000000000000000000000000000000600052601160045260246000fd5b600061272682611e40565b91507fffffffffffffffffffffffffffffffffffffffffffffffffffffffffffffffff8203612758576127576126ec565b5b600182019050919050565b7f4d696e696d756d20636f6e7365737573206e6f74206d65740000000000000000600082015250565b6000612799601883612568565b91506127a482612763565b602082019050919050565b600060208201905081810360008301526127c88161278c565b9050919050565b7f4e487b7100000000000000000000000000000000000000000000000000000000600052601260045260246000fd5b600061280982611e40565b915061281483611e40565b925082612824576128236127cf565b5b828204905092915050565b7f436f6e74726163742069732063757272656e746c79206e6f74206f706572617460008201527f696f6e616c000000000000000000000000000000000000000000000000000000602082015250565b600061288b602583612568565b91506128968261282f565b604082019050919050565b600060208201905081810360008301526128ba8161287e565b9050919050565b7f4169726c696e65206e6f74206174206d696e696d756d2066756e64696e670000600082015250565b60006128f7601e83612568565b9150612902826128c1565b602082019050919050565b60006020820190508181036000830152612926816128ea565b9050919050565b600081905092915050565b6000612944838561292d565b935061295183858461214c565b82840190509392505050565b600061296a828486612938565b91508190509392505050565b600082905092915050565b7f4e487b7100000000000000000000000000000000000000000000000000000000600052602260045260246000fd5b600060028204905060018216806129c857607f821691505b6020821081036129db576129da612981565b5b50919050565b60008190508160005260206000209050919050565b60006020601f8301049050919050565b600082821b905092915050565b600060088302612a437fffffffffffffffffffffffffffffffffffffffffffffffffffffffffffffffff82612a06565b612a4d8683612a06565b95508019841693508086168417925050509392505050565b6000819050919050565b6000612a8a612a85612a8084611e40565b612a65565b611e40565b9050919050565b6000819050919050565b612aa483612a6f565b612ab8612ab082612a91565b848454612a13565b825550505050565b600090565b612acd612ac0565b612ad8818484612a9b565b505050565b5b81811015612afc57612af1600082612ac5565b600181019050612ade565b5050565b601f821115612b4157612b12816129e1565b612b1b846129f6565b81016020851015612b2a578190505b612b3e612b36856129f6565b830182612add565b50505b505050565b600082821c905092915050565b6000612b6460001984600802612b46565b1980831691505092915050565b6000612b7d8383612b53565b9150826002028217905092915050565b612b978383612976565b67ffffffffffffffff811115612bb057612baf6120a0565b5b612bba82546129b0565b612bc5828285612b00565b6000601f831160018114612bf45760008415612be2578287013590505b612bec8582612b71565b865550612c54565b601f198416612c02866129e1565b60005b82811015612c2a57848901358255600182019150602085019450602081019050612c05565b86831015612c475784890135612c43601f891682612b53565b8355505b6001600288020188555050505b50505050505050565b6000612c6882611e40565b9150612c7383611e40565b9250827fffffffffffffffffffffffffffffffffffffffffffffffffffffffffffffffff03821115612ca857612ca76126ec565b5b828201905092915050565b612cbc8261223a565b67ffffffffffffffff811115612cd557612cd46120a0565b5b612cdf82546129b0565b612cea828285612b00565b600060209050601f831160018114612d1d5760008415612d0b578287015190505b612d158582612b71565b865550612d7d565b601f198416612d2b866129e1565b60005b82811015612d5357848901518255600182019150602085019450602081019050612d2e565b86831015612d705784890151612d6c601f891682612b53565b8355505b6001600288020188555050505b505050505050565b6000612d908261223a565b612d9a818561292d565b9350612daa818560208601612256565b80840191505092915050565b6000612dc28284612d85565b915081905092915050565b60008160601b9050919050565b6000612de582612dcd565b9050919050565b6000612df782612dda565b9050919050565b612e0f612e0a82611d4c565b612dec565b82525050565b6000819050919050565b612e30612e2b82611e40565b612e15565b82525050565b6000612e428286612dfe565b601482019150612e528285612d85565b9150612e5e8284612e1f565b60208201915081905094935050505056fea2646970667358221220afce5201bea6c255207b90bcc1e350718e2d91638d668a0c29e43038c615919d64736f6c634300080f0033",
  "immutableReferences": {},
  "source": "pragma solidity ^0.8.15;\n\nimport \"@openzeppelin/contracts/utils/math/SafeMath.sol\";\n\ncontract FlightSuretyData {\n    using SafeMath for uint256;\n\n    /********************************************************************************************/\n    /*                                       DATA VARIABLES                                     */\n    /********************************************************************************************/\n\n    address private contractOwner;                                      // Account used to deploy contract\n    bool private operational = true;                                    // Blocks all state changes throughout the contract if false\n\n    uint numAirlines = 0;\n\n    struct Airline {    \n        address airlineAddress;\n        uint funding;\n    }\n\n    mapping(address => Airline) private airlines;\n\n    struct Flight {    \n        address airline;\n        string flightId;\n        uint256 timestamp;  \n        uint passengersSize;\n    }\n    mapping(string => Flight) private flights;\n\n    mapping(bytes32 => address[]) private flightPassengers;\n\n    struct Passenger {    \n        address passengerAddress;\n        string flightId;\n        uint256 insuranceValue; \n        uint256 payoutCredit;   \n    }\n    mapping(address => Passenger) private passengers;\n\n    struct PassengerTest {    \n        string flightId;\n        uint256 insuranceValue; \n        uint256 payoutCredit;   \n    }\n    mapping(string => PassengerTest) private passengersTest;\n\n    bool locked = false;  //Reentrance control flag\n\n    /********************************************************************************************/\n    /*                                       EVENT DEFINITIONS                                  */\n    /********************************************************************************************/\n\n\n    /**\n    * @dev Constructor\n    *      The deploying account becomes contractOwner\n    */\n    constructor(address firstAirlineAddress, address owner)\n    {\n        // contractOwner = msg.sender;\n        contractOwner = owner;\n        operational = false;\n        airlines[firstAirlineAddress] = Airline(firstAirlineAddress, 0);\n        numAirlines++;\n    }\n\n\n    /********************************************************************************************/\n    /*                                       FUNCTION MODIFIERS                                 */\n    /********************************************************************************************/\n\n    // Modifiers help avoid duplication of code. They are typically used to validate something\n    // before a function is allowed to be executed.\n\n    /**\n    * @dev Modifier that requires the \"operational\" boolean variable to be \"true\"\n    *      This is used on all state changing functions to pause the contract in \n    *      the event there is an issue that needs to be fixed\n    */\n    modifier requireIsOperational() \n    {\n        require(operational, \"Contract is currently not operational\");\n        _;  // All modifiers require an \"_\" which indicates where the function body will be added\n    }\n\n    /**\n    * @dev Modifier that requires the \"ContractOwner\" account to be the function caller\n    */\n    modifier requireContractOwner()\n    {\n        require(msg.sender == contractOwner, \"Caller is not contract owner\");\n        _;\n    }\n\n    modifier requireAirlineRegistered(address airlineAddress) \n    {\n        Airline storage airline = airlines[airlineAddress];\n        require(airline.airlineAddress != address(0), \"Airline not registered\");\n        _;  // All modifiers require an \"_\" which indicates where the function body will be added\n    }\n\n    modifier requireAirlinesRegistered(address[] calldata airlineAddresses) \n    {\n        for (uint i=0; i < airlineAddresses.length; i++) {\n            Airline storage airline = airlines[airlineAddresses[i]];\n            require(airline.airlineAddress != address(0),  \"Airline not registered\");\n        }\n        _;  // All modifiers require an \"_\" which indicates where the function body will be added\n    }\n\n    modifier requireMinimumConsensus(address[] calldata airlineAddresses) \n    {\n        if (numAirlines < 4) {\n            require(airlineAddresses.length > 0, \"Minimum consesus not met\");\n        } else {\n            require(airlineAddresses.length >= numAirlines/2, \"Minimum consesus not met\");\n        }\n        _;  // All modifiers require an \"_\" which indicates where the function body will be added\n    }\n\n    modifier requireMinimumFunding(address airlineAddress)\n    {\n        require(airlines[airlineAddress].funding >= 10 ether, \"Airline not at minimum funding\");\n        _;  // All modifiers require an \"_\" which indicates where the function body will be added\n    }\n\n    /********************************************************************************************/\n    /*                                       UTILITY FUNCTIONS                                  */\n    /********************************************************************************************/\n\n    /**\n    * @dev Get operating status of contract\n    *\n    * @return A bool that is the current operating status\n    */      \n    function isOperational() \n                            public \n                            view \n                            returns(bool) \n    {\n        return operational;\n    }\n\n\n    /**\n    * @dev Sets contract operations on/off\n    *\n    * When operational mode is disabled, all write transactions except for this one will fail\n    */    \n    function setOperatingStatus\n                            (\n                                bool mode\n                            ) \n                            external\n                            requireContractOwner \n    {\n        operational = mode;\n    }\n\n    function setContractOwner(address owner) public\n    {\n        contractOwner = owner;\n    }\n\n    function getContractOwner() public view returns(address)\n    {\n        return contractOwner;\n    }\n\n    /********************************************************************************************/\n    /*                                     SMART CONTRACT FUNCTIONS                             */\n    /********************************************************************************************/\n\n   /**\n    * @dev Add an airline to the registration queue\n    *      Can only be called from FlightSuretyApp contract\n    *\n    */   \n    function registerAirline(\n        address[] calldata approvingAirlines,\n        address newAirline\n    ) \n        external \n        requireAirlinesRegistered(approvingAirlines)\n        requireMinimumConsensus(approvingAirlines)\n    {\n        airlines[newAirline] = Airline(newAirline, 0);\n        numAirlines++;\n    }\n\n    function getAirline(address airlineAddress) \n        external\n        view\n        requireAirlineRegistered(airlineAddress)\n        returns(Airline memory)\n    {\n        return airlines[airlineAddress];\n    }\n\n    function getValidAirline(address airlineAddress) \n        external\n        view\n        requireAirlineRegistered(airlineAddress)\n        requireMinimumFunding(airlineAddress)\n        returns(Airline memory)\n    {\n        return airlines[airlineAddress];\n    }\n\n\n   /**\n    * @dev Buy insurance for a flight\n    *\n    */   \n    function buy(\n        address passenger,\n        address airline,\n        string memory flightId,\n        uint256 timestamp,\n        uint256 insuranceValue     \n    )\n        external\n        requireIsOperational() \n        returns(bytes32)\n    {\n        bytes32 flightKey = getFlightKey(airline, flightId, timestamp);\n        passengers[passenger].passengerAddress = passenger;\n        passengers[passenger].flightId = flightId;\n        passengers[passenger].insuranceValue = insuranceValue;\n        passengers[passenger].payoutCredit = 0;\n        \n        flightPassengers[flightKey].push(passenger);\n\n        Flight storage flight = flights[flightId];\n        flight.passengersSize++;\n\n        return flightKey;\n    }\n\n    function getFlightPassengers(\n        address airline,\n        string memory flightId,\n        uint256 timestamp\n    )\n        public\n        view\n        requireIsOperational() \n        returns(address[] memory)\n    {\n        bytes32 flightKey = getFlightKey(airline, flightId, timestamp);\n        return flightPassengers[flightKey];\n    }\n\n\n    function getPassenger(\n        address passenger\n    )\n        public\n        view\n        requireIsOperational() \n        returns(Passenger memory)\n    {\n        return passengers[passenger];\n    }\n\n    function getInsuranceValueForPassenger(address _passenger)\n        external\n        view\n        returns(uint256)\n    {\n        \n        Passenger storage passenger = passengers[_passenger];\n        return passenger.insuranceValue;\n    }\n\n    function getPayoutCreditForPassenger(address _passenger)\n        external\n        view\n        returns(uint256)\n    {\n        Passenger storage passenger = passengers[_passenger];\n        return passenger.payoutCredit;\n    }\n\n    /**\n     *  @dev Credits payouts to insurees\n    */\n    function creditInsurees(\n        address airline,\n        string memory flightId,\n        uint256 timestamp\n    )\n        external\n    {\n        bytes32 flightKey = getFlightKey(airline, flightId, timestamp);\n        address[] memory passengersForFlight = flightPassengers[flightKey];\n        \n        for (uint i=0; i < passengersForFlight.length; i++) {\n            Passenger storage passenger = passengers[passengersForFlight[i]];\n            passenger.payoutCredit = passenger.insuranceValue + (passenger.insuranceValue / 2);\n        }\n    }\n    \n    function getBalanceDue(address _passenger) public view returns(uint256) {\n        Passenger storage passenger = passengers[_passenger];\n\n        if (passenger.passengerAddress == _passenger && passenger.payoutCredit > 0) {\n            return passenger.payoutCredit;\n        }\n\n        return 0;\n    }\n\n    /**\n     *  @dev Transfers eligible payout funds to insuree\n     *\n    */\n    function pay(\n        address payable _passenger\n    )\n         public payable\n    {\n        require(!locked, \"Reentrant call detected!\");\n\n        locked = true;\n        Passenger storage passenger = passengers[_passenger];\n\n        if (passenger.passengerAddress == _passenger && passenger.payoutCredit > 0) {\n            uint256 payoutCredit = passenger.payoutCredit;\n            passenger.payoutCredit = 0;\n            _passenger.transfer(payoutCredit);\n        }\n\n        locked = false;\n    }\n\n   /**\n    * @dev Initial funding for the insurance. Unless there are too many delayed flights\n    *      resulting in insurance payouts, the contract should be self-sustaining\n    *\n    */   \n    function fund(address airlineAddress, uint funding)\n        public\n        payable\n        requireAirlineRegistered(airlineAddress)\n    {\n        Airline storage airline = airlines[airlineAddress];\n        airline.funding = funding;\n    }\n\n    function registerFlight(\n        address airline,\n        string calldata flightId,\n        uint256 timestamp     \n    )\n        external\n        requireIsOperational()\n        requireAirlineRegistered(airline)\n        requireMinimumFunding(airline)\n    {\n        // bytes32 flightKey = getFlightKey(airline, flightId, timestamp);\n        Flight storage flight = flights[flightId];\n        flight.airline = airline;\n        flight.flightId = flightId;\n        flight.timestamp = timestamp;\n        flight.passengersSize = 0;\n    }\n\n\n    function flightExists(string calldata flightId) public view returns(bool)\n    {\n        return flights[flightId].airline != address(0);\n    }\n\n    function getFlight(string calldata flightId) public view returns(Flight memory)\n    {\n        return flights[flightId];\n    }\n\n    function getFlightKey\n                        (\n                            address airline,\n                            string memory flight,\n                            uint256 timestamp\n                        )\n                        pure\n                        internal\n                        returns(bytes32) \n    {\n        return keccak256(abi.encodePacked(airline, flight, timestamp));\n    }\n\n    /**\n    * @dev Fallback function for funding smart contract.\n    *\n    */\n    // function() \n    //                         external \n    //                         payable\n    // {\n    //     fund();\n    // }\n\n\n}\n\n",
  "sourcePath": "/workspaces/flight_surety_dapp/app/contracts/FlightSuretyData.sol",
  "compiler": {
    "name": "solc",
    "version": "0.8.15+commit.e14f2714.Emscripten.clang"
  },
  "schemaVersion": "3.4.8",
  "updatedAt": "2022-08-02T18:27:04.725Z",
  "devdoc": {
    "kind": "dev",
    "methods": {
      "buy(address,address,string,uint256,uint256)": {
        "details": "Buy insurance for a flight"
      },
      "constructor": {
        "details": "Constructor      The deploying account becomes contractOwner"
      },
      "creditInsurees(address,string,uint256)": {
        "details": "Credits payouts to insurees"
      },
      "fund(address,uint256)": {
        "details": "Initial funding for the insurance. Unless there are too many delayed flights      resulting in insurance payouts, the contract should be self-sustaining"
      },
      "isOperational()": {
        "details": "Get operating status of contract",
        "returns": {
          "_0": "A bool that is the current operating status"
        }
      },
      "pay(address)": {
        "details": "Transfers eligible payout funds to insuree"
      },
      "registerAirline(address[],address)": {
        "details": "Add an airline to the registration queue      Can only be called from FlightSuretyApp contract"
      },
      "setOperatingStatus(bool)": {
        "details": "Sets contract operations on/off When operational mode is disabled, all write transactions except for this one will fail"
      }
    },
    "version": 1
  },
  "userdoc": {
    "kind": "user",
    "methods": {},
    "version": 1
  }
}