{
  "contractName": "FlightSuretyApp",
  "abi": [
    {
      "inputs": [
        {
          "internalType": "address",
          "name": "_dataContract",
          "type": "address"
        },
        {
          "internalType": "address payable",
          "name": "_owner",
          "type": "address"
        }
      ],
      "stateMutability": "nonpayable",
      "type": "constructor"
    },
    {
      "anonymous": false,
      "inputs": [
        {
          "indexed": false,
          "internalType": "address",
          "name": "airline",
          "type": "address"
        },
        {
          "indexed": false,
          "internalType": "string",
          "name": "flight",
          "type": "string"
        },
        {
          "indexed": false,
          "internalType": "uint256",
          "name": "timestamp",
          "type": "uint256"
        },
        {
          "indexed": false,
          "internalType": "uint8",
          "name": "status",
          "type": "uint8"
        }
      ],
      "name": "FlightStatusInfo",
      "type": "event"
    },
    {
      "anonymous": false,
      "inputs": [
        {
          "indexed": false,
          "internalType": "address",
          "name": "airline",
          "type": "address"
        },
        {
          "indexed": false,
          "internalType": "string",
          "name": "flight",
          "type": "string"
        },
        {
          "indexed": false,
          "internalType": "uint256",
          "name": "timestamp",
          "type": "uint256"
        },
        {
          "indexed": false,
          "internalType": "uint8",
          "name": "status",
          "type": "uint8"
        }
      ],
      "name": "OracleReport",
      "type": "event"
    },
    {
      "anonymous": false,
      "inputs": [
        {
          "indexed": false,
          "internalType": "uint8",
          "name": "index",
          "type": "uint8"
        },
        {
          "indexed": false,
          "internalType": "address",
          "name": "airline",
          "type": "address"
        },
        {
          "indexed": false,
          "internalType": "string",
          "name": "flight",
          "type": "string"
        },
        {
          "indexed": false,
          "internalType": "uint256",
          "name": "timestamp",
          "type": "uint256"
        }
      ],
      "name": "OracleRequest",
      "type": "event"
    },
    {
      "anonymous": false,
      "inputs": [
        {
          "indexed": false,
          "internalType": "address payable",
          "name": "passenger",
          "type": "address"
        },
        {
          "indexed": false,
          "internalType": "uint256",
          "name": "refund",
          "type": "uint256"
        }
      ],
      "name": "Refund",
      "type": "event"
    },
    {
      "inputs": [],
      "name": "REGISTRATION_FEE",
      "outputs": [
        {
          "internalType": "uint256",
          "name": "",
          "type": "uint256"
        }
      ],
      "stateMutability": "view",
      "type": "function",
      "constant": true
    },
    {
      "inputs": [],
      "name": "isOperational",
      "outputs": [
        {
          "internalType": "bool",
          "name": "",
          "type": "bool"
        }
      ],
      "stateMutability": "nonpayable",
      "type": "function"
    },
    {
      "inputs": [
        {
          "internalType": "bool",
          "name": "mode",
          "type": "bool"
        },
        {
          "internalType": "address",
          "name": "sender",
          "type": "address"
        }
      ],
      "name": "setOperatingStatus",
      "outputs": [],
      "stateMutability": "nonpayable",
      "type": "function"
    },
    {
      "inputs": [],
      "name": "getDataContractAddress",
      "outputs": [
        {
          "internalType": "address",
          "name": "",
          "type": "address"
        }
      ],
      "stateMutability": "view",
      "type": "function",
      "constant": true
    },
    {
      "inputs": [],
      "name": "getDataContract",
      "outputs": [
        {
          "internalType": "contract FlightSuretyDataAbstract",
          "name": "",
          "type": "address"
        }
      ],
      "stateMutability": "view",
      "type": "function",
      "constant": true
    },
    {
      "inputs": [],
      "name": "registerAirline",
      "outputs": [
        {
          "internalType": "bool",
          "name": "success",
          "type": "bool"
        },
        {
          "internalType": "uint256",
          "name": "votes",
          "type": "uint256"
        }
      ],
      "stateMutability": "pure",
      "type": "function",
      "constant": true
    },
    {
      "inputs": [
        {
          "internalType": "address",
          "name": "airline",
          "type": "address"
        },
        {
          "internalType": "string",
          "name": "flightId",
          "type": "string"
        },
        {
          "internalType": "uint256",
          "name": "timestamp",
          "type": "uint256"
        }
      ],
      "name": "registerFlight",
      "outputs": [],
      "stateMutability": "nonpayable",
      "type": "function"
    },
    {
      "inputs": [
        {
          "internalType": "address",
          "name": "passenger",
          "type": "address"
        }
      ],
      "name": "getBalanceDue",
      "outputs": [
        {
          "internalType": "uint256",
          "name": "",
          "type": "uint256"
        }
      ],
      "stateMutability": "view",
      "type": "function",
      "constant": true
    },
    {
      "inputs": [
        {
          "internalType": "address payable",
          "name": "passenger",
          "type": "address"
        }
      ],
      "name": "pay",
      "outputs": [],
      "stateMutability": "payable",
      "type": "function",
      "payable": true
    },
    {
      "inputs": [
        {
          "internalType": "address",
          "name": "airline",
          "type": "address"
        },
        {
          "internalType": "string",
          "name": "flight",
          "type": "string"
        },
        {
          "internalType": "uint256",
          "name": "timestamp",
          "type": "uint256"
        }
      ],
      "name": "fetchFlightStatus",
      "outputs": [],
      "stateMutability": "nonpayable",
      "type": "function"
    },
    {
      "inputs": [
        {
          "internalType": "address",
          "name": "passenger",
          "type": "address"
        },
        {
          "internalType": "address",
          "name": "airline",
          "type": "address"
        },
        {
          "internalType": "string",
          "name": "flightId",
          "type": "string"
        },
        {
          "internalType": "uint256",
          "name": "timestamp",
          "type": "uint256"
        }
      ],
      "name": "buy",
      "outputs": [],
      "stateMutability": "payable",
      "type": "function",
      "payable": true
    },
    {
      "inputs": [
        {
          "internalType": "address",
          "name": "airlineAddress",
          "type": "address"
        }
      ],
      "name": "fund",
      "outputs": [],
      "stateMutability": "payable",
      "type": "function",
      "payable": true
    },
    {
      "inputs": [],
      "name": "registerOracle",
      "outputs": [],
      "stateMutability": "payable",
      "type": "function",
      "payable": true
    },
    {
      "inputs": [],
      "name": "getMyIndexes",
      "outputs": [
        {
          "internalType": "uint8[3]",
          "name": "",
          "type": "uint8[3]"
        }
      ],
      "stateMutability": "view",
      "type": "function",
      "constant": true
    },
    {
      "inputs": [
        {
          "internalType": "uint8",
          "name": "index",
          "type": "uint8"
        },
        {
          "internalType": "address",
          "name": "airline",
          "type": "address"
        },
        {
          "internalType": "string",
          "name": "flight",
          "type": "string"
        },
        {
          "internalType": "uint256",
          "name": "timestamp",
          "type": "uint256"
        },
        {
          "internalType": "uint8",
          "name": "statusCode",
          "type": "uint8"
        }
      ],
      "name": "submitOracleResponse",
      "outputs": [],
      "stateMutability": "nonpayable",
      "type": "function"
    }
  ],
  "bytecode": "0x60806040526000600460006101000a81548160ff021916908360ff1602179055503480156200002d57600080fd5b5060405162002855380380620028558339818101604052810190620000539190620001cc565b81600160006101000a81548173ffffffffffffffffffffffffffffffffffffffff021916908373ffffffffffffffffffffffffffffffffffffffff160217905550816000806101000a81548173ffffffffffffffffffffffffffffffffffffffff021916908373ffffffffffffffffffffffffffffffffffffffff16021790555080600260006101000a81548173ffffffffffffffffffffffffffffffffffffffff021916908373ffffffffffffffffffffffffffffffffffffffff160217905550505062000213565b600080fd5b600073ffffffffffffffffffffffffffffffffffffffff82169050919050565b60006200014f8262000122565b9050919050565b620001618162000142565b81146200016d57600080fd5b50565b600081519050620001818162000156565b92915050565b6000620001948262000122565b9050919050565b620001a68162000187565b8114620001b257600080fd5b50565b600081519050620001c6816200019b565b92915050565b60008060408385031215620001e657620001e56200011d565b5b6000620001f68582860162000170565b92505060206200020985828601620001b5565b9150509250929050565b61263280620002236000396000f3fe6080604052600436106100e85760003560e01c80635f1cc0e61161008a578063c10f270011610059578063c10f270014610289578063c590dda5146102b2578063cd905dff146102db578063f83f11c014610306576100e8565b80635f1cc0e6146101dc57806361e91ea11461020757806363e29a3f1461023257806364b4f7511461025e576100e8565b8063339d2590116100c6578063339d259014610150578063351831701461015a5780633cc0be9c14610176578063449d05431461019f576100e8565b80630c11dedd146100ed578063230244081461010957806324e0fbaa14610125575b600080fd5b610107600480360381019061010291906116a5565b61032f565b005b610123600480360381019061011e9190611710565b6104b8565b005b34801561013157600080fd5b5061013a610548565b604051610147919061179c565b60405180910390f35b610158610571565b005b610174600480360381019061016f9190611933565b61065e565b005b34801561018257600080fd5b5061019d60048036038101906101989190611a16565b610944565b005b3480156101ab57600080fd5b506101c660048036038101906101c19190611710565b6109db565b6040516101d39190611a99565b60405180910390f35b3480156101e857600080fd5b506101f1610a7f565b6040516101fe9190611b6c565b60405180910390f35b34801561021357600080fd5b5061021c610bbf565b6040516102299190611b96565b60405180910390f35b34801561023e57600080fd5b50610247610be9565b604051610255929190611bcc565b60405180910390f35b34801561026a57600080fd5b50610273610bf7565b6040516102809190611a99565b60405180910390f35b34801561029557600080fd5b506102b060048036038101906102ab9190611c21565b610c03565b005b3480156102be57600080fd5b506102d960048036038101906102d49190611ce7565b610fdd565b005b3480156102e757600080fd5b506102f061106e565b6040516102fd9190611d27565b60405180910390f35b34801561031257600080fd5b5061032d60048036038101906103289190611a16565b611105565b005b600260009054906101000a900473ffffffffffffffffffffffffffffffffffffffff1673ffffffffffffffffffffffffffffffffffffffff163373ffffffffffffffffffffffffffffffffffffffff161461038957600080fd5b60008060009054906101000a900473ffffffffffffffffffffffffffffffffffffffff1673ffffffffffffffffffffffffffffffffffffffff1663449d0543836040518263ffffffff1660e01b81526004016103e59190611d63565b602060405180830381865afa158015610402573d6000803e3d6000fd5b505050506040513d601f19601f820116820180604052508101906104269190611d93565b905060008054906101000a900473ffffffffffffffffffffffffffffffffffffffff1673ffffffffffffffffffffffffffffffffffffffff16630c11dedd82846040518363ffffffff1660e01b81526004016104829190611d63565b6000604051808303818588803b15801561049b57600080fd5b505af11580156104af573d6000803e3d6000fd5b50505050505050565b60008054906101000a900473ffffffffffffffffffffffffffffffffffffffff1673ffffffffffffffffffffffffffffffffffffffff16637b1837de82346040518363ffffffff1660e01b8152600401610513929190611dc0565b600060405180830381600087803b15801561052d57600080fd5b505af1158015610541573d6000803e3d6000fd5b5050505050565b60008060009054906101000a900473ffffffffffffffffffffffffffffffffffffffff16905090565b670de0b6b3a76400003410156105bc576040517f08c379a00000000000000000000000000000000000000000000000000000000081526004016105b390611e46565b60405180910390fd5b60006105c733611204565b9050604051806040016040528060011515815260200182815250600560003373ffffffffffffffffffffffffffffffffffffffff1673ffffffffffffffffffffffffffffffffffffffff16815260200190815260200160002060008201518160000160006101000a81548160ff02191690831515021790555060208201518160010190600361065792919061155a565b5090505050565b6001151560008054906101000a900473ffffffffffffffffffffffffffffffffffffffff1673ffffffffffffffffffffffffffffffffffffffff16638d7f97af846040518263ffffffff1660e01b81526004016106bb9190611edd565b602060405180830381865afa1580156106d8573d6000803e3d6000fd5b505050506040513d601f19601f820116820180604052508101906106fc9190611f14565b15151461073e576040517f08c379a000000000000000000000000000000000000000000000000000000000815260040161073590611f8d565b60405180910390fd5b6000349050670de0b6b3a764000034111561082e57600260009054906101000a900473ffffffffffffffffffffffffffffffffffffffff1673ffffffffffffffffffffffffffffffffffffffff166108fc670de0b6b3a76400009081150290604051600060405180830381858888f193505050501580156107c3573d6000803e3d6000fd5b508473ffffffffffffffffffffffffffffffffffffffff166108fc670de0b6b3a7640000346107f29190611fdc565b9081150290604051600060405180830381858888f1935050505015801561081d573d6000803e3d6000fd5b50670de0b6b3a76400009050610898565b600260009054906101000a900473ffffffffffffffffffffffffffffffffffffffff1673ffffffffffffffffffffffffffffffffffffffff166108fc349081150290604051600060405180830381858888f19350505050158015610896573d6000803e3d6000fd5b505b60008054906101000a900473ffffffffffffffffffffffffffffffffffffffff1673ffffffffffffffffffffffffffffffffffffffff1663cf90cc4486868686866040518663ffffffff1660e01b81526004016108f9959493929190612010565b6020604051808303816000875af1158015610918573d6000803e3d6000fd5b505050506040513d601f19601f8201168201806040525081019061093c91906120a0565b505050505050565b60008054906101000a900473ffffffffffffffffffffffffffffffffffffffff1673ffffffffffffffffffffffffffffffffffffffff16633cc0be9c858585856040518563ffffffff1660e01b81526004016109a394939291906120fa565b600060405180830381600087803b1580156109bd57600080fd5b505af11580156109d1573d6000803e3d6000fd5b5050505050505050565b60008060009054906101000a900473ffffffffffffffffffffffffffffffffffffffff1673ffffffffffffffffffffffffffffffffffffffff1663449d0543836040518263ffffffff1660e01b8152600401610a379190611b96565b602060405180830381865afa158015610a54573d6000803e3d6000fd5b505050506040513d601f19601f82011682018060405250810190610a789190611d93565b9050919050565b610a876115f4565b600560003373ffffffffffffffffffffffffffffffffffffffff1673ffffffffffffffffffffffffffffffffffffffff16815260200190815260200160002060000160009054906101000a900460ff16610b16576040517f08c379a0000000000000000000000000000000000000000000000000000000008152600401610b0d90612186565b60405180910390fd5b600560003373ffffffffffffffffffffffffffffffffffffffff1673ffffffffffffffffffffffffffffffffffffffff168152602001908152602001600020600101600380602002604051908101604052809291908260038015610bb5576020028201916000905b82829054906101000a900460ff1660ff1681526020019060010190602082600001049283019260010382029150808411610b7e5790505b5050505050905090565b6000600160009054906101000a900473ffffffffffffffffffffffffffffffffffffffff16905090565b600080816000915091509091565b670de0b6b3a764000081565b8560ff16600560003373ffffffffffffffffffffffffffffffffffffffff1673ffffffffffffffffffffffffffffffffffffffff168152602001908152602001600020600101600060038110610c5c57610c5b6121a6565b5b602091828204019190069054906101000a900460ff1660ff161480610cf057508560ff16600560003373ffffffffffffffffffffffffffffffffffffffff1673ffffffffffffffffffffffffffffffffffffffff168152602001908152602001600020600101600160038110610cd557610cd46121a6565b5b602091828204019190069054906101000a900460ff1660ff16145b80610d6a57508560ff16600560003373ffffffffffffffffffffffffffffffffffffffff1673ffffffffffffffffffffffffffffffffffffffff168152602001908152602001600020600101600260038110610d4f57610d4e6121a6565b5b602091828204019190069054906101000a900460ff1660ff16145b610da9576040517f08c379a0000000000000000000000000000000000000000000000000000000008152600401610da090612247565b60405180910390fd5b60008686868686604051602001610dc4959493929190612336565b6040516020818303038152906040528051906020012090506006600082815260200190815260200160002060000160149054906101000a900460ff16610e3f576040517f08c379a0000000000000000000000000000000000000000000000000000000008152600401610e36906123f4565b60405180910390fd5b6006600082815260200190815260200160002060010160008360ff1660ff168152602001908152602001600020339080600181540180825580915050600190039060005260206000200160009091909190916101000a81548173ffffffffffffffffffffffffffffffffffffffff021916908373ffffffffffffffffffffffffffffffffffffffff1602179055507f43c853095c2752648493c88b4baac4d580d2594ffb00c6f1d4242d844514f7838686868686604051610f04959493929190612423565b60405180910390a160036006600083815260200190815260200160002060010160008460ff1660ff1681526020019081526020016000208054905010610fd4577fe23f5229de535c091e3b7bec2665f5d698192d3b31393066e8987b7a05076b6c8686868686604051610f7b959493929190612423565b60405180910390a1610fd38686868080601f016020809104026020016040519081016040528093929190818152602001838380828437600081840152601f19601f8201169050808301925050505050505085856113ea565b5b50505050505050565b60008054906101000a900473ffffffffffffffffffffffffffffffffffffffff1673ffffffffffffffffffffffffffffffffffffffff1663c590dda583836040518363ffffffff1660e01b8152600401611038929190612471565b600060405180830381600087803b15801561105257600080fd5b505af1158015611066573d6000803e3d6000fd5b505050505050565b60008060009054906101000a900473ffffffffffffffffffffffffffffffffffffffff1673ffffffffffffffffffffffffffffffffffffffff1663cd905dff6040518163ffffffff1660e01b8152600401602060405180830381865afa1580156110dc573d6000803e3d6000fd5b505050506040513d601f19601f820116820180604052508101906111009190611f14565b905090565b60006111103361148e565b90506000818686868660405160200161112d959493929190612336565b6040516020818303038152906040528051906020012090506000600660008381526020019081526020016000209050338160000160006101000a81548173ffffffffffffffffffffffffffffffffffffffff021916908373ffffffffffffffffffffffffffffffffffffffff16021790555060018160000160146101000a81548160ff0219169083151502179055507f3ed01f2c3fc24c6b329d931e35b03e390d23497d22b3f90e15b600343e93df1183888888886040516111f395949392919061249a565b60405180910390a150505050505050565b61120c6115f4565b6112146115f4565b61121d8361148e565b81600060038110611231576112306121a6565b5b602002019060ff16908160ff168152505080600060038110611256576112556121a6565b5b60200201518160016003811061126f5761126e6121a6565b5b602002019060ff16908160ff16815250505b80600060038110611295576112946121a6565b5b602002015160ff16816001600381106112b1576112b06121a6565b5b602002015160ff16036112f1576112c78361148e565b816001600381106112db576112da6121a6565b5b602002019060ff16908160ff1681525050611281565b80600160038110611305576113046121a6565b5b60200201518160026003811061131e5761131d6121a6565b5b602002019060ff16908160ff16815250505b80600060038110611344576113436121a6565b5b602002015160ff16816002600381106113605761135f6121a6565b5b602002015160ff1614806113a9575080600160038110611383576113826121a6565b5b602002015160ff168160026003811061139f5761139e6121a6565b5b602002015160ff16145b156113e1576113b78361148e565b816002600381106113cb576113ca6121a6565b5b602002019060ff16908160ff1681525050611330565b80915050919050565b601460ff168160ff16036114885760008054906101000a900473ffffffffffffffffffffffffffffffffffffffff1673ffffffffffffffffffffffffffffffffffffffff1663c8820a708585856040518463ffffffff1660e01b8152600401611455939291906124e8565b600060405180830381600087803b15801561146f57600080fd5b505af1158015611483573d6000803e3d6000fd5b505050505b50505050565b600080600a905060008160ff166004600081819054906101000a900460ff16809291906114ba90612526565b91906101000a81548160ff021916908360ff16021790555060ff16436114e09190611fdc565b40856040516020016114f3929190612570565b6040516020818303038152906040528051906020012060001c61151691906125cb565b905060fa600460009054906101000a900460ff1660ff161115611550576000600460006101000a81548160ff021916908360ff1602179055505b8092505050919050565b826003601f016020900481019282156115e35791602002820160005b838211156115b457835183826101000a81548160ff021916908360ff1602179055509260200192600101602081600001049283019260010302611576565b80156115e15782816101000a81549060ff02191690556001016020816000010492830192600103026115b4565b505b5090506115f09190611616565b5090565b6040518060600160405280600390602082028036833780820191505090505090565b5b8082111561162f576000816000905550600101611617565b5090565b6000604051905090565b600080fd5b600080fd5b600073ffffffffffffffffffffffffffffffffffffffff82169050919050565b600061167282611647565b9050919050565b61168281611667565b811461168d57600080fd5b50565b60008135905061169f81611679565b92915050565b6000602082840312156116bb576116ba61163d565b5b60006116c984828501611690565b91505092915050565b60006116dd82611647565b9050919050565b6116ed816116d2565b81146116f857600080fd5b50565b60008135905061170a816116e4565b92915050565b6000602082840312156117265761172561163d565b5b6000611734848285016116fb565b91505092915050565b6000819050919050565b600061176261175d61175884611647565b61173d565b611647565b9050919050565b600061177482611747565b9050919050565b600061178682611769565b9050919050565b6117968161177b565b82525050565b60006020820190506117b1600083018461178d565b92915050565b600080fd5b600080fd5b6000601f19601f8301169050919050565b7f4e487b7100000000000000000000000000000000000000000000000000000000600052604160045260246000fd5b61180a826117c1565b810181811067ffffffffffffffff82111715611829576118286117d2565b5b80604052505050565b600061183c611633565b90506118488282611801565b919050565b600067ffffffffffffffff821115611868576118676117d2565b5b611871826117c1565b9050602081019050919050565b82818337600083830152505050565b60006118a061189b8461184d565b611832565b9050828152602081018484840111156118bc576118bb6117bc565b5b6118c784828561187e565b509392505050565b600082601f8301126118e4576118e36117b7565b5b81356118f484826020860161188d565b91505092915050565b6000819050919050565b611910816118fd565b811461191b57600080fd5b50565b60008135905061192d81611907565b92915050565b6000806000806080858703121561194d5761194c61163d565b5b600061195b878288016116fb565b945050602061196c878288016116fb565b935050604085013567ffffffffffffffff81111561198d5761198c611642565b5b611999878288016118cf565b92505060606119aa8782880161191e565b91505092959194509250565b600080fd5b600080fd5b60008083601f8401126119d6576119d56117b7565b5b8235905067ffffffffffffffff8111156119f3576119f26119b6565b5b602083019150836001820283011115611a0f57611a0e6119bb565b5b9250929050565b60008060008060608587031215611a3057611a2f61163d565b5b6000611a3e878288016116fb565b945050602085013567ffffffffffffffff811115611a5f57611a5e611642565b5b611a6b878288016119c0565b93509350506040611a7e8782880161191e565b91505092959194509250565b611a93816118fd565b82525050565b6000602082019050611aae6000830184611a8a565b92915050565b600060039050919050565b600081905092915050565b6000819050919050565b600060ff82169050919050565b611aea81611ad4565b82525050565b6000611afc8383611ae1565b60208301905092915050565b6000602082019050919050565b611b1e81611ab4565b611b288184611abf565b9250611b3382611aca565b8060005b83811015611b64578151611b4b8782611af0565b9650611b5683611b08565b925050600181019050611b37565b505050505050565b6000606082019050611b816000830184611b15565b92915050565b611b90816116d2565b82525050565b6000602082019050611bab6000830184611b87565b92915050565b60008115159050919050565b611bc681611bb1565b82525050565b6000604082019050611be16000830185611bbd565b611bee6020830184611a8a565b9392505050565b611bfe81611ad4565b8114611c0957600080fd5b50565b600081359050611c1b81611bf5565b92915050565b60008060008060008060a08789031215611c3e57611c3d61163d565b5b6000611c4c89828a01611c0c565b9650506020611c5d89828a016116fb565b955050604087013567ffffffffffffffff811115611c7e57611c7d611642565b5b611c8a89828a016119c0565b94509450506060611c9d89828a0161191e565b9250506080611cae89828a01611c0c565b9150509295509295509295565b611cc481611bb1565b8114611ccf57600080fd5b50565b600081359050611ce181611cbb565b92915050565b60008060408385031215611cfe57611cfd61163d565b5b6000611d0c85828601611cd2565b9250506020611d1d858286016116fb565b9150509250929050565b6000602082019050611d3c6000830184611bbd565b92915050565b6000611d4d82611769565b9050919050565b611d5d81611d42565b82525050565b6000602082019050611d786000830184611d54565b92915050565b600081519050611d8d81611907565b92915050565b600060208284031215611da957611da861163d565b5b6000611db784828501611d7e565b91505092915050565b6000604082019050611dd56000830185611b87565b611de26020830184611a8a565b9392505050565b600082825260208201905092915050565b7f526567697374726174696f6e2066656520697320726571756972656400000000600082015250565b6000611e30601c83611de9565b9150611e3b82611dfa565b602082019050919050565b60006020820190508181036000830152611e5f81611e23565b9050919050565b600081519050919050565b60005b83811015611e8f578082015181840152602081019050611e74565b83811115611e9e576000848401525b50505050565b6000611eaf82611e66565b611eb98185611de9565b9350611ec9818560208601611e71565b611ed2816117c1565b840191505092915050565b60006020820190508181036000830152611ef78184611ea4565b905092915050565b600081519050611f0e81611cbb565b92915050565b600060208284031215611f2a57611f2961163d565b5b6000611f3884828501611eff565b91505092915050565b7f466c69676874206d757374206578697374000000000000000000000000000000600082015250565b6000611f77601183611de9565b9150611f8282611f41565b602082019050919050565b60006020820190508181036000830152611fa681611f6a565b9050919050565b7f4e487b7100000000000000000000000000000000000000000000000000000000600052601160045260246000fd5b6000611fe7826118fd565b9150611ff2836118fd565b92508282101561200557612004611fad565b5b828203905092915050565b600060a0820190506120256000830188611b87565b6120326020830187611b87565b81810360408301526120448186611ea4565b90506120536060830185611a8a565b6120606080830184611a8a565b9695505050505050565b6000819050919050565b61207d8161206a565b811461208857600080fd5b50565b60008151905061209a81612074565b92915050565b6000602082840312156120b6576120b561163d565b5b60006120c48482850161208b565b91505092915050565b60006120d98385611de9565b93506120e683858461187e565b6120ef836117c1565b840190509392505050565b600060608201905061210f6000830187611b87565b81810360208301526121228185876120cd565b90506121316040830184611a8a565b95945050505050565b7f4e6f74207265676973746572656420617320616e206f7261636c650000000000600082015250565b6000612170601b83611de9565b915061217b8261213a565b602082019050919050565b6000602082019050818103600083015261219f81612163565b9050919050565b7f4e487b7100000000000000000000000000000000000000000000000000000000600052603260045260246000fd5b7f496e64657820646f6573206e6f74206d61746368206f7261636c65207265717560008201527f6573740000000000000000000000000000000000000000000000000000000000602082015250565b6000612231602383611de9565b915061223c826121d5565b604082019050919050565b6000602082019050818103600083015261226081612224565b9050919050565b60008160f81b9050919050565b600061227f82612267565b9050919050565b61229761229282611ad4565b612274565b82525050565b60008160601b9050919050565b60006122b58261229d565b9050919050565b60006122c7826122aa565b9050919050565b6122df6122da826116d2565b6122bc565b82525050565b600081905092915050565b60006122fc83856122e5565b935061230983858461187e565b82840190509392505050565b6000819050919050565b61233061232b826118fd565b612315565b82525050565b60006123428288612286565b60018201915061235282876122ce565b6014820191506123638285876122f0565b915061236f828461231f565b6020820191508190509695505050505050565b7f466c69676874206f722074696d657374616d7020646f206e6f74206d6174636860008201527f206f7261636c6520726571756573740000000000000000000000000000000000602082015250565b60006123de602f83611de9565b91506123e982612382565b604082019050919050565b6000602082019050818103600083015261240d816123d1565b9050919050565b61241d81611ad4565b82525050565b60006080820190506124386000830188611b87565b818103602083015261244b8186886120cd565b905061245a6040830185611a8a565b6124676060830184612414565b9695505050505050565b60006040820190506124866000830185611bbd565b6124936020830184611b87565b9392505050565b60006080820190506124af6000830188612414565b6124bc6020830187611b87565b81810360408301526124cf8185876120cd565b90506124de6060830184611a8a565b9695505050505050565b60006060820190506124fd6000830186611b87565b818103602083015261250f8185611ea4565b905061251e6040830184611a8a565b949350505050565b600061253182611ad4565b915060ff820361254457612543611fad565b5b600182019050919050565b6000819050919050565b61256a6125658261206a565b61254f565b82525050565b600061257c8285612559565b60208201915061258c82846122ce565b6014820191508190509392505050565b7f4e487b7100000000000000000000000000000000000000000000000000000000600052601260045260246000fd5b60006125d6826118fd565b91506125e1836118fd565b9250826125f1576125f061259c565b5b82820690509291505056fea26469706673582212208c39588a840cf4e0167d6fe92228f349cf62d9a2afa43b830547852c1d60c04c64736f6c634300080f0033",
  "immutableReferences": {},
  "source": "pragma solidity ^0.8.15;\n\n// It's important to avoid vulnerabilities due to numeric overflow bugs\n// OpenZeppelin's SafeMath library, when used correctly, protects agains such bugs\n// More info: https://www.nccgroup.trust/us/about-us/newsroom-and-events/blog/2018/november/smart-contract-insecurity-bad-arithmetic/\n\nimport \"@openzeppelin/contracts/utils/math/SafeMath.sol\";\n\n/************************************************** */\n/* FlightSurety Smart Contract                      */\n/************************************************** */\ncontract FlightSuretyApp {\n    using SafeMath for uint256; // Allow SafeMath functions to be called for all uint256 types (similar to \"prototype\" in Javascript)\n\n    FlightSuretyDataAbstract flightSuretyData;\n    address flightSuretyDataAddress;\n\n    /********************************************************************************************/\n    /*                                       DATA VARIABLES                                     */\n    /********************************************************************************************/\n\n    // Flight status codees\n    uint8 private constant STATUS_CODE_UNKNOWN = 0;\n    uint8 private constant STATUS_CODE_ON_TIME = 10;\n    uint8 private constant STATUS_CODE_LATE_AIRLINE = 20;\n    uint8 private constant STATUS_CODE_LATE_WEATHER = 30;\n    uint8 private constant STATUS_CODE_LATE_TECHNICAL = 40;\n    uint8 private constant STATUS_CODE_LATE_OTHER = 50;\n\n    address payable private contractOwner; // Account used to deploy contract\n\n    struct Flight {\n        bool isRegistered;\n        uint8 statusCode;\n        uint256 updatedTimestamp;\n        address airline;\n    }\n    mapping(bytes32 => Flight) private flights;\n\n    /********************************************************************************************/\n    /*                                       EVENTS                                             */\n    /********************************************************************************************/\n\n    event Refund(address payable passenger, uint refund);\n\n    /********************************************************************************************/\n    /*                                       FUNCTION MODIFIERS                                 */\n    /********************************************************************************************/\n\n    // Modifiers help avoid duplication of code. They are typically used to validate something\n    // before a function is allowed to be executed.\n\n    /**\n     * @dev Modifier that requires the \"operational\" boolean variable to be \"true\"\n     *      This is used on all state changing functions to pause the contract in\n     *      the event there is an issue that needs to be fixed\n     */\n    modifier requireIsOperational() {\n        // Modify to call data contract's status\n        require(true, \"Contract is currently not operational\");\n        _; // All modifiers require an \"_\" which indicates where the function body will be added\n    }\n\n    /**\n     * @dev Modifier that requires the \"ContractOwner\" account to be the function caller\n     */\n    modifier requireContractOwner() {\n        require(msg.sender == contractOwner, \"Caller is not contract owner\");\n        _;\n    }\n\n    /********************************************************************************************/\n    /*                                       CONSTRUCTOR                                        */\n    /********************************************************************************************/\n\n    /**\n     * @dev Contract constructor\n     *\n     */\n    constructor(address _dataContract, address payable _owner) {\n        flightSuretyDataAddress = _dataContract;\n        flightSuretyData = FlightSuretyDataAbstract(_dataContract);\n        contractOwner = _owner; //msg.sender;\n    }\n\n    /********************************************************************************************/\n    /*                                       UTILITY FUNCTIONS                                  */\n    /********************************************************************************************/\n\n    function isOperational() public returns (bool) {\n        return flightSuretyData.isOperational(); // Modify to call data contract's status\n    }\n\n    function setOperatingStatus(bool mode, address sender) external {\n        flightSuretyData.setOperatingStatus(mode, sender);\n    }\n\n    function getDataContractAddress() public view returns (address) {\n        return flightSuretyDataAddress;\n    }\n\n    function getDataContract() public view returns (FlightSuretyDataAbstract) {\n        return flightSuretyData;\n    }\n\n    /********************************************************************************************/\n    /*                                     SMART CONTRACT FUNCTIONS                             */\n    /********************************************************************************************/\n\n    /**\n     * @dev Add an airline to the registration queue\n     *\n     */\n    function registerAirline()\n        external\n        pure\n        returns (bool success, uint256 votes)\n    {\n        return (success, 0);\n    }\n\n    /**\n     * @dev Register a future flight for insuring.\n     *\n     */\n    function registerFlight(\n        address airline,\n        string calldata flightId,\n        uint256 timestamp\n    ) external {\n        flightSuretyData.registerFlight(airline, flightId, timestamp);\n    }\n\n    /**\n     * @dev Called after oracle has updated flight status\n     *\n     */\n    function processFlightStatus(\n        address airline,\n        string memory flightId,\n        uint256 timestamp,\n        uint8 statusCode\n    ) internal {\n        if (statusCode == STATUS_CODE_LATE_AIRLINE) {\n            flightSuretyData.creditInsurees(airline, flightId, timestamp);\n        }\n    }\n\n    function getBalanceDue(address passenger) public view returns (uint256) {\n        return flightSuretyData.getBalanceDue(passenger);\n    }\n\n    function pay(address payable passenger) public payable {\n        require(msg.sender == contractOwner);\n        uint256 balanceDue = flightSuretyData.getBalanceDue(passenger);\n        flightSuretyData.pay{value: balanceDue}(passenger);\n    }\n\n    // Generate a request for oracles to fetch flight information\n    function fetchFlightStatus(\n        address airline,\n        string calldata flight,\n        uint256 timestamp\n    ) external {\n        uint8 index = getRandomIndex(msg.sender);\n\n        // Generate a unique key for storing the request\n        bytes32 key = keccak256(\n            abi.encodePacked(index, airline, flight, timestamp)\n        );\n        ResponseInfo storage response = oracleResponses[key];\n        response.requester = msg.sender;\n        response.isOpen = true;\n\n        emit OracleRequest(index, airline, flight, timestamp);\n    }\n\n    function buy(\n        address passenger,\n        address airline,\n        string memory flightId,\n        uint256 timestamp\n    ) external payable {\n        require(\n            flightSuretyData.flightExists(flightId) == true,\n            \"Flight must exist\"\n        );\n        uint256 insuranceValue = msg.value;\n        if (msg.value > 1 ether) {\n            contractOwner.transfer(1 ether);\n            payable(passenger).transfer(msg.value - 1 ether);\n            insuranceValue = 1 ether;\n        } else {\n            contractOwner.transfer(msg.value);\n        }\n        flightSuretyData.buy(\n            passenger,\n            airline,\n            flightId,\n            timestamp,\n            insuranceValue\n        );\n    }\n\n    function fund(address airlineAddress) public payable {\n        flightSuretyData.fund(airlineAddress, msg.value);\n    }\n\n    // region ORACLE MANAGEMENT\n\n    // Incremented to add pseudo-randomness at various points\n    uint8 private nonce = 0;\n\n    // Fee to be paid when registering oracle\n    uint256 public constant REGISTRATION_FEE = 1 ether;\n\n    // Number of oracles that must respond for valid status\n    uint256 private constant MIN_RESPONSES = 3;\n\n    struct Oracle {\n        bool isRegistered;\n        uint8[3] indexes;\n    }\n\n    // Track all registered oracles\n    mapping(address => Oracle) private oracles;\n\n    // Model for responses from oracles\n    struct ResponseInfo {\n        address requester; // Account that requested status\n        bool isOpen; // If open, oracle responses are accepted\n        mapping(uint8 => address[]) responses; // Mapping key is the status code reported\n        // This lets us group responses and identify\n        // the response that majority of the oracles\n    }\n\n    // Track all oracle responses\n    // Key = hash(index, flight, timestamp)\n    mapping(bytes32 => ResponseInfo) private oracleResponses;\n\n    // Event fired each time an oracle submits a response\n    event FlightStatusInfo(\n        address airline,\n        string flight,\n        uint256 timestamp,\n        uint8 status\n    );\n\n    event OracleReport(\n        address airline,\n        string flight,\n        uint256 timestamp,\n        uint8 status\n    );\n\n    // Event fired when flight status request is submitted\n    // Oracles track this and if they have a matching index\n    // they fetch data and submit a response\n    event OracleRequest(\n        uint8 index,\n        address airline,\n        string flight,\n        uint256 timestamp\n    );\n\n    // Register an oracle with the contract\n    function registerOracle() external payable {\n        // Require registration fee\n        require(msg.value >= REGISTRATION_FEE, \"Registration fee is required\");\n\n        uint8[3] memory indexes = generateIndexes(msg.sender);\n\n        oracles[msg.sender] = Oracle({isRegistered: true, indexes: indexes});\n    }\n\n    function getMyIndexes() external view returns (uint8[3] memory) {\n        require(\n            oracles[msg.sender].isRegistered,\n            \"Not registered as an oracle\"\n        );\n\n        return oracles[msg.sender].indexes;\n    }\n\n    // Called by oracle when a response is available to an outstanding request\n    // For the response to be accepted, there must be a pending request that is open\n    // and matches one of the three Indexes randomly assigned to the oracle at the\n    // time of registration (i.e. uninvited oracles are not welcome)\n    function submitOracleResponse(\n        uint8 index,\n        address airline,\n        string calldata flight,\n        uint256 timestamp,\n        uint8 statusCode\n    ) external {\n        require(\n            (oracles[msg.sender].indexes[0] == index) ||\n                (oracles[msg.sender].indexes[1] == index) ||\n                (oracles[msg.sender].indexes[2] == index),\n            \"Index does not match oracle request\"\n        );\n\n        bytes32 key = keccak256(\n            abi.encodePacked(index, airline, flight, timestamp)\n        );\n        require(\n            oracleResponses[key].isOpen,\n            \"Flight or timestamp do not match oracle request\"\n        );\n\n        oracleResponses[key].responses[statusCode].push(msg.sender);\n\n        // Information isn't considered verified until at least MIN_RESPONSES\n        // oracles respond with the *** same *** information\n        emit OracleReport(airline, flight, timestamp, statusCode);\n        if (\n            oracleResponses[key].responses[statusCode].length >= MIN_RESPONSES\n        ) {\n            emit FlightStatusInfo(airline, flight, timestamp, statusCode);\n\n            // Handle flight status as appropriate\n            processFlightStatus(airline, flight, timestamp, statusCode);\n        }\n    }\n\n    function getFlightKey(\n        address airline,\n        string calldata flight,\n        uint256 timestamp\n    ) internal pure returns (bytes32) {\n        return keccak256(abi.encodePacked(airline, flight, timestamp));\n    }\n\n    // Returns array of three non-duplicating integers from 0-9\n    function generateIndexes(address account)\n        internal\n        returns (uint8[3] memory)\n    {\n        uint8[3] memory indexes;\n        indexes[0] = getRandomIndex(account);\n\n        indexes[1] = indexes[0];\n        while (indexes[1] == indexes[0]) {\n            indexes[1] = getRandomIndex(account);\n        }\n\n        indexes[2] = indexes[1];\n        while ((indexes[2] == indexes[0]) || (indexes[2] == indexes[1])) {\n            indexes[2] = getRandomIndex(account);\n        }\n\n        return indexes;\n    }\n\n    // Returns array of three non-duplicating integers from 0-9\n    function getRandomIndex(address account) internal returns (uint8) {\n        uint8 maxValue = 10;\n\n        // Pseudo random number...the incrementing nonce adds variation\n        uint8 random = uint8(\n            uint256(\n                keccak256(\n                    abi.encodePacked(blockhash(block.number - nonce++), account)\n                )\n            ) % maxValue\n        );\n\n        if (nonce > 250) {\n            nonce = 0; // Can only fetch blockhashes for last 256 blocks so we adapt\n        }\n\n        return random;\n    }\n\n    // endregion\n}\n\ncontract FlightSuretyDataAbstract {\n    // function setContractOwner(address owner) public {}\n    function isOperational() public view returns (bool) {}\n\n    function setOperatingStatus(bool mode, address sender) external {}\n\n    function registerAirline() external {}\n\n    function registerFlight(\n        address airline,\n        string calldata flightId,\n        uint256 timestamp\n    ) external {}\n\n    function flightExists(string calldata flightId)\n        public\n        view\n        returns (bool)\n    {}\n\n    function buy(\n        address passenger,\n        address airline,\n        string memory flightId,\n        uint256 timestamp,\n        uint256 insuranceValue\n    ) external returns (bytes32) {}\n\n    function creditInsurees(\n        address airline,\n        string memory flightId,\n        uint256 timestamp\n    ) external {}\n\n    function getBalanceDue(address passenger) public view returns (uint256) {}\n\n    function pay(address passenger) public payable {}\n\n    function fund(address airlineAddress, uint funding) external payable {}\n}\n",
  "sourcePath": "/workspaces/flight_surety_dapp/app/contracts/FlightSuretyApp.sol",
  "compiler": {
    "name": "solc",
    "version": "0.8.15+commit.e14f2714.Emscripten.clang"
  },
  "schemaVersion": "3.4.8",
  "updatedAt": "2022-08-02T19:19:48.125Z",
  "networkType": "ethereum",
  "devdoc": {
    "kind": "dev",
    "methods": {
      "constructor": {
        "details": "Contract constructor"
      },
      "registerAirline()": {
        "details": "Add an airline to the registration queue"
      },
      "registerFlight(address,string,uint256)": {
        "details": "Register a future flight for insuring."
      }
    },
    "version": 1
  },
  "userdoc": {
    "kind": "user",
    "methods": {},
    "version": 1
  }
}