{
  "contractName": "FlightSuretyApp",
  "abi": [
    {
      "inputs": [
        {
          "internalType": "address",
          "name": "_dataContract",
          "type": "address"
        },
        {
          "internalType": "address payable",
          "name": "_owner",
          "type": "address"
        }
      ],
      "stateMutability": "nonpayable",
      "type": "constructor"
    },
    {
      "anonymous": false,
      "inputs": [
        {
          "indexed": false,
          "internalType": "address",
          "name": "airline",
          "type": "address"
        },
        {
          "indexed": false,
          "internalType": "string",
          "name": "flight",
          "type": "string"
        },
        {
          "indexed": false,
          "internalType": "uint256",
          "name": "timestamp",
          "type": "uint256"
        },
        {
          "indexed": false,
          "internalType": "uint8",
          "name": "status",
          "type": "uint8"
        }
      ],
      "name": "FlightStatusInfo",
      "type": "event"
    },
    {
      "anonymous": false,
      "inputs": [
        {
          "indexed": false,
          "internalType": "address",
          "name": "oracle",
          "type": "address"
        }
      ],
      "name": "OracleRegistered",
      "type": "event"
    },
    {
      "anonymous": false,
      "inputs": [
        {
          "indexed": false,
          "internalType": "address",
          "name": "airline",
          "type": "address"
        },
        {
          "indexed": false,
          "internalType": "string",
          "name": "flight",
          "type": "string"
        },
        {
          "indexed": false,
          "internalType": "uint256",
          "name": "timestamp",
          "type": "uint256"
        },
        {
          "indexed": false,
          "internalType": "uint8",
          "name": "status",
          "type": "uint8"
        }
      ],
      "name": "OracleReport",
      "type": "event"
    },
    {
      "anonymous": false,
      "inputs": [
        {
          "indexed": false,
          "internalType": "uint8",
          "name": "index",
          "type": "uint8"
        },
        {
          "indexed": false,
          "internalType": "address",
          "name": "airline",
          "type": "address"
        },
        {
          "indexed": false,
          "internalType": "string",
          "name": "flight",
          "type": "string"
        },
        {
          "indexed": false,
          "internalType": "uint256",
          "name": "timestamp",
          "type": "uint256"
        }
      ],
      "name": "OracleRequest",
      "type": "event"
    },
    {
      "anonymous": false,
      "inputs": [
        {
          "indexed": false,
          "internalType": "address payable",
          "name": "passenger",
          "type": "address"
        },
        {
          "indexed": false,
          "internalType": "uint256",
          "name": "refund",
          "type": "uint256"
        }
      ],
      "name": "Refund",
      "type": "event"
    },
    {
      "inputs": [],
      "name": "REGISTRATION_FEE",
      "outputs": [
        {
          "internalType": "uint256",
          "name": "",
          "type": "uint256"
        }
      ],
      "stateMutability": "view",
      "type": "function",
      "constant": true
    },
    {
      "inputs": [],
      "name": "isOperational",
      "outputs": [
        {
          "internalType": "bool",
          "name": "",
          "type": "bool"
        }
      ],
      "stateMutability": "nonpayable",
      "type": "function"
    },
    {
      "inputs": [
        {
          "internalType": "bool",
          "name": "mode",
          "type": "bool"
        }
      ],
      "name": "setOperatingStatus",
      "outputs": [],
      "stateMutability": "nonpayable",
      "type": "function"
    },
    {
      "inputs": [],
      "name": "getDataContractAddress",
      "outputs": [
        {
          "internalType": "address",
          "name": "",
          "type": "address"
        }
      ],
      "stateMutability": "view",
      "type": "function",
      "constant": true
    },
    {
      "inputs": [],
      "name": "getDataContract",
      "outputs": [
        {
          "internalType": "contract FlightSuretyDataAbstract",
          "name": "",
          "type": "address"
        }
      ],
      "stateMutability": "view",
      "type": "function",
      "constant": true
    },
    {
      "inputs": [],
      "name": "registerAirline",
      "outputs": [
        {
          "internalType": "bool",
          "name": "success",
          "type": "bool"
        },
        {
          "internalType": "uint256",
          "name": "votes",
          "type": "uint256"
        }
      ],
      "stateMutability": "pure",
      "type": "function",
      "constant": true
    },
    {
      "inputs": [
        {
          "internalType": "address",
          "name": "airline",
          "type": "address"
        },
        {
          "internalType": "string",
          "name": "flightId",
          "type": "string"
        },
        {
          "internalType": "uint256",
          "name": "timestamp",
          "type": "uint256"
        }
      ],
      "name": "registerFlight",
      "outputs": [],
      "stateMutability": "nonpayable",
      "type": "function"
    },
    {
      "inputs": [
        {
          "internalType": "address",
          "name": "passenger",
          "type": "address"
        }
      ],
      "name": "getBalanceDue",
      "outputs": [
        {
          "internalType": "uint256",
          "name": "",
          "type": "uint256"
        }
      ],
      "stateMutability": "view",
      "type": "function",
      "constant": true
    },
    {
      "inputs": [
        {
          "internalType": "address payable",
          "name": "passenger",
          "type": "address"
        }
      ],
      "name": "pay",
      "outputs": [],
      "stateMutability": "payable",
      "type": "function",
      "payable": true
    },
    {
      "inputs": [
        {
          "internalType": "address",
          "name": "airline",
          "type": "address"
        },
        {
          "internalType": "string",
          "name": "flight",
          "type": "string"
        },
        {
          "internalType": "uint256",
          "name": "timestamp",
          "type": "uint256"
        }
      ],
      "name": "fetchFlightStatus",
      "outputs": [],
      "stateMutability": "nonpayable",
      "type": "function"
    },
    {
      "inputs": [
        {
          "internalType": "address",
          "name": "passenger",
          "type": "address"
        },
        {
          "internalType": "address",
          "name": "airline",
          "type": "address"
        },
        {
          "internalType": "string",
          "name": "flightId",
          "type": "string"
        },
        {
          "internalType": "uint256",
          "name": "timestamp",
          "type": "uint256"
        }
      ],
      "name": "buy",
      "outputs": [],
      "stateMutability": "payable",
      "type": "function",
      "payable": true
    },
    {
      "inputs": [
        {
          "internalType": "address",
          "name": "airlineAddress",
          "type": "address"
        }
      ],
      "name": "fund",
      "outputs": [],
      "stateMutability": "payable",
      "type": "function",
      "payable": true
    },
    {
      "inputs": [],
      "name": "registerOracle",
      "outputs": [],
      "stateMutability": "payable",
      "type": "function",
      "payable": true
    },
    {
      "inputs": [],
      "name": "getMyIndexes",
      "outputs": [
        {
          "internalType": "uint8[3]",
          "name": "",
          "type": "uint8[3]"
        }
      ],
      "stateMutability": "view",
      "type": "function",
      "constant": true
    },
    {
      "inputs": [
        {
          "internalType": "uint8",
          "name": "index",
          "type": "uint8"
        },
        {
          "internalType": "address",
          "name": "airline",
          "type": "address"
        },
        {
          "internalType": "string",
          "name": "flight",
          "type": "string"
        },
        {
          "internalType": "uint256",
          "name": "timestamp",
          "type": "uint256"
        },
        {
          "internalType": "uint8",
          "name": "statusCode",
          "type": "uint8"
        }
      ],
      "name": "submitOracleResponse",
      "outputs": [],
      "stateMutability": "nonpayable",
      "type": "function"
    }
  ],
  "bytecode": "0x60806040526000600460006101000a81548160ff021916908360ff1602179055503480156200002d57600080fd5b5060405162002949380380620029498339818101604052810190620000539190620001cc565b81600160006101000a81548173ffffffffffffffffffffffffffffffffffffffff021916908373ffffffffffffffffffffffffffffffffffffffff160217905550816000806101000a81548173ffffffffffffffffffffffffffffffffffffffff021916908373ffffffffffffffffffffffffffffffffffffffff16021790555080600260006101000a81548173ffffffffffffffffffffffffffffffffffffffff021916908373ffffffffffffffffffffffffffffffffffffffff160217905550505062000213565b600080fd5b600073ffffffffffffffffffffffffffffffffffffffff82169050919050565b60006200014f8262000122565b9050919050565b620001618162000142565b81146200016d57600080fd5b50565b600081519050620001818162000156565b92915050565b6000620001948262000122565b9050919050565b620001a68162000187565b8114620001b257600080fd5b50565b600081519050620001c6816200019b565b92915050565b60008060408385031215620001e657620001e56200011d565b5b6000620001f68582860162000170565b92505060206200020985828601620001b5565b9150509250929050565b61272680620002236000396000f3fe6080604052600436106100e85760003560e01c8063449d05431161008a57806364b4f7511161005957806364b4f75114610287578063c10f2700146102b2578063cd905dff146102db578063f83f11c014610306576100e8565b8063449d0543146101c85780635f1cc0e61461020557806361e91ea11461023057806363e29a3f1461025b576100e8565b806324e0fbaa116100c657806324e0fbaa1461014e578063339d25901461017957806335183170146101835780633cc0be9c1461019f576100e8565b80630c11dedd146100ed578063110466ed146101095780632302440814610132575b600080fd5b61010760048036038101906101029190611769565b61032f565b005b34801561011557600080fd5b50610130600480360381019061012b91906117ce565b6104b8565b005b61014c60048036038101906101479190611839565b6105d6565b005b34801561015a57600080fd5b50610163610666565b60405161017091906118c5565b60405180910390f35b61018161068f565b005b61019d60048036038101906101989190611a5c565b6107b3565b005b3480156101ab57600080fd5b506101c660048036038101906101c19190611b3f565b610a99565b005b3480156101d457600080fd5b506101ef60048036038101906101ea9190611839565b610b30565b6040516101fc9190611bc2565b60405180910390f35b34801561021157600080fd5b5061021a610bd4565b6040516102279190611c95565b60405180910390f35b34801561023c57600080fd5b50610245610d14565b6040516102529190611cbf565b60405180910390f35b34801561026757600080fd5b50610270610d3e565b60405161027e929190611ce9565b60405180910390f35b34801561029357600080fd5b5061029c610d4c565b6040516102a99190611bc2565b60405180910390f35b3480156102be57600080fd5b506102d960048036038101906102d49190611d3e565b610d58565b005b3480156102e757600080fd5b506102f0611132565b6040516102fd9190611dd8565b60405180910390f35b34801561031257600080fd5b5061032d60048036038101906103289190611b3f565b6111c9565b005b600260009054906101000a900473ffffffffffffffffffffffffffffffffffffffff1673ffffffffffffffffffffffffffffffffffffffff163373ffffffffffffffffffffffffffffffffffffffff161461038957600080fd5b60008060009054906101000a900473ffffffffffffffffffffffffffffffffffffffff1673ffffffffffffffffffffffffffffffffffffffff1663449d0543836040518263ffffffff1660e01b81526004016103e59190611e14565b602060405180830381865afa158015610402573d6000803e3d6000fd5b505050506040513d601f19601f820116820180604052508101906104269190611e44565b905060008054906101000a900473ffffffffffffffffffffffffffffffffffffffff1673ffffffffffffffffffffffffffffffffffffffff16630c11dedd82846040518363ffffffff1660e01b81526004016104829190611e14565b6000604051808303818588803b15801561049b57600080fd5b505af11580156104af573d6000803e3d6000fd5b50505050505050565b600260009054906101000a900473ffffffffffffffffffffffffffffffffffffffff1673ffffffffffffffffffffffffffffffffffffffff163373ffffffffffffffffffffffffffffffffffffffff1614610548576040517f08c379a000000000000000000000000000000000000000000000000000000000815260040161053f90611ece565b60405180910390fd5b60008054906101000a900473ffffffffffffffffffffffffffffffffffffffff1673ffffffffffffffffffffffffffffffffffffffff1663110466ed826040518263ffffffff1660e01b81526004016105a19190611dd8565b600060405180830381600087803b1580156105bb57600080fd5b505af11580156105cf573d6000803e3d6000fd5b5050505050565b60008054906101000a900473ffffffffffffffffffffffffffffffffffffffff1673ffffffffffffffffffffffffffffffffffffffff16637b1837de82346040518363ffffffff1660e01b8152600401610631929190611eee565b600060405180830381600087803b15801561064b57600080fd5b505af115801561065f573d6000803e3d6000fd5b5050505050565b60008060009054906101000a900473ffffffffffffffffffffffffffffffffffffffff16905090565b670de0b6b3a76400003410156106da576040517f08c379a00000000000000000000000000000000000000000000000000000000081526004016106d190611f63565b60405180910390fd5b60006106e5336112c8565b9050604051806040016040528060011515815260200182815250600560003373ffffffffffffffffffffffffffffffffffffffff1673ffffffffffffffffffffffffffffffffffffffff16815260200190815260200160002060008201518160000160006101000a81548160ff02191690831515021790555060208201518160010190600361077592919061161e565b509050507fd9d9fdcc9f936c76b5aafe54fc3db5dcec0c6583c9ccc4abe91d17575c5145a5336040516107a89190611cbf565b60405180910390a150565b6001151560008054906101000a900473ffffffffffffffffffffffffffffffffffffffff1673ffffffffffffffffffffffffffffffffffffffff16638d7f97af846040518263ffffffff1660e01b81526004016108109190611ffa565b602060405180830381865afa15801561082d573d6000803e3d6000fd5b505050506040513d601f19601f820116820180604052508101906108519190612031565b151514610893576040517f08c379a000000000000000000000000000000000000000000000000000000000815260040161088a906120aa565b60405180910390fd5b6000349050670de0b6b3a764000034111561098357600260009054906101000a900473ffffffffffffffffffffffffffffffffffffffff1673ffffffffffffffffffffffffffffffffffffffff166108fc670de0b6b3a76400009081150290604051600060405180830381858888f19350505050158015610918573d6000803e3d6000fd5b508473ffffffffffffffffffffffffffffffffffffffff166108fc670de0b6b3a76400003461094791906120f9565b9081150290604051600060405180830381858888f19350505050158015610972573d6000803e3d6000fd5b50670de0b6b3a764000090506109ed565b600260009054906101000a900473ffffffffffffffffffffffffffffffffffffffff1673ffffffffffffffffffffffffffffffffffffffff166108fc349081150290604051600060405180830381858888f193505050501580156109eb573d6000803e3d6000fd5b505b60008054906101000a900473ffffffffffffffffffffffffffffffffffffffff1673ffffffffffffffffffffffffffffffffffffffff1663cf90cc4486868686866040518663ffffffff1660e01b8152600401610a4e95949392919061212d565b6020604051808303816000875af1158015610a6d573d6000803e3d6000fd5b505050506040513d601f19601f82011682018060405250810190610a9191906121bd565b505050505050565b60008054906101000a900473ffffffffffffffffffffffffffffffffffffffff1673ffffffffffffffffffffffffffffffffffffffff16633cc0be9c858585856040518563ffffffff1660e01b8152600401610af89493929190612217565b600060405180830381600087803b158015610b1257600080fd5b505af1158015610b26573d6000803e3d6000fd5b5050505050505050565b60008060009054906101000a900473ffffffffffffffffffffffffffffffffffffffff1673ffffffffffffffffffffffffffffffffffffffff1663449d0543836040518263ffffffff1660e01b8152600401610b8c9190611cbf565b602060405180830381865afa158015610ba9573d6000803e3d6000fd5b505050506040513d601f19601f82011682018060405250810190610bcd9190611e44565b9050919050565b610bdc6116b8565b600560003373ffffffffffffffffffffffffffffffffffffffff1673ffffffffffffffffffffffffffffffffffffffff16815260200190815260200160002060000160009054906101000a900460ff16610c6b576040517f08c379a0000000000000000000000000000000000000000000000000000000008152600401610c62906122a3565b60405180910390fd5b600560003373ffffffffffffffffffffffffffffffffffffffff1673ffffffffffffffffffffffffffffffffffffffff168152602001908152602001600020600101600380602002604051908101604052809291908260038015610d0a576020028201916000905b82829054906101000a900460ff1660ff1681526020019060010190602082600001049283019260010382029150808411610cd35790505b5050505050905090565b6000600160009054906101000a900473ffffffffffffffffffffffffffffffffffffffff16905090565b600080816000915091509091565b670de0b6b3a764000081565b8560ff16600560003373ffffffffffffffffffffffffffffffffffffffff1673ffffffffffffffffffffffffffffffffffffffff168152602001908152602001600020600101600060038110610db157610db06122c3565b5b602091828204019190069054906101000a900460ff1660ff161480610e4557508560ff16600560003373ffffffffffffffffffffffffffffffffffffffff1673ffffffffffffffffffffffffffffffffffffffff168152602001908152602001600020600101600160038110610e2a57610e296122c3565b5b602091828204019190069054906101000a900460ff1660ff16145b80610ebf57508560ff16600560003373ffffffffffffffffffffffffffffffffffffffff1673ffffffffffffffffffffffffffffffffffffffff168152602001908152602001600020600101600260038110610ea457610ea36122c3565b5b602091828204019190069054906101000a900460ff1660ff16145b610efe576040517f08c379a0000000000000000000000000000000000000000000000000000000008152600401610ef590612364565b60405180910390fd5b60008686868686604051602001610f19959493929190612453565b6040516020818303038152906040528051906020012090506006600082815260200190815260200160002060000160149054906101000a900460ff16610f94576040517f08c379a0000000000000000000000000000000000000000000000000000000008152600401610f8b90612511565b60405180910390fd5b6006600082815260200190815260200160002060010160008360ff1660ff168152602001908152602001600020339080600181540180825580915050600190039060005260206000200160009091909190916101000a81548173ffffffffffffffffffffffffffffffffffffffff021916908373ffffffffffffffffffffffffffffffffffffffff1602179055507f43c853095c2752648493c88b4baac4d580d2594ffb00c6f1d4242d844514f7838686868686604051611059959493929190612540565b60405180910390a160036006600083815260200190815260200160002060010160008460ff1660ff1681526020019081526020016000208054905010611129577fe23f5229de535c091e3b7bec2665f5d698192d3b31393066e8987b7a05076b6c86868686866040516110d0959493929190612540565b60405180910390a16111288686868080601f016020809104026020016040519081016040528093929190818152602001838380828437600081840152601f19601f8201169050808301925050505050505085856114ae565b5b50505050505050565b60008060009054906101000a900473ffffffffffffffffffffffffffffffffffffffff1673ffffffffffffffffffffffffffffffffffffffff1663cd905dff6040518163ffffffff1660e01b8152600401602060405180830381865afa1580156111a0573d6000803e3d6000fd5b505050506040513d601f19601f820116820180604052508101906111c49190612031565b905090565b60006111d433611552565b9050600081868686866040516020016111f1959493929190612453565b6040516020818303038152906040528051906020012090506000600660008381526020019081526020016000209050338160000160006101000a81548173ffffffffffffffffffffffffffffffffffffffff021916908373ffffffffffffffffffffffffffffffffffffffff16021790555060018160000160146101000a81548160ff0219169083151502179055507f3ed01f2c3fc24c6b329d931e35b03e390d23497d22b3f90e15b600343e93df1183888888886040516112b795949392919061258e565b60405180910390a150505050505050565b6112d06116b8565b6112d86116b8565b6112e183611552565b816000600381106112f5576112f46122c3565b5b602002019060ff16908160ff16815250508060006003811061131a576113196122c3565b5b602002015181600160038110611333576113326122c3565b5b602002019060ff16908160ff16815250505b80600060038110611359576113586122c3565b5b602002015160ff1681600160038110611375576113746122c3565b5b602002015160ff16036113b55761138b83611552565b8160016003811061139f5761139e6122c3565b5b602002019060ff16908160ff1681525050611345565b806001600381106113c9576113c86122c3565b5b6020020151816002600381106113e2576113e16122c3565b5b602002019060ff16908160ff16815250505b80600060038110611408576114076122c3565b5b602002015160ff1681600260038110611424576114236122c3565b5b602002015160ff16148061146d575080600160038110611447576114466122c3565b5b602002015160ff1681600260038110611463576114626122c3565b5b602002015160ff16145b156114a55761147b83611552565b8160026003811061148f5761148e6122c3565b5b602002019060ff16908160ff16815250506113f4565b80915050919050565b601460ff168160ff160361154c5760008054906101000a900473ffffffffffffffffffffffffffffffffffffffff1673ffffffffffffffffffffffffffffffffffffffff1663c8820a708585856040518463ffffffff1660e01b8152600401611519939291906125dc565b600060405180830381600087803b15801561153357600080fd5b505af1158015611547573d6000803e3d6000fd5b505050505b50505050565b600080600a905060008160ff166004600081819054906101000a900460ff168092919061157e9061261a565b91906101000a81548160ff021916908360ff16021790555060ff16436115a491906120f9565b40856040516020016115b7929190612664565b6040516020818303038152906040528051906020012060001c6115da91906126bf565b905060fa600460009054906101000a900460ff1660ff161115611614576000600460006101000a81548160ff021916908360ff1602179055505b8092505050919050565b826003601f016020900481019282156116a75791602002820160005b8382111561167857835183826101000a81548160ff021916908360ff160217905550926020019260010160208160000104928301926001030261163a565b80156116a55782816101000a81549060ff0219169055600101602081600001049283019260010302611678565b505b5090506116b491906116da565b5090565b6040518060600160405280600390602082028036833780820191505090505090565b5b808211156116f35760008160009055506001016116db565b5090565b6000604051905090565b600080fd5b600080fd5b600073ffffffffffffffffffffffffffffffffffffffff82169050919050565b60006117368261170b565b9050919050565b6117468161172b565b811461175157600080fd5b50565b6000813590506117638161173d565b92915050565b60006020828403121561177f5761177e611701565b5b600061178d84828501611754565b91505092915050565b60008115159050919050565b6117ab81611796565b81146117b657600080fd5b50565b6000813590506117c8816117a2565b92915050565b6000602082840312156117e4576117e3611701565b5b60006117f2848285016117b9565b91505092915050565b60006118068261170b565b9050919050565b611816816117fb565b811461182157600080fd5b50565b6000813590506118338161180d565b92915050565b60006020828403121561184f5761184e611701565b5b600061185d84828501611824565b91505092915050565b6000819050919050565b600061188b6118866118818461170b565b611866565b61170b565b9050919050565b600061189d82611870565b9050919050565b60006118af82611892565b9050919050565b6118bf816118a4565b82525050565b60006020820190506118da60008301846118b6565b92915050565b600080fd5b600080fd5b6000601f19601f8301169050919050565b7f4e487b7100000000000000000000000000000000000000000000000000000000600052604160045260246000fd5b611933826118ea565b810181811067ffffffffffffffff82111715611952576119516118fb565b5b80604052505050565b60006119656116f7565b9050611971828261192a565b919050565b600067ffffffffffffffff821115611991576119906118fb565b5b61199a826118ea565b9050602081019050919050565b82818337600083830152505050565b60006119c96119c484611976565b61195b565b9050828152602081018484840111156119e5576119e46118e5565b5b6119f08482856119a7565b509392505050565b600082601f830112611a0d57611a0c6118e0565b5b8135611a1d8482602086016119b6565b91505092915050565b6000819050919050565b611a3981611a26565b8114611a4457600080fd5b50565b600081359050611a5681611a30565b92915050565b60008060008060808587031215611a7657611a75611701565b5b6000611a8487828801611824565b9450506020611a9587828801611824565b935050604085013567ffffffffffffffff811115611ab657611ab5611706565b5b611ac2878288016119f8565b9250506060611ad387828801611a47565b91505092959194509250565b600080fd5b600080fd5b60008083601f840112611aff57611afe6118e0565b5b8235905067ffffffffffffffff811115611b1c57611b1b611adf565b5b602083019150836001820283011115611b3857611b37611ae4565b5b9250929050565b60008060008060608587031215611b5957611b58611701565b5b6000611b6787828801611824565b945050602085013567ffffffffffffffff811115611b8857611b87611706565b5b611b9487828801611ae9565b93509350506040611ba787828801611a47565b91505092959194509250565b611bbc81611a26565b82525050565b6000602082019050611bd76000830184611bb3565b92915050565b600060039050919050565b600081905092915050565b6000819050919050565b600060ff82169050919050565b611c1381611bfd565b82525050565b6000611c258383611c0a565b60208301905092915050565b6000602082019050919050565b611c4781611bdd565b611c518184611be8565b9250611c5c82611bf3565b8060005b83811015611c8d578151611c748782611c19565b9650611c7f83611c31565b925050600181019050611c60565b505050505050565b6000606082019050611caa6000830184611c3e565b92915050565b611cb9816117fb565b82525050565b6000602082019050611cd46000830184611cb0565b92915050565b611ce381611796565b82525050565b6000604082019050611cfe6000830185611cda565b611d0b6020830184611bb3565b9392505050565b611d1b81611bfd565b8114611d2657600080fd5b50565b600081359050611d3881611d12565b92915050565b60008060008060008060a08789031215611d5b57611d5a611701565b5b6000611d6989828a01611d29565b9650506020611d7a89828a01611824565b955050604087013567ffffffffffffffff811115611d9b57611d9a611706565b5b611da789828a01611ae9565b94509450506060611dba89828a01611a47565b9250506080611dcb89828a01611d29565b9150509295509295509295565b6000602082019050611ded6000830184611cda565b92915050565b6000611dfe82611892565b9050919050565b611e0e81611df3565b82525050565b6000602082019050611e296000830184611e05565b92915050565b600081519050611e3e81611a30565b92915050565b600060208284031215611e5a57611e59611701565b5b6000611e6884828501611e2f565b91505092915050565b600082825260208201905092915050565b7f43616c6c6572206973206e6f7420636f6e7472616374206f776e657200000000600082015250565b6000611eb8601c83611e71565b9150611ec382611e82565b602082019050919050565b60006020820190508181036000830152611ee781611eab565b9050919050565b6000604082019050611f036000830185611cb0565b611f106020830184611bb3565b9392505050565b7f526567697374726174696f6e2066656520697320726571756972656400000000600082015250565b6000611f4d601c83611e71565b9150611f5882611f17565b602082019050919050565b60006020820190508181036000830152611f7c81611f40565b9050919050565b600081519050919050565b60005b83811015611fac578082015181840152602081019050611f91565b83811115611fbb576000848401525b50505050565b6000611fcc82611f83565b611fd68185611e71565b9350611fe6818560208601611f8e565b611fef816118ea565b840191505092915050565b600060208201905081810360008301526120148184611fc1565b905092915050565b60008151905061202b816117a2565b92915050565b60006020828403121561204757612046611701565b5b60006120558482850161201c565b91505092915050565b7f466c69676874206d757374206578697374000000000000000000000000000000600082015250565b6000612094601183611e71565b915061209f8261205e565b602082019050919050565b600060208201905081810360008301526120c381612087565b9050919050565b7f4e487b7100000000000000000000000000000000000000000000000000000000600052601160045260246000fd5b600061210482611a26565b915061210f83611a26565b925082821015612122576121216120ca565b5b828203905092915050565b600060a0820190506121426000830188611cb0565b61214f6020830187611cb0565b81810360408301526121618186611fc1565b90506121706060830185611bb3565b61217d6080830184611bb3565b9695505050505050565b6000819050919050565b61219a81612187565b81146121a557600080fd5b50565b6000815190506121b781612191565b92915050565b6000602082840312156121d3576121d2611701565b5b60006121e1848285016121a8565b91505092915050565b60006121f68385611e71565b93506122038385846119a7565b61220c836118ea565b840190509392505050565b600060608201905061222c6000830187611cb0565b818103602083015261223f8185876121ea565b905061224e6040830184611bb3565b95945050505050565b7f4e6f74207265676973746572656420617320616e206f7261636c650000000000600082015250565b600061228d601b83611e71565b915061229882612257565b602082019050919050565b600060208201905081810360008301526122bc81612280565b9050919050565b7f4e487b7100000000000000000000000000000000000000000000000000000000600052603260045260246000fd5b7f496e64657820646f6573206e6f74206d61746368206f7261636c65207265717560008201527f6573740000000000000000000000000000000000000000000000000000000000602082015250565b600061234e602383611e71565b9150612359826122f2565b604082019050919050565b6000602082019050818103600083015261237d81612341565b9050919050565b60008160f81b9050919050565b600061239c82612384565b9050919050565b6123b46123af82611bfd565b612391565b82525050565b60008160601b9050919050565b60006123d2826123ba565b9050919050565b60006123e4826123c7565b9050919050565b6123fc6123f7826117fb565b6123d9565b82525050565b600081905092915050565b60006124198385612402565b93506124268385846119a7565b82840190509392505050565b6000819050919050565b61244d61244882611a26565b612432565b82525050565b600061245f82886123a3565b60018201915061246f82876123eb565b60148201915061248082858761240d565b915061248c828461243c565b6020820191508190509695505050505050565b7f466c69676874206f722074696d657374616d7020646f206e6f74206d6174636860008201527f206f7261636c6520726571756573740000000000000000000000000000000000602082015250565b60006124fb602f83611e71565b91506125068261249f565b604082019050919050565b6000602082019050818103600083015261252a816124ee565b9050919050565b61253a81611bfd565b82525050565b60006080820190506125556000830188611cb0565b81810360208301526125688186886121ea565b90506125776040830185611bb3565b6125846060830184612531565b9695505050505050565b60006080820190506125a36000830188612531565b6125b06020830187611cb0565b81810360408301526125c38185876121ea565b90506125d26060830184611bb3565b9695505050505050565b60006060820190506125f16000830186611cb0565b81810360208301526126038185611fc1565b90506126126040830184611bb3565b949350505050565b600061262582611bfd565b915060ff8203612638576126376120ca565b5b600182019050919050565b6000819050919050565b61265e61265982612187565b612643565b82525050565b6000612670828561264d565b60208201915061268082846123eb565b6014820191508190509392505050565b7f4e487b7100000000000000000000000000000000000000000000000000000000600052601260045260246000fd5b60006126ca82611a26565b91506126d583611a26565b9250826126e5576126e4612690565b5b82820690509291505056fea264697066735822122086b5d0049b075681b2db3faeca08d5fa2bfc312404e29658e29e2634833f7d9064736f6c634300080f0033",
  "immutableReferences": {},
  "source": "pragma solidity ^0.8.15;\n\n// It's important to avoid vulnerabilities due to numeric overflow bugs\n// OpenZeppelin's SafeMath library, when used correctly, protects agains such bugs\n// More info: https://www.nccgroup.trust/us/about-us/newsroom-and-events/blog/2018/november/smart-contract-insecurity-bad-arithmetic/\n\nimport \"@openzeppelin/contracts/utils/math/SafeMath.sol\";\n\n/************************************************** */\n/* FlightSurety Smart Contract                      */\n/************************************************** */\ncontract FlightSuretyApp {\n    using SafeMath for uint256; // Allow SafeMath functions to be called for all uint256 types (similar to \"prototype\" in Javascript)\n\n    FlightSuretyDataAbstract flightSuretyData;\n    address flightSuretyDataAddress;\n\n    /********************************************************************************************/\n    /*                                       DATA VARIABLES                                     */\n    /********************************************************************************************/\n\n    // Flight status codees\n    uint8 private constant STATUS_CODE_UNKNOWN = 0;\n    uint8 private constant STATUS_CODE_ON_TIME = 10;\n    uint8 private constant STATUS_CODE_LATE_AIRLINE = 20;\n    uint8 private constant STATUS_CODE_LATE_WEATHER = 30;\n    uint8 private constant STATUS_CODE_LATE_TECHNICAL = 40;\n    uint8 private constant STATUS_CODE_LATE_OTHER = 50;\n\n    address payable private contractOwner; // Account used to deploy contract\n\n    struct Flight {\n        bool isRegistered;\n        uint8 statusCode;\n        uint256 updatedTimestamp;\n        address airline;\n    }\n    mapping(bytes32 => Flight) private flights;\n\n    /********************************************************************************************/\n    /*                                       EVENTS                                             */\n    /********************************************************************************************/\n\n    event Refund(address payable passenger, uint refund);\n\n    /********************************************************************************************/\n    /*                                       FUNCTION MODIFIERS                                 */\n    /********************************************************************************************/\n\n    // Modifiers help avoid duplication of code. They are typically used to validate something\n    // before a function is allowed to be executed.\n\n    /**\n     * @dev Modifier that requires the \"operational\" boolean variable to be \"true\"\n     *      This is used on all state changing functions to pause the contract in\n     *      the event there is an issue that needs to be fixed\n     */\n    modifier requireIsOperational() {\n        // Modify to call data contract's status\n        require(true, \"Contract is currently not operational\");\n        _; // All modifiers require an \"_\" which indicates where the function body will be added\n    }\n\n    /**\n     * @dev Modifier that requires the \"ContractOwner\" account to be the function caller\n     */\n    modifier requireContractOwner() {\n        require(msg.sender == contractOwner, \"Caller is not contract owner\");\n        _;\n    }\n\n    /********************************************************************************************/\n    /*                                       CONSTRUCTOR                                        */\n    /********************************************************************************************/\n\n    /**\n     * @dev Contract constructor\n     *\n     */\n    constructor(address _dataContract, address payable _owner) {\n        flightSuretyDataAddress = _dataContract;\n        flightSuretyData = FlightSuretyDataAbstract(_dataContract);\n        contractOwner = _owner; //msg.sender;\n    }\n\n    /********************************************************************************************/\n    /*                                       UTILITY FUNCTIONS                                  */\n    /********************************************************************************************/\n\n    function isOperational() public returns (bool) {\n        return flightSuretyData.isOperational(); // Modify to call data contract's status\n    }\n\n    function setOperatingStatus(bool mode) external requireContractOwner {\n        flightSuretyData.setOperatingStatus(mode);\n    }\n\n    function getDataContractAddress() public view returns (address) {\n        return flightSuretyDataAddress;\n    }\n\n    function getDataContract() public view returns (FlightSuretyDataAbstract) {\n        return flightSuretyData;\n    }\n\n    /********************************************************************************************/\n    /*                                     SMART CONTRACT FUNCTIONS                             */\n    /********************************************************************************************/\n\n    /**\n     * @dev Add an airline to the registration queue\n     *\n     */\n    function registerAirline()\n        external\n        pure\n        returns (bool success, uint256 votes)\n    {\n        return (success, 0);\n    }\n\n    /**\n     * @dev Register a future flight for insuring.\n     *\n     */\n    function registerFlight(\n        address airline,\n        string calldata flightId,\n        uint256 timestamp\n    ) public {\n        flightSuretyData.registerFlight(airline, flightId, timestamp);\n    }\n\n    /**\n     * @dev Called after oracle has updated flight status\n     *\n     */\n    function processFlightStatus(\n        address airline,\n        string memory flightId,\n        uint256 timestamp,\n        uint8 statusCode\n    ) internal {\n        if (statusCode == STATUS_CODE_LATE_AIRLINE) {\n            flightSuretyData.creditInsurees(airline, flightId, timestamp);\n        }\n    }\n\n    function getBalanceDue(address passenger) public view returns (uint256) {\n        return flightSuretyData.getBalanceDue(passenger);\n    }\n\n    function pay(address payable passenger) public payable {\n        require(msg.sender == contractOwner);\n        uint256 balanceDue = flightSuretyData.getBalanceDue(passenger);\n        flightSuretyData.pay{value: balanceDue}(passenger);\n    }\n\n    // Generate a request for oracles to fetch flight information\n    function fetchFlightStatus(\n        address airline,\n        string calldata flight,\n        uint256 timestamp\n    ) external {\n        uint8 index = getRandomIndex(msg.sender);\n\n        // Generate a unique key for storing the request\n        bytes32 key = keccak256(\n            abi.encodePacked(index, airline, flight, timestamp)\n        );\n\n        ResponseInfo storage response = oracleResponses[key];\n        response.requester = msg.sender;\n        response.isOpen = true;\n\n        emit OracleRequest(index, airline, flight, timestamp);\n    }\n\n    function buy(\n        address passenger,\n        address airline,\n        string memory flightId,\n        uint256 timestamp\n    ) external payable {\n        require(\n            flightSuretyData.flightExists(flightId) == true,\n            \"Flight must exist\"\n        );\n        uint256 insuranceValue = msg.value;\n        if (msg.value > 1 ether) {\n            contractOwner.transfer(1 ether);\n            payable(passenger).transfer(msg.value - 1 ether);\n            insuranceValue = 1 ether;\n        } else {\n            contractOwner.transfer(msg.value);\n        }\n        flightSuretyData.buy(\n            passenger,\n            airline,\n            flightId,\n            timestamp,\n            insuranceValue\n        );\n    }\n\n    function fund(address airlineAddress) public payable {\n        flightSuretyData.fund(airlineAddress, msg.value);\n    }\n\n    // region ORACLE MANAGEMENT\n\n    // Incremented to add pseudo-randomness at various points\n    uint8 private nonce = 0;\n\n    // Fee to be paid when registering oracle\n    uint256 public constant REGISTRATION_FEE = 1 ether;\n\n    // Number of oracles that must respond for valid status\n    uint256 private constant MIN_RESPONSES = 3;\n\n    struct Oracle {\n        bool isRegistered;\n        uint8[3] indexes;\n    }\n\n    // Track all registered oracles\n    mapping(address => Oracle) private oracles;\n\n    // Model for responses from oracles\n    struct ResponseInfo {\n        address requester; // Account that requested status\n        bool isOpen; // If open, oracle responses are accepted\n        mapping(uint8 => address[]) responses; // Mapping key is the status code reported\n        // This lets us group responses and identify\n        // the response that majority of the oracles\n    }\n\n    // Track all oracle responses\n    // Key = hash(index, flight, timestamp)\n    mapping(bytes32 => ResponseInfo) private oracleResponses;\n\n    // Event fired each time an oracle submits a response\n    event FlightStatusInfo(\n        address airline,\n        string flight,\n        uint256 timestamp,\n        uint8 status\n    );\n\n    event OracleReport(\n        address airline,\n        string flight,\n        uint256 timestamp,\n        uint8 status\n    );\n\n    event OracleRegistered(address oracle);\n\n    // Event fired when flight status request is submitted\n    // Oracles track this and if they have a matching index\n    // they fetch data and submit a response\n    event OracleRequest(\n        uint8 index,\n        address airline,\n        string flight,\n        uint256 timestamp\n    );\n\n    // Register an oracle with the contract\n    function registerOracle() external payable {\n        // Require registration fee\n        require(msg.value >= REGISTRATION_FEE, \"Registration fee is required\");\n\n        uint8[3] memory indexes = generateIndexes(msg.sender);\n\n        oracles[msg.sender] = Oracle({isRegistered: true, indexes: indexes});\n\n        emit OracleRegistered(msg.sender);\n    }\n\n    function getMyIndexes() external view returns (uint8[3] memory) {\n        require(\n            oracles[msg.sender].isRegistered,\n            \"Not registered as an oracle\"\n        );\n\n        return oracles[msg.sender].indexes;\n    }\n\n    // Called by oracle when a response is available to an outstanding request\n    // For the response to be accepted, there must be a pending request that is open\n    // and matches one of the three Indexes randomly assigned to the oracle at the\n    // time of registration (i.e. uninvited oracles are not welcome)\n    function submitOracleResponse(\n        uint8 index,\n        address airline,\n        string calldata flight,\n        uint256 timestamp,\n        uint8 statusCode\n    ) external {\n        require(\n            (oracles[msg.sender].indexes[0] == index) ||\n                (oracles[msg.sender].indexes[1] == index) ||\n                (oracles[msg.sender].indexes[2] == index),\n            \"Index does not match oracle request\"\n        );\n\n        bytes32 key = keccak256(\n            abi.encodePacked(index, airline, flight, timestamp)\n        );\n        require(\n            oracleResponses[key].isOpen,\n            \"Flight or timestamp do not match oracle request\"\n        );\n\n        oracleResponses[key].responses[statusCode].push(msg.sender);\n\n        // Information isn't considered verified until at least MIN_RESPONSES\n        // oracles respond with the *** same *** information\n        emit OracleReport(airline, flight, timestamp, statusCode);\n        if (\n            oracleResponses[key].responses[statusCode].length >= MIN_RESPONSES\n        ) {\n            emit FlightStatusInfo(airline, flight, timestamp, statusCode);\n\n            // Handle flight status as appropriate\n            processFlightStatus(airline, flight, timestamp, statusCode);\n        }\n    }\n\n    function getFlightKey(\n        address airline,\n        string calldata flight,\n        uint256 timestamp\n    ) internal pure returns (bytes32) {\n        return keccak256(abi.encodePacked(airline, flight, timestamp));\n    }\n\n    // Returns array of three non-duplicating integers from 0-9\n    function generateIndexes(address account)\n        internal\n        returns (uint8[3] memory)\n    {\n        uint8[3] memory indexes;\n        indexes[0] = getRandomIndex(account);\n\n        indexes[1] = indexes[0];\n        while (indexes[1] == indexes[0]) {\n            indexes[1] = getRandomIndex(account);\n        }\n\n        indexes[2] = indexes[1];\n        while ((indexes[2] == indexes[0]) || (indexes[2] == indexes[1])) {\n            indexes[2] = getRandomIndex(account);\n        }\n\n        return indexes;\n    }\n\n    // Returns array of three non-duplicating integers from 0-9\n    function getRandomIndex(address account) internal returns (uint8) {\n        uint8 maxValue = 10;\n\n        // Pseudo random number...the incrementing nonce adds variation\n        uint8 random = uint8(\n            uint256(\n                keccak256(\n                    abi.encodePacked(blockhash(block.number - nonce++), account)\n                )\n            ) % maxValue\n        );\n\n        if (nonce > 250) {\n            nonce = 0; // Can only fetch blockhashes for last 256 blocks so we adapt\n        }\n\n        return random;\n    }\n\n    // endregion\n}\n\ncontract FlightSuretyDataAbstract {\n    // function setContractOwner(address owner) public {}\n    function isOperational() public view returns (bool) {}\n\n    function setOperatingStatus(bool mode) external {}\n\n    function registerAirline() external {}\n\n    function registerFlight(\n        address airline,\n        string calldata flightId,\n        uint256 timestamp\n    ) external {}\n\n    function flightExists(string calldata flightId)\n        public\n        view\n        returns (bool)\n    {}\n\n    function buy(\n        address passenger,\n        address airline,\n        string memory flightId,\n        uint256 timestamp,\n        uint256 insuranceValue\n    ) external returns (bytes32) {}\n\n    function creditInsurees(\n        address airline,\n        string memory flightId,\n        uint256 timestamp\n    ) external {}\n\n    function getBalanceDue(address passenger) public view returns (uint256) {}\n\n    function pay(address passenger) public payable {}\n\n    function fund(address airlineAddress, uint funding) external payable {}\n}\n",
  "sourcePath": "/workspaces/flight_surety_dapp/app/contracts/FlightSuretyApp.sol",
  "compiler": {
    "name": "solc",
    "version": "0.8.15+commit.e14f2714.Emscripten.clang"
  },
  "schemaVersion": "3.4.8",
  "updatedAt": "2022-08-05T02:00:10.135Z",
  "networkType": "ethereum",
  "devdoc": {
    "kind": "dev",
    "methods": {
      "constructor": {
        "details": "Contract constructor"
      },
      "registerAirline()": {
        "details": "Add an airline to the registration queue"
      },
      "registerFlight(address,string,uint256)": {
        "details": "Register a future flight for insuring."
      }
    },
    "version": 1
  },
  "userdoc": {
    "kind": "user",
    "methods": {},
    "version": 1
  }
}