{
  "contractName": "FlightSuretyData",
  "abi": [
    {
      "inputs": [
        {
          "internalType": "address",
          "name": "firstAirlineAddress",
          "type": "address"
        },
        {
          "internalType": "address",
          "name": "owner",
          "type": "address"
        }
      ],
      "stateMutability": "nonpayable",
      "type": "constructor"
    },
    {
      "anonymous": false,
      "inputs": [
        {
          "indexed": false,
          "internalType": "address",
          "name": "airline",
          "type": "address"
        }
      ],
      "name": "AirlineFunded",
      "type": "event"
    },
    {
      "anonymous": false,
      "inputs": [
        {
          "indexed": false,
          "internalType": "address",
          "name": "airline",
          "type": "address"
        }
      ],
      "name": "AirlineRegistered",
      "type": "event"
    },
    {
      "anonymous": false,
      "inputs": [
        {
          "indexed": false,
          "internalType": "string",
          "name": "flightKey",
          "type": "string"
        }
      ],
      "name": "FlightRegistered",
      "type": "event"
    },
    {
      "anonymous": false,
      "inputs": [
        {
          "indexed": false,
          "internalType": "bytes32",
          "name": "flightKey",
          "type": "bytes32"
        },
        {
          "indexed": false,
          "internalType": "address",
          "name": "passenger",
          "type": "address"
        },
        {
          "indexed": false,
          "internalType": "uint256",
          "name": "amount",
          "type": "uint256"
        }
      ],
      "name": "InsureeCredited",
      "type": "event"
    },
    {
      "anonymous": false,
      "inputs": [
        {
          "indexed": false,
          "internalType": "bytes32",
          "name": "flightKey",
          "type": "bytes32"
        },
        {
          "indexed": false,
          "internalType": "address",
          "name": "passenger",
          "type": "address"
        },
        {
          "indexed": false,
          "internalType": "uint256",
          "name": "insuranceValue",
          "type": "uint256"
        }
      ],
      "name": "PassengerInsured",
      "type": "event"
    },
    {
      "anonymous": false,
      "inputs": [
        {
          "indexed": false,
          "internalType": "address",
          "name": "payoutAddress",
          "type": "address"
        },
        {
          "indexed": false,
          "internalType": "uint256",
          "name": "amount",
          "type": "uint256"
        }
      ],
      "name": "PayInsuree",
      "type": "event"
    },
    {
      "inputs": [],
      "name": "isOperational",
      "outputs": [
        {
          "internalType": "bool",
          "name": "",
          "type": "bool"
        }
      ],
      "stateMutability": "view",
      "type": "function",
      "constant": true
    },
    {
      "inputs": [
        {
          "internalType": "bool",
          "name": "mode",
          "type": "bool"
        }
      ],
      "name": "setOperatingStatus",
      "outputs": [],
      "stateMutability": "nonpayable",
      "type": "function"
    },
    {
      "inputs": [
        {
          "internalType": "address",
          "name": "owner",
          "type": "address"
        }
      ],
      "name": "setContractOwner",
      "outputs": [],
      "stateMutability": "nonpayable",
      "type": "function"
    },
    {
      "inputs": [],
      "name": "getContractOwner",
      "outputs": [
        {
          "internalType": "address",
          "name": "",
          "type": "address"
        }
      ],
      "stateMutability": "view",
      "type": "function",
      "constant": true
    },
    {
      "inputs": [
        {
          "internalType": "address[]",
          "name": "approvingAirlines",
          "type": "address[]"
        },
        {
          "internalType": "address",
          "name": "newAirline",
          "type": "address"
        }
      ],
      "name": "registerAirline",
      "outputs": [],
      "stateMutability": "nonpayable",
      "type": "function"
    },
    {
      "inputs": [
        {
          "internalType": "address",
          "name": "airlineAddress",
          "type": "address"
        }
      ],
      "name": "getAirline",
      "outputs": [
        {
          "components": [
            {
              "internalType": "address",
              "name": "airlineAddress",
              "type": "address"
            },
            {
              "internalType": "uint256",
              "name": "funding",
              "type": "uint256"
            }
          ],
          "internalType": "struct FlightSuretyData.Airline",
          "name": "",
          "type": "tuple"
        }
      ],
      "stateMutability": "view",
      "type": "function",
      "constant": true
    },
    {
      "inputs": [
        {
          "internalType": "address",
          "name": "airlineAddress",
          "type": "address"
        }
      ],
      "name": "getValidAirline",
      "outputs": [
        {
          "components": [
            {
              "internalType": "address",
              "name": "airlineAddress",
              "type": "address"
            },
            {
              "internalType": "uint256",
              "name": "funding",
              "type": "uint256"
            }
          ],
          "internalType": "struct FlightSuretyData.Airline",
          "name": "",
          "type": "tuple"
        }
      ],
      "stateMutability": "view",
      "type": "function",
      "constant": true
    },
    {
      "inputs": [
        {
          "internalType": "address",
          "name": "passenger",
          "type": "address"
        },
        {
          "internalType": "address",
          "name": "airline",
          "type": "address"
        },
        {
          "internalType": "string",
          "name": "flightId",
          "type": "string"
        },
        {
          "internalType": "uint256",
          "name": "timestamp",
          "type": "uint256"
        },
        {
          "internalType": "uint256",
          "name": "insuranceValue",
          "type": "uint256"
        }
      ],
      "name": "buy",
      "outputs": [
        {
          "internalType": "bytes32",
          "name": "",
          "type": "bytes32"
        }
      ],
      "stateMutability": "nonpayable",
      "type": "function"
    },
    {
      "inputs": [
        {
          "internalType": "address",
          "name": "airline",
          "type": "address"
        },
        {
          "internalType": "string",
          "name": "flightId",
          "type": "string"
        },
        {
          "internalType": "uint256",
          "name": "timestamp",
          "type": "uint256"
        }
      ],
      "name": "getFlightPassengers",
      "outputs": [
        {
          "internalType": "address[]",
          "name": "",
          "type": "address[]"
        }
      ],
      "stateMutability": "view",
      "type": "function",
      "constant": true
    },
    {
      "inputs": [
        {
          "internalType": "address",
          "name": "passenger",
          "type": "address"
        }
      ],
      "name": "getPassenger",
      "outputs": [
        {
          "components": [
            {
              "internalType": "address",
              "name": "passengerAddress",
              "type": "address"
            },
            {
              "internalType": "string",
              "name": "flightId",
              "type": "string"
            },
            {
              "internalType": "uint256",
              "name": "insuranceValue",
              "type": "uint256"
            },
            {
              "internalType": "uint256",
              "name": "payoutCredit",
              "type": "uint256"
            }
          ],
          "internalType": "struct FlightSuretyData.Passenger",
          "name": "",
          "type": "tuple"
        }
      ],
      "stateMutability": "view",
      "type": "function",
      "constant": true
    },
    {
      "inputs": [
        {
          "internalType": "address",
          "name": "_passenger",
          "type": "address"
        }
      ],
      "name": "getInsuranceValueForPassenger",
      "outputs": [
        {
          "internalType": "uint256",
          "name": "",
          "type": "uint256"
        }
      ],
      "stateMutability": "view",
      "type": "function",
      "constant": true
    },
    {
      "inputs": [
        {
          "internalType": "address",
          "name": "_passenger",
          "type": "address"
        }
      ],
      "name": "getPayoutCreditForPassenger",
      "outputs": [
        {
          "internalType": "uint256",
          "name": "",
          "type": "uint256"
        }
      ],
      "stateMutability": "view",
      "type": "function",
      "constant": true
    },
    {
      "inputs": [
        {
          "internalType": "address",
          "name": "airline",
          "type": "address"
        },
        {
          "internalType": "string",
          "name": "flightId",
          "type": "string"
        },
        {
          "internalType": "uint256",
          "name": "timestamp",
          "type": "uint256"
        }
      ],
      "name": "creditInsurees",
      "outputs": [],
      "stateMutability": "nonpayable",
      "type": "function"
    },
    {
      "inputs": [
        {
          "internalType": "address",
          "name": "_passenger",
          "type": "address"
        }
      ],
      "name": "getBalanceDue",
      "outputs": [
        {
          "internalType": "uint256",
          "name": "",
          "type": "uint256"
        }
      ],
      "stateMutability": "view",
      "type": "function",
      "constant": true
    },
    {
      "inputs": [
        {
          "internalType": "address payable",
          "name": "_passenger",
          "type": "address"
        }
      ],
      "name": "pay",
      "outputs": [],
      "stateMutability": "payable",
      "type": "function",
      "payable": true
    },
    {
      "inputs": [
        {
          "internalType": "address",
          "name": "airlineAddress",
          "type": "address"
        },
        {
          "internalType": "uint256",
          "name": "funding",
          "type": "uint256"
        }
      ],
      "name": "fund",
      "outputs": [],
      "stateMutability": "payable",
      "type": "function",
      "payable": true
    },
    {
      "inputs": [
        {
          "internalType": "address",
          "name": "airline",
          "type": "address"
        },
        {
          "internalType": "string",
          "name": "flightId",
          "type": "string"
        },
        {
          "internalType": "uint256",
          "name": "timestamp",
          "type": "uint256"
        }
      ],
      "name": "registerFlight",
      "outputs": [],
      "stateMutability": "nonpayable",
      "type": "function"
    },
    {
      "inputs": [
        {
          "internalType": "string",
          "name": "flightId",
          "type": "string"
        }
      ],
      "name": "flightExists",
      "outputs": [
        {
          "internalType": "bool",
          "name": "",
          "type": "bool"
        }
      ],
      "stateMutability": "view",
      "type": "function",
      "constant": true
    },
    {
      "inputs": [
        {
          "internalType": "string",
          "name": "flightId",
          "type": "string"
        }
      ],
      "name": "getFlight",
      "outputs": [
        {
          "components": [
            {
              "internalType": "address",
              "name": "airline",
              "type": "address"
            },
            {
              "internalType": "string",
              "name": "flightId",
              "type": "string"
            },
            {
              "internalType": "uint256",
              "name": "timestamp",
              "type": "uint256"
            },
            {
              "internalType": "uint256",
              "name": "passengersSize",
              "type": "uint256"
            }
          ],
          "internalType": "struct FlightSuretyData.Flight",
          "name": "",
          "type": "tuple"
        }
      ],
      "stateMutability": "view",
      "type": "function",
      "constant": true
    }
  ],
  "bytecode": "0x60806040526001600060146101000a81548160ff02191690831515021790555060006001556000600760006101000a81548160ff0219169083151502179055503480156200004c57600080fd5b506040516200329838038062003298833981810160405281019062000072919062000217565b806000806101000a81548173ffffffffffffffffffffffffffffffffffffffff021916908373ffffffffffffffffffffffffffffffffffffffff16021790555060008060146101000a81548160ff02191690831515021790555060405180604001604052808373ffffffffffffffffffffffffffffffffffffffff1681526020016000815250600260008473ffffffffffffffffffffffffffffffffffffffff1673ffffffffffffffffffffffffffffffffffffffff16815260200190815260200160002060008201518160000160006101000a81548173ffffffffffffffffffffffffffffffffffffffff021916908373ffffffffffffffffffffffffffffffffffffffff1602179055506020820151816001015590505060016000815480929190620001a09062000297565b91905055505050620002e4565b600080fd5b600073ffffffffffffffffffffffffffffffffffffffff82169050919050565b6000620001df82620001b2565b9050919050565b620001f181620001d2565b8114620001fd57600080fd5b50565b6000815190506200021181620001e6565b92915050565b60008060408385031215620002315762000230620001ad565b5b6000620002418582860162000200565b9250506020620002548582860162000200565b9150509250929050565b7f4e487b7100000000000000000000000000000000000000000000000000000000600052601160045260246000fd5b6000819050919050565b6000620002a4826200028d565b91507fffffffffffffffffffffffffffffffffffffffffffffffffffffffffffffffff8203620002d957620002d86200025e565b5b600182019050919050565b612fa480620002f46000396000f3fe6080604052600436106101145760003560e01c80638d7f97af116100a0578063cf90cc4411610064578063cf90cc44146103a5578063e1de0489146103e2578063e42a38371461041f578063e8413cf01461045c578063f7bf7f571461049957610114565b80638d7f97af146102ae578063a34d42b8146102eb578063c8820a7014610314578063cd905dff1461033d578063ce0595961461036857610114565b8063442890d5116100e7578063442890d5146101b0578063449d0543146101db57806366971c1f146102185780637b1837de14610255578063894c93251461027157610114565b80630c11dedd14610119578063110466ed14610135578063261a37041461015e5780633cc0be9c14610187575b600080fd5b610133600480360381019061012e9190611dea565b6104d6565b005b34801561014157600080fd5b5061015c60048036038101906101579190611e4f565b6106c4565b005b34801561016a57600080fd5b5061018560048036038101906101809190611f1f565b6106e1565b005b34801561019357600080fd5b506101ae60048036038101906101a9919061200b565b6109c7565b005b3480156101bc57600080fd5b506101c5610ccd565b6040516101d2919061208e565b60405180910390f35b3480156101e757600080fd5b5061020260048036038101906101fd91906120a9565b610cf6565b60405161020f91906120e5565b60405180910390f35b34801561022457600080fd5b5061023f600480360381019061023a91906120a9565b610dba565b60405161024c91906120e5565b60405180910390f35b61026f600480360381019061026a9190612100565b610e0b565b005b34801561027d57600080fd5b50610298600480360381019061029391906120a9565b610f6c565b6040516102a5919061218d565b60405180910390f35b3480156102ba57600080fd5b506102d560048036038101906102d091906121a8565b61118d565b6040516102e29190612204565b60405180910390f35b3480156102f757600080fd5b50610312600480360381019061030d91906120a9565b61120a565b005b34801561032057600080fd5b5061033b60048036038101906103369190612360565b61124d565b005b34801561034957600080fd5b50610352611408565b60405161035f9190612204565b60405180910390f35b34801561037457600080fd5b5061038f600480360381019061038a91906121a8565b61141e565b60405161039c91906124ba565b60405180910390f35b3480156103b157600080fd5b506103cc60048036038101906103c791906124dc565b611555565b6040516103d9919061258c565b60405180910390f35b3480156103ee57600080fd5b50610409600480360381019061040491906120a9565b61180d565b604051610416919061218d565b60405180910390f35b34801561042b57600080fd5b50610446600480360381019061044191906120a9565b61199f565b60405161045391906120e5565b60405180910390f35b34801561046857600080fd5b50610483600480360381019061047e91906120a9565b6119f0565b604051610490919061260a565b60405180910390f35b3480156104a557600080fd5b506104c060048036038101906104bb9190612360565b611b94565b6040516104cd91906126db565b60405180910390f35b600760009054906101000a900460ff1615610526576040517f08c379a000000000000000000000000000000000000000000000000000000000815260040161051d9061275a565b60405180910390fd5b6001600760006101000a81548160ff0219169083151502179055506000600560008373ffffffffffffffffffffffffffffffffffffffff1673ffffffffffffffffffffffffffffffffffffffff16815260200190815260200160002090508173ffffffffffffffffffffffffffffffffffffffff168160000160009054906101000a900473ffffffffffffffffffffffffffffffffffffffff1673ffffffffffffffffffffffffffffffffffffffff161480156105e7575060008160030154115b156106a557600081600301549050600082600301819055508273ffffffffffffffffffffffffffffffffffffffff166108fc829081150290604051600060405180830381858888f19350505050158015610645573d6000803e3d6000fd5b507f57fc3f4c3e9689e8edd2e103e164f05b9a2ffbbecaf537c96857b7ffc7fd27818260000160009054906101000a900473ffffffffffffffffffffffffffffffffffffffff168260405161069b92919061277a565b60405180910390a1505b6000600760006101000a81548160ff0219169083151502179055505050565b80600060146101000a81548160ff02191690831515021790555050565b828260005b828290508110156108025760006002600085858581811061070a576107096127a3565b5b905060200201602081019061071f91906120a9565b73ffffffffffffffffffffffffffffffffffffffff1673ffffffffffffffffffffffffffffffffffffffff1681526020019081526020016000209050600073ffffffffffffffffffffffffffffffffffffffff168160000160009054906101000a900473ffffffffffffffffffffffffffffffffffffffff1673ffffffffffffffffffffffffffffffffffffffff16036107ee576040517f08c379a00000000000000000000000000000000000000000000000000000000081526004016107e59061281e565b60405180910390fd5b5080806107fa9061286d565b9150506106e6565b5084846004600154101561085b5760008282905011610856576040517f08c379a000000000000000000000000000000000000000000000000000000000815260040161084d90612901565b60405180910390fd5b6108b0565b600260015461086a9190612950565b8282905010156108af576040517f08c379a00000000000000000000000000000000000000000000000000000000081526004016108a690612901565b60405180910390fd5b5b60405180604001604052808673ffffffffffffffffffffffffffffffffffffffff1681526020016000815250600260008773ffffffffffffffffffffffffffffffffffffffff1673ffffffffffffffffffffffffffffffffffffffff16815260200190815260200160002060008201518160000160006101000a81548173ffffffffffffffffffffffffffffffffffffffff021916908373ffffffffffffffffffffffffffffffffffffffff16021790555060208201518160010155905050600160008154809291906109829061286d565b91905055507f89a6354fb229eda6cbc28306798727b4d524818d2c375220bc3f360f24cffaca856040516109b6919061208e565b60405180910390a150505050505050565b600060149054906101000a900460ff16610a16576040517f08c379a0000000000000000000000000000000000000000000000000000000008152600401610a0d906129f3565b60405180910390fd5b836000600260008373ffffffffffffffffffffffffffffffffffffffff1673ffffffffffffffffffffffffffffffffffffffff1681526020019081526020016000209050600073ffffffffffffffffffffffffffffffffffffffff168160000160009054906101000a900473ffffffffffffffffffffffffffffffffffffffff1673ffffffffffffffffffffffffffffffffffffffff1603610aed576040517f08c379a0000000000000000000000000000000000000000000000000000000008152600401610ae49061281e565b60405180910390fd5b85678ac7230489e80000600260008373ffffffffffffffffffffffffffffffffffffffff1673ffffffffffffffffffffffffffffffffffffffff168152602001908152602001600020600101541015610b7b576040517f08c379a0000000000000000000000000000000000000000000000000000000008152600401610b7290612a5f565b60405180910390fd5b60405180608001604052808873ffffffffffffffffffffffffffffffffffffffff16815260200187878080601f016020809104026020016040519081016040528093929190818152602001838380828437600081840152601f19601f820116905080830192505050505050508152602001858152602001600081525060038787604051610c09929190612aaf565b908152602001604051809103902060008201518160000160006101000a81548173ffffffffffffffffffffffffffffffffffffffff021916908373ffffffffffffffffffffffffffffffffffffffff1602179055506020820151816001019081610c739190612cd4565b5060408201518160020155606082015181600301559050507fc12949a930abfa1f117c97c1dd14276790d886abcefa3904e4d49715dca5a3358686604051610cbc929190612dd3565b60405180910390a150505050505050565b60008060009054906101000a900473ffffffffffffffffffffffffffffffffffffffff16905090565b600080600560008473ffffffffffffffffffffffffffffffffffffffff1673ffffffffffffffffffffffffffffffffffffffff16815260200190815260200160002090508273ffffffffffffffffffffffffffffffffffffffff168160000160009054906101000a900473ffffffffffffffffffffffffffffffffffffffff1673ffffffffffffffffffffffffffffffffffffffff16148015610d9d575060008160030154115b15610daf578060030154915050610db5565b60009150505b919050565b600080600560008473ffffffffffffffffffffffffffffffffffffffff1673ffffffffffffffffffffffffffffffffffffffff16815260200190815260200160002090508060030154915050919050565b816000600260008373ffffffffffffffffffffffffffffffffffffffff1673ffffffffffffffffffffffffffffffffffffffff1681526020019081526020016000209050600073ffffffffffffffffffffffffffffffffffffffff168160000160009054906101000a900473ffffffffffffffffffffffffffffffffffffffff1673ffffffffffffffffffffffffffffffffffffffff1603610ee2576040517f08c379a0000000000000000000000000000000000000000000000000000000008152600401610ed99061281e565b60405180910390fd5b6000600260008673ffffffffffffffffffffffffffffffffffffffff1673ffffffffffffffffffffffffffffffffffffffff16815260200190815260200160002090508381600101819055507f3c348ba34685212d5d04f432a9e569b642b180df0227a6b0c899050c4acb7af885604051610f5d919061208e565b60405180910390a15050505050565b610f74611ccc565b816000600260008373ffffffffffffffffffffffffffffffffffffffff1673ffffffffffffffffffffffffffffffffffffffff1681526020019081526020016000209050600073ffffffffffffffffffffffffffffffffffffffff168160000160009054906101000a900473ffffffffffffffffffffffffffffffffffffffff1673ffffffffffffffffffffffffffffffffffffffff160361104b576040517f08c379a00000000000000000000000000000000000000000000000000000000081526004016110429061281e565b60405180910390fd5b83678ac7230489e80000600260008373ffffffffffffffffffffffffffffffffffffffff1673ffffffffffffffffffffffffffffffffffffffff1681526020019081526020016000206001015410156110d9576040517f08c379a00000000000000000000000000000000000000000000000000000000081526004016110d090612a5f565b60405180910390fd5b600260008673ffffffffffffffffffffffffffffffffffffffff1673ffffffffffffffffffffffffffffffffffffffff1681526020019081526020016000206040518060400160405290816000820160009054906101000a900473ffffffffffffffffffffffffffffffffffffffff1673ffffffffffffffffffffffffffffffffffffffff1673ffffffffffffffffffffffffffffffffffffffff1681526020016001820154815250509350505050919050565b60008073ffffffffffffffffffffffffffffffffffffffff16600384846040516111b8929190612aaf565b908152602001604051809103902060000160009054906101000a900473ffffffffffffffffffffffffffffffffffffffff1673ffffffffffffffffffffffffffffffffffffffff161415905092915050565b806000806101000a81548173ffffffffffffffffffffffffffffffffffffffff021916908373ffffffffffffffffffffffffffffffffffffffff16021790555050565b600061125a848484611c96565b90506000600460008381526020019081526020016000208054806020026020016040519081016040528092919081815260200182805480156112f157602002820191906000526020600020905b8160009054906101000a900473ffffffffffffffffffffffffffffffffffffffff1673ffffffffffffffffffffffffffffffffffffffff16815260200190600101908083116112a7575b5050505050905060005b81518110156114005760006005600084848151811061131d5761131c6127a3565b5b602002602001015173ffffffffffffffffffffffffffffffffffffffff1673ffffffffffffffffffffffffffffffffffffffff1681526020019081526020016000209050600281600201546113729190612950565b81600201546113819190612df7565b81600301819055507fa97e30f54814b33654e70b12a4db66ef4570a990d8592b79366b2850d4ce7cae848260000160009054906101000a900473ffffffffffffffffffffffffffffffffffffffff1683600301546040516113e493929190612e4d565b60405180910390a15080806113f89061286d565b9150506112fb565b505050505050565b60008060149054906101000a900460ff16905090565b611426611cfc565b60038383604051611438929190612aaf565b90815260200160405180910390206040518060800160405290816000820160009054906101000a900473ffffffffffffffffffffffffffffffffffffffff1673ffffffffffffffffffffffffffffffffffffffff1673ffffffffffffffffffffffffffffffffffffffff1681526020016001820180546114b790612af7565b80601f01602080910402602001604051908101604052809291908181526020018280546114e390612af7565b80156115305780601f1061150557610100808354040283529160200191611530565b820191906000526020600020905b81548152906001019060200180831161151357829003601f168201915b5050505050815260200160028201548152602001600382015481525050905092915050565b60008060149054906101000a900460ff166115a5576040517f08c379a000000000000000000000000000000000000000000000000000000000815260040161159c906129f3565b60405180910390fd5b60006115b2868686611c96565b905086600560008973ffffffffffffffffffffffffffffffffffffffff1673ffffffffffffffffffffffffffffffffffffffff16815260200190815260200160002060000160006101000a81548173ffffffffffffffffffffffffffffffffffffffff021916908373ffffffffffffffffffffffffffffffffffffffff16021790555084600560008973ffffffffffffffffffffffffffffffffffffffff1673ffffffffffffffffffffffffffffffffffffffff16815260200190815260200160002060010190816116849190612cd4565b5082600560008973ffffffffffffffffffffffffffffffffffffffff1673ffffffffffffffffffffffffffffffffffffffff168152602001908152602001600020600201819055506000600560008973ffffffffffffffffffffffffffffffffffffffff1673ffffffffffffffffffffffffffffffffffffffff1681526020019081526020016000206003018190555060046000828152602001908152602001600020879080600181540180825580915050600190039060005260206000200160009091909190916101000a81548173ffffffffffffffffffffffffffffffffffffffff021916908373ffffffffffffffffffffffffffffffffffffffff160217905550600060038660405161179a9190612eb5565b908152602001604051809103902090508060030160008154809291906117bf9061286d565b91905055507fa04ed6161105cbb5b1e6a9e889a3b5cd93db7f0c5ab1dacfac90009aa87dc9488289866040516117f793929190612e4d565b60405180910390a1819250505095945050505050565b611815611ccc565b816000600260008373ffffffffffffffffffffffffffffffffffffffff1673ffffffffffffffffffffffffffffffffffffffff1681526020019081526020016000209050600073ffffffffffffffffffffffffffffffffffffffff168160000160009054906101000a900473ffffffffffffffffffffffffffffffffffffffff1673ffffffffffffffffffffffffffffffffffffffff16036118ec576040517f08c379a00000000000000000000000000000000000000000000000000000000081526004016118e39061281e565b60405180910390fd5b600260008573ffffffffffffffffffffffffffffffffffffffff1673ffffffffffffffffffffffffffffffffffffffff1681526020019081526020016000206040518060400160405290816000820160009054906101000a900473ffffffffffffffffffffffffffffffffffffffff1673ffffffffffffffffffffffffffffffffffffffff1673ffffffffffffffffffffffffffffffffffffffff16815260200160018201548152505092505050919050565b600080600560008473ffffffffffffffffffffffffffffffffffffffff1673ffffffffffffffffffffffffffffffffffffffff16815260200190815260200160002090508060020154915050919050565b6119f8611d3a565b600060149054906101000a900460ff16611a47576040517f08c379a0000000000000000000000000000000000000000000000000000000008152600401611a3e906129f3565b60405180910390fd5b600560008373ffffffffffffffffffffffffffffffffffffffff1673ffffffffffffffffffffffffffffffffffffffff1681526020019081526020016000206040518060800160405290816000820160009054906101000a900473ffffffffffffffffffffffffffffffffffffffff1673ffffffffffffffffffffffffffffffffffffffff1673ffffffffffffffffffffffffffffffffffffffff168152602001600182018054611af790612af7565b80601f0160208091040260200160405190810160405280929190818152602001828054611b2390612af7565b8015611b705780601f10611b4557610100808354040283529160200191611b70565b820191906000526020600020905b815481529060010190602001808311611b5357829003601f168201915b50505050508152602001600282015481526020016003820154815250509050919050565b6060600060149054906101000a900460ff16611be5576040517f08c379a0000000000000000000000000000000000000000000000000000000008152600401611bdc906129f3565b60405180910390fd5b6000611bf2858585611c96565b905060046000828152602001908152602001600020805480602002602001604051908101604052809291908181526020018280548015611c8757602002820191906000526020600020905b8160009054906101000a900473ffffffffffffffffffffffffffffffffffffffff1673ffffffffffffffffffffffffffffffffffffffff1681526020019060010190808311611c3d575b50505050509150509392505050565b6000838383604051602001611cad93929190612f35565b6040516020818303038152906040528051906020012090509392505050565b6040518060400160405280600073ffffffffffffffffffffffffffffffffffffffff168152602001600081525090565b6040518060800160405280600073ffffffffffffffffffffffffffffffffffffffff1681526020016060815260200160008152602001600081525090565b6040518060800160405280600073ffffffffffffffffffffffffffffffffffffffff1681526020016060815260200160008152602001600081525090565b6000604051905090565b600080fd5b600080fd5b600073ffffffffffffffffffffffffffffffffffffffff82169050919050565b6000611db782611d8c565b9050919050565b611dc781611dac565b8114611dd257600080fd5b50565b600081359050611de481611dbe565b92915050565b600060208284031215611e0057611dff611d82565b5b6000611e0e84828501611dd5565b91505092915050565b60008115159050919050565b611e2c81611e17565b8114611e3757600080fd5b50565b600081359050611e4981611e23565b92915050565b600060208284031215611e6557611e64611d82565b5b6000611e7384828501611e3a565b91505092915050565b600080fd5b600080fd5b600080fd5b60008083601f840112611ea157611ea0611e7c565b5b8235905067ffffffffffffffff811115611ebe57611ebd611e81565b5b602083019150836020820283011115611eda57611ed9611e86565b5b9250929050565b6000611eec82611d8c565b9050919050565b611efc81611ee1565b8114611f0757600080fd5b50565b600081359050611f1981611ef3565b92915050565b600080600060408486031215611f3857611f37611d82565b5b600084013567ffffffffffffffff811115611f5657611f55611d87565b5b611f6286828701611e8b565b93509350506020611f7586828701611f0a565b9150509250925092565b60008083601f840112611f9557611f94611e7c565b5b8235905067ffffffffffffffff811115611fb257611fb1611e81565b5b602083019150836001820283011115611fce57611fcd611e86565b5b9250929050565b6000819050919050565b611fe881611fd5565b8114611ff357600080fd5b50565b60008135905061200581611fdf565b92915050565b6000806000806060858703121561202557612024611d82565b5b600061203387828801611f0a565b945050602085013567ffffffffffffffff81111561205457612053611d87565b5b61206087828801611f7f565b9350935050604061207387828801611ff6565b91505092959194509250565b61208881611ee1565b82525050565b60006020820190506120a3600083018461207f565b92915050565b6000602082840312156120bf576120be611d82565b5b60006120cd84828501611f0a565b91505092915050565b6120df81611fd5565b82525050565b60006020820190506120fa60008301846120d6565b92915050565b6000806040838503121561211757612116611d82565b5b600061212585828601611f0a565b925050602061213685828601611ff6565b9150509250929050565b61214981611ee1565b82525050565b61215881611fd5565b82525050565b6040820160008201516121746000850182612140565b506020820151612187602085018261214f565b50505050565b60006040820190506121a2600083018461215e565b92915050565b600080602083850312156121bf576121be611d82565b5b600083013567ffffffffffffffff8111156121dd576121dc611d87565b5b6121e985828601611f7f565b92509250509250929050565b6121fe81611e17565b82525050565b600060208201905061221960008301846121f5565b92915050565b600080fd5b6000601f19601f8301169050919050565b7f4e487b7100000000000000000000000000000000000000000000000000000000600052604160045260246000fd5b61226d82612224565b810181811067ffffffffffffffff8211171561228c5761228b612235565b5b80604052505050565b600061229f611d78565b90506122ab8282612264565b919050565b600067ffffffffffffffff8211156122cb576122ca612235565b5b6122d482612224565b9050602081019050919050565b82818337600083830152505050565b60006123036122fe846122b0565b612295565b90508281526020810184848401111561231f5761231e61221f565b5b61232a8482856122e1565b509392505050565b600082601f83011261234757612346611e7c565b5b81356123578482602086016122f0565b91505092915050565b60008060006060848603121561237957612378611d82565b5b600061238786828701611f0a565b935050602084013567ffffffffffffffff8111156123a8576123a7611d87565b5b6123b486828701612332565b92505060406123c586828701611ff6565b9150509250925092565b600081519050919050565b600082825260208201905092915050565b60005b838110156124095780820151818401526020810190506123ee565b83811115612418576000848401525b50505050565b6000612429826123cf565b61243381856123da565b93506124438185602086016123eb565b61244c81612224565b840191505092915050565b600060808301600083015161246f6000860182612140565b5060208301518482036020860152612487828261241e565b915050604083015161249c604086018261214f565b5060608301516124af606086018261214f565b508091505092915050565b600060208201905081810360008301526124d48184612457565b905092915050565b600080600080600060a086880312156124f8576124f7611d82565b5b600061250688828901611f0a565b955050602061251788828901611f0a565b945050604086013567ffffffffffffffff81111561253857612537611d87565b5b61254488828901612332565b935050606061255588828901611ff6565b925050608061256688828901611ff6565b9150509295509295909350565b6000819050919050565b61258681612573565b82525050565b60006020820190506125a1600083018461257d565b92915050565b60006080830160008301516125bf6000860182612140565b50602083015184820360208601526125d7828261241e565b91505060408301516125ec604086018261214f565b5060608301516125ff606086018261214f565b508091505092915050565b6000602082019050818103600083015261262481846125a7565b905092915050565b600081519050919050565b600082825260208201905092915050565b6000819050602082019050919050565b60006126648383612140565b60208301905092915050565b6000602082019050919050565b60006126888261262c565b6126928185612637565b935061269d83612648565b8060005b838110156126ce5781516126b58882612658565b97506126c083612670565b9250506001810190506126a1565b5085935050505092915050565b600060208201905081810360008301526126f5818461267d565b905092915050565b600082825260208201905092915050565b7f5265656e7472616e742063616c6c206465746563746564210000000000000000600082015250565b60006127446018836126fd565b915061274f8261270e565b602082019050919050565b6000602082019050818103600083015261277381612737565b9050919050565b600060408201905061278f600083018561207f565b61279c60208301846120d6565b9392505050565b7f4e487b7100000000000000000000000000000000000000000000000000000000600052603260045260246000fd5b7f4169726c696e65206e6f74207265676973746572656400000000000000000000600082015250565b60006128086016836126fd565b9150612813826127d2565b602082019050919050565b60006020820190508181036000830152612837816127fb565b9050919050565b7f4e487b7100000000000000000000000000000000000000000000000000000000600052601160045260246000fd5b600061287882611fd5565b91507fffffffffffffffffffffffffffffffffffffffffffffffffffffffffffffffff82036128aa576128a961283e565b5b600182019050919050565b7f4d696e696d756d20636f6e7365737573206e6f74206d65740000000000000000600082015250565b60006128eb6018836126fd565b91506128f6826128b5565b602082019050919050565b6000602082019050818103600083015261291a816128de565b9050919050565b7f4e487b7100000000000000000000000000000000000000000000000000000000600052601260045260246000fd5b600061295b82611fd5565b915061296683611fd5565b92508261297657612975612921565b5b828204905092915050565b7f436f6e74726163742069732063757272656e746c79206e6f74206f706572617460008201527f696f6e616c000000000000000000000000000000000000000000000000000000602082015250565b60006129dd6025836126fd565b91506129e882612981565b604082019050919050565b60006020820190508181036000830152612a0c816129d0565b9050919050565b7f4169726c696e65206e6f74206174206d696e696d756d2066756e64696e670000600082015250565b6000612a49601e836126fd565b9150612a5482612a13565b602082019050919050565b60006020820190508181036000830152612a7881612a3c565b9050919050565b600081905092915050565b6000612a968385612a7f565b9350612aa38385846122e1565b82840190509392505050565b6000612abc828486612a8a565b91508190509392505050565b7f4e487b7100000000000000000000000000000000000000000000000000000000600052602260045260246000fd5b60006002820490506001821680612b0f57607f821691505b602082108103612b2257612b21612ac8565b5b50919050565b60008190508160005260206000209050919050565b60006020601f8301049050919050565b600082821b905092915050565b600060088302612b8a7fffffffffffffffffffffffffffffffffffffffffffffffffffffffffffffffff82612b4d565b612b948683612b4d565b95508019841693508086168417925050509392505050565b6000819050919050565b6000612bd1612bcc612bc784611fd5565b612bac565b611fd5565b9050919050565b6000819050919050565b612beb83612bb6565b612bff612bf782612bd8565b848454612b5a565b825550505050565b600090565b612c14612c07565b612c1f818484612be2565b505050565b5b81811015612c4357612c38600082612c0c565b600181019050612c25565b5050565b601f821115612c8857612c5981612b28565b612c6284612b3d565b81016020851015612c71578190505b612c85612c7d85612b3d565b830182612c24565b50505b505050565b600082821c905092915050565b6000612cab60001984600802612c8d565b1980831691505092915050565b6000612cc48383612c9a565b9150826002028217905092915050565b612cdd826123cf565b67ffffffffffffffff811115612cf657612cf5612235565b5b612d008254612af7565b612d0b828285612c47565b600060209050601f831160018114612d3e5760008415612d2c578287015190505b612d368582612cb8565b865550612d9e565b601f198416612d4c86612b28565b60005b82811015612d7457848901518255600182019150602085019450602081019050612d4f565b86831015612d915784890151612d8d601f891682612c9a565b8355505b6001600288020188555050505b505050505050565b6000612db283856126fd565b9350612dbf8385846122e1565b612dc883612224565b840190509392505050565b60006020820190508181036000830152612dee818486612da6565b90509392505050565b6000612e0282611fd5565b9150612e0d83611fd5565b9250827fffffffffffffffffffffffffffffffffffffffffffffffffffffffffffffffff03821115612e4257612e4161283e565b5b828201905092915050565b6000606082019050612e62600083018661257d565b612e6f602083018561207f565b612e7c60408301846120d6565b949350505050565b6000612e8f826123cf565b612e998185612a7f565b9350612ea98185602086016123eb565b80840191505092915050565b6000612ec18284612e84565b915081905092915050565b60008160601b9050919050565b6000612ee482612ecc565b9050919050565b6000612ef682612ed9565b9050919050565b612f0e612f0982611ee1565b612eeb565b82525050565b6000819050919050565b612f2f612f2a82611fd5565b612f14565b82525050565b6000612f418286612efd565b601482019150612f518285612e84565b9150612f5d8284612f1e565b60208201915081905094935050505056fea26469706673582212201a2bc95689eb5afe3f0950808f7db72c8e098c1fa0b8dc574f3addd9d8e8560464736f6c634300080f0033",
  "immutableReferences": {},
  "source": "pragma solidity ^0.8.15;\n\nimport \"@openzeppelin/contracts/utils/math/SafeMath.sol\";\n\ncontract FlightSuretyData {\n    using SafeMath for uint256;\n\n    /********************************************************************************************/\n    /*                                       DATA VARIABLES                                     */\n    /********************************************************************************************/\n\n    address private contractOwner; // Account used to deploy contract\n    bool private operational = true; // Blocks all state changes throughout the contract if false\n\n    uint numAirlines = 0;\n\n    struct Airline {\n        address airlineAddress;\n        uint funding;\n    }\n\n    mapping(address => Airline) private airlines;\n\n    struct Flight {\n        address airline;\n        string flightId;\n        uint256 timestamp;\n        uint passengersSize;\n    }\n    mapping(string => Flight) private flights;\n\n    mapping(bytes32 => address[]) private flightPassengers;\n\n    struct Passenger {\n        address passengerAddress;\n        string flightId;\n        uint256 insuranceValue;\n        uint256 payoutCredit;\n    }\n    mapping(address => Passenger) private passengers;\n\n    struct PassengerTest {\n        string flightId;\n        uint256 insuranceValue;\n        uint256 payoutCredit;\n    }\n    mapping(string => PassengerTest) private passengersTest;\n\n    bool locked = false; //Reentrance control flag\n\n    /**\n     * @dev Constructor\n     *      The deploying account becomes contractOwner\n     */\n    constructor(address firstAirlineAddress, address owner) {\n        // contractOwner = msg.sender;\n        contractOwner = owner;\n        operational = false;\n        airlines[firstAirlineAddress] = Airline(firstAirlineAddress, 0);\n        numAirlines++;\n    }\n\n    /********************************************************************************************/\n    /*                                       EVENT DEFINITIONS                                  */\n    /********************************************************************************************/\n\n    event AirlineRegistered(address airline);\n    event AirlineFunded(address airline);\n    event FlightRegistered(string flightKey);\n    event PassengerInsured(bytes32 flightKey, address passenger, uint256 insuranceValue);\n    event InsureeCredited(bytes32 flightKey, address passenger, uint256 amount);\n    event PayInsuree(address payoutAddress, uint256 amount);\n\n    /********************************************************************************************/\n    /*                                       FUNCTION MODIFIERS                                 */\n    /********************************************************************************************/\n\n    // Modifiers help avoid duplication of code. They are typically used to validate something\n    // before a function is allowed to be executed.\n\n    /**\n     * @dev Modifier that requires the \"operational\" boolean variable to be \"true\"\n     *      This is used on all state changing functions to pause the contract in\n     *      the event there is an issue that needs to be fixed\n     */\n    modifier requireIsOperational() {\n        require(operational, \"Contract is currently not operational\");\n        _; // All modifiers require an \"_\" which indicates where the function body will be added\n    }\n\n    /**\n     * @dev Modifier that requires the \"ContractOwner\" account to be the function caller\n     */\n    modifier requireContractOwner() {\n        require(msg.sender == contractOwner, \"Caller is not contract owner\");\n        _;\n    }\n\n    modifier requireAirlineRegistered(address airlineAddress) {\n        Airline storage airline = airlines[airlineAddress];\n        require(airline.airlineAddress != address(0), \"Airline not registered\");\n        _; // All modifiers require an \"_\" which indicates where the function body will be added\n    }\n\n    modifier requireAirlinesRegistered(address[] calldata airlineAddresses) {\n        for (uint i = 0; i < airlineAddresses.length; i++) {\n            Airline storage airline = airlines[airlineAddresses[i]];\n            require(\n                airline.airlineAddress != address(0),\n                \"Airline not registered\"\n            );\n        }\n        _; // All modifiers require an \"_\" which indicates where the function body will be added\n    }\n\n    modifier requireMinimumConsensus(address[] calldata airlineAddresses) {\n        if (numAirlines < 4) {\n            require(airlineAddresses.length > 0, \"Minimum consesus not met\");\n        } else {\n            require(\n                airlineAddresses.length >= numAirlines / 2,\n                \"Minimum consesus not met\"\n            );\n        }\n        _; // All modifiers require an \"_\" which indicates where the function body will be added\n    }\n\n    modifier requireMinimumFunding(address airlineAddress) {\n        require(\n            airlines[airlineAddress].funding >= 10 ether,\n            \"Airline not at minimum funding\"\n        );\n        _; // All modifiers require an \"_\" which indicates where the function body will be added\n    }\n\n    /********************************************************************************************/\n    /*                                       UTILITY FUNCTIONS                                  */\n    /********************************************************************************************/\n\n    /**\n     * @dev Get operating status of contract\n     *\n     * @return A bool that is the current operating status\n     */\n    function isOperational() public view returns (bool) {\n        return operational;\n    }\n\n    /**\n     * @dev Sets contract operations on/off\n     *\n     * When operational mode is disabled, all write transactions except for this one will fail\n     */\n    function setOperatingStatus(bool mode) external {\n        operational = mode;\n    }\n\n    function setContractOwner(address owner) public {\n        contractOwner = owner;\n    }\n\n    function getContractOwner() public view returns (address) {\n        return contractOwner;\n    }\n\n    /********************************************************************************************/\n    /*                                     SMART CONTRACT FUNCTIONS                             */\n    /********************************************************************************************/\n\n    /**\n     * @dev Add an airline to the registration queue\n     *      Can only be called from FlightSuretyApp contract\n     *\n     */\n    function registerAirline(\n        address[] calldata approvingAirlines,\n        address newAirline\n    )\n        external\n        requireAirlinesRegistered(approvingAirlines)\n        requireMinimumConsensus(approvingAirlines)\n    {\n        airlines[newAirline] = Airline(newAirline, 0);\n        numAirlines++;\n\n        emit AirlineRegistered(newAirline);\n    }\n\n    function getAirline(address airlineAddress)\n        external\n        view\n        requireAirlineRegistered(airlineAddress)\n        returns (Airline memory)\n    {\n        return airlines[airlineAddress];\n    }\n\n    function getValidAirline(address airlineAddress)\n        external\n        view\n        requireAirlineRegistered(airlineAddress)\n        requireMinimumFunding(airlineAddress)\n        returns (Airline memory)\n    {\n        return airlines[airlineAddress];\n    }\n\n    /**\n     * @dev Buy insurance for a flight\n     *\n     */\n    function buy(\n        address passenger,\n        address airline,\n        string memory flightId,\n        uint256 timestamp,\n        uint256 insuranceValue\n    ) external requireIsOperational returns (bytes32) {\n        bytes32 flightKey = getFlightKey(airline, flightId, timestamp);\n        passengers[passenger].passengerAddress = passenger;\n        passengers[passenger].flightId = flightId;\n        passengers[passenger].insuranceValue = insuranceValue;\n        passengers[passenger].payoutCredit = 0;\n\n        flightPassengers[flightKey].push(passenger);\n\n        Flight storage flight = flights[flightId];\n        flight.passengersSize++;\n\n        emit PassengerInsured(flightKey, passenger, insuranceValue);\n\n        return flightKey;\n    }\n\n    function getFlightPassengers(\n        address airline,\n        string memory flightId,\n        uint256 timestamp\n    ) public view requireIsOperational returns (address[] memory) {\n        bytes32 flightKey = getFlightKey(airline, flightId, timestamp);\n        return flightPassengers[flightKey];\n    }\n\n    function getPassenger(address passenger)\n        public\n        view\n        requireIsOperational\n        returns (Passenger memory)\n    {\n        return passengers[passenger];\n    }\n\n    function getInsuranceValueForPassenger(address _passenger)\n        external\n        view\n        returns (uint256)\n    {\n        Passenger storage passenger = passengers[_passenger];\n        return passenger.insuranceValue;\n    }\n\n    function getPayoutCreditForPassenger(address _passenger)\n        external\n        view\n        returns (uint256)\n    {\n        Passenger storage passenger = passengers[_passenger];\n        return passenger.payoutCredit;\n    }\n\n    /**\n     *  @dev Credits payouts to insurees\n     */\n    function creditInsurees(\n        address airline,\n        string memory flightId,\n        uint256 timestamp\n    ) external {\n        bytes32 flightKey = getFlightKey(airline, flightId, timestamp);\n        address[] memory passengersForFlight = flightPassengers[flightKey];\n\n        for (uint i = 0; i < passengersForFlight.length; i++) {\n            Passenger storage passenger = passengers[passengersForFlight[i]];\n            passenger.payoutCredit =\n                passenger.insuranceValue +\n                (passenger.insuranceValue / 2);\n\n                emit InsureeCredited(flightKey, passenger.passengerAddress, passenger.payoutCredit);\n        }\n    }\n\n    function getBalanceDue(address _passenger) public view returns (uint256) {\n        Passenger storage passenger = passengers[_passenger];\n\n        if (\n            passenger.passengerAddress == _passenger &&\n            passenger.payoutCredit > 0\n        ) {\n            return passenger.payoutCredit;\n        }\n\n        return 0;\n    }\n\n    /**\n     *  @dev Transfers eligible payout funds to insuree\n     *\n     */\n    function pay(address payable _passenger) public payable {\n        require(!locked, \"Reentrant call detected!\");\n\n        locked = true;\n        Passenger storage passenger = passengers[_passenger];\n\n        if (\n            passenger.passengerAddress == _passenger &&\n            passenger.payoutCredit > 0\n        ) {\n            uint256 payoutCredit = passenger.payoutCredit;\n            passenger.payoutCredit = 0;\n            _passenger.transfer(payoutCredit);\n\n            emit PayInsuree(passenger.passengerAddress, payoutCredit);\n        }\n\n        locked = false;\n    }\n\n    /**\n     * @dev Initial funding for the insurance. Unless there are too many delayed flights\n     *      resulting in insurance payouts, the contract should be self-sustaining\n     *\n     */\n    function fund(address airlineAddress, uint funding)\n        public\n        payable\n        requireAirlineRegistered(airlineAddress)\n    {\n        Airline storage airline = airlines[airlineAddress];\n        airline.funding = funding;\n\n        emit AirlineFunded(airlineAddress);\n    }\n\n    function registerFlight(\n        address airline,\n        string calldata flightId,\n        uint256 timestamp\n    )\n        external\n        requireIsOperational\n        requireAirlineRegistered(airline)\n        requireMinimumFunding(airline)\n    {\n\n        flights[flightId] = Flight({airline: airline, flightId: flightId, timestamp: timestamp, passengersSize: 0});\n\n        emit FlightRegistered(flightId);\n    }\n\n    function flightExists(string calldata flightId) public view returns (bool) {\n        return flights[flightId].airline != address(0);\n    }\n\n    function getFlight(string calldata flightId)\n        public\n        view\n        returns (Flight memory)\n    {\n        return flights[flightId];\n    }\n\n    function getFlightKey(\n        address airline,\n        string memory flight,\n        uint256 timestamp\n    ) internal pure returns (bytes32) {\n        return keccak256(abi.encodePacked(airline, flight, timestamp));\n    }\n\n    /**\n     * @dev Fallback function for funding smart contract.\n     *\n     */\n    // function()\n    //                         external\n    //                         payable\n    // {\n    //     fund();\n    // }\n}",
  "sourcePath": "/workspaces/flight_surety_dapp/app/contracts/FlightSuretyData.sol",
  "compiler": {
    "name": "solc",
    "version": "0.8.15+commit.e14f2714.Emscripten.clang"
  },
  "schemaVersion": "3.4.8",
  "updatedAt": "2022-08-05T02:00:10.187Z",
  "networkType": "ethereum",
  "devdoc": {
    "kind": "dev",
    "methods": {
      "buy(address,address,string,uint256,uint256)": {
        "details": "Buy insurance for a flight"
      },
      "constructor": {
        "details": "Constructor      The deploying account becomes contractOwner"
      },
      "creditInsurees(address,string,uint256)": {
        "details": "Credits payouts to insurees"
      },
      "fund(address,uint256)": {
        "details": "Initial funding for the insurance. Unless there are too many delayed flights      resulting in insurance payouts, the contract should be self-sustaining"
      },
      "isOperational()": {
        "details": "Get operating status of contract",
        "returns": {
          "_0": "A bool that is the current operating status"
        }
      },
      "pay(address)": {
        "details": "Transfers eligible payout funds to insuree"
      },
      "registerAirline(address[],address)": {
        "details": "Add an airline to the registration queue      Can only be called from FlightSuretyApp contract"
      },
      "setOperatingStatus(bool)": {
        "details": "Sets contract operations on/off When operational mode is disabled, all write transactions except for this one will fail"
      }
    },
    "version": 1
  },
  "userdoc": {
    "kind": "user",
    "methods": {},
    "version": 1
  }
}