{
  "contractName": "FlightSuretyDataAbstract",
  "abi": [
    {
      "inputs": [],
      "name": "isOperational",
      "outputs": [
        {
          "internalType": "bool",
          "name": "",
          "type": "bool"
        }
      ],
      "stateMutability": "view",
      "type": "function"
    },
    {
      "inputs": [
        {
          "internalType": "bool",
          "name": "mode",
          "type": "bool"
        }
      ],
      "name": "setOperatingStatus",
      "outputs": [],
      "stateMutability": "nonpayable",
      "type": "function"
    },
    {
      "inputs": [],
      "name": "registerAirline",
      "outputs": [],
      "stateMutability": "nonpayable",
      "type": "function"
    },
    {
      "inputs": [
        {
          "internalType": "address",
          "name": "airline",
          "type": "address"
        },
        {
          "internalType": "string",
          "name": "flightId",
          "type": "string"
        },
        {
          "internalType": "uint256",
          "name": "timestamp",
          "type": "uint256"
        }
      ],
      "name": "registerFlight",
      "outputs": [],
      "stateMutability": "nonpayable",
      "type": "function"
    },
    {
      "inputs": [
        {
          "internalType": "string",
          "name": "flightId",
          "type": "string"
        }
      ],
      "name": "flightExists",
      "outputs": [
        {
          "internalType": "bool",
          "name": "",
          "type": "bool"
        }
      ],
      "stateMutability": "view",
      "type": "function"
    },
    {
      "inputs": [
        {
          "internalType": "address",
          "name": "passenger",
          "type": "address"
        },
        {
          "internalType": "address",
          "name": "airline",
          "type": "address"
        },
        {
          "internalType": "string",
          "name": "flightId",
          "type": "string"
        },
        {
          "internalType": "uint256",
          "name": "timestamp",
          "type": "uint256"
        },
        {
          "internalType": "uint256",
          "name": "insuranceValue",
          "type": "uint256"
        }
      ],
      "name": "buy",
      "outputs": [
        {
          "internalType": "bytes32",
          "name": "",
          "type": "bytes32"
        }
      ],
      "stateMutability": "nonpayable",
      "type": "function"
    },
    {
      "inputs": [
        {
          "internalType": "address",
          "name": "airline",
          "type": "address"
        },
        {
          "internalType": "string",
          "name": "flightId",
          "type": "string"
        },
        {
          "internalType": "uint256",
          "name": "timestamp",
          "type": "uint256"
        }
      ],
      "name": "creditInsurees",
      "outputs": [],
      "stateMutability": "nonpayable",
      "type": "function"
    },
    {
      "inputs": [
        {
          "internalType": "address",
          "name": "passenger",
          "type": "address"
        }
      ],
      "name": "getBalanceDue",
      "outputs": [
        {
          "internalType": "uint256",
          "name": "",
          "type": "uint256"
        }
      ],
      "stateMutability": "view",
      "type": "function"
    },
    {
      "inputs": [
        {
          "internalType": "address",
          "name": "passenger",
          "type": "address"
        }
      ],
      "name": "pay",
      "outputs": [],
      "stateMutability": "payable",
      "type": "function"
    },
    {
      "inputs": [
        {
          "internalType": "address",
          "name": "airlineAddress",
          "type": "address"
        },
        {
          "internalType": "uint256",
          "name": "funding",
          "type": "uint256"
        }
      ],
      "name": "fund",
      "outputs": [],
      "stateMutability": "payable",
      "type": "function"
    }
  ],
  "bytecode": "0x608060405234801561001057600080fd5b5061081d806100206000396000f3fe6080604052600436106100915760003560e01c80637b1837de116100595780637b1837de146101585780638d7f97af14610174578063c8820a70146101b1578063cd905dff146101da578063cf90cc441461020557610091565b80630c11dedd14610096578063110466ed146100b25780633cc0be9c146100db578063449d05431461010457806363e29a3f14610141575b600080fd5b6100b060048036038101906100ab91906102ea565b610242565b005b3480156100be57600080fd5b506100d960048036038101906100d4919061034f565b610245565b005b3480156100e757600080fd5b5061010260048036038101906100fd9190610417565b610248565b005b34801561011057600080fd5b5061012b600480360381019061012691906102ea565b61024e565b604051610138919061049a565b60405180910390f35b34801561014d57600080fd5b50610156610255565b005b610172600480360381019061016d91906104b5565b610257565b005b34801561018057600080fd5b5061019b600480360381019061019691906104f5565b61025b565b6040516101a89190610551565b60405180910390f35b3480156101bd57600080fd5b506101d860048036038101906101d391906106ad565b610263565b005b3480156101e657600080fd5b506101ef610268565b6040516101fc9190610551565b60405180910390f35b34801561021157600080fd5b5061022c6004803603810190610227919061071c565b61026d565b60405161023991906107cc565b60405180910390f35b50565b50565b50505050565b6000919050565b565b5050565b600092915050565b505050565b600090565b600095945050505050565b6000604051905090565b600080fd5b600080fd5b600073ffffffffffffffffffffffffffffffffffffffff82169050919050565b60006102b78261028c565b9050919050565b6102c7816102ac565b81146102d257600080fd5b50565b6000813590506102e4816102be565b92915050565b600060208284031215610300576102ff610282565b5b600061030e848285016102d5565b91505092915050565b60008115159050919050565b61032c81610317565b811461033757600080fd5b50565b60008135905061034981610323565b92915050565b60006020828403121561036557610364610282565b5b60006103738482850161033a565b91505092915050565b600080fd5b600080fd5b600080fd5b60008083601f8401126103a1576103a061037c565b5b8235905067ffffffffffffffff8111156103be576103bd610381565b5b6020830191508360018202830111156103da576103d9610386565b5b9250929050565b6000819050919050565b6103f4816103e1565b81146103ff57600080fd5b50565b600081359050610411816103eb565b92915050565b6000806000806060858703121561043157610430610282565b5b600061043f878288016102d5565b945050602085013567ffffffffffffffff8111156104605761045f610287565b5b61046c8782880161038b565b9350935050604061047f87828801610402565b91505092959194509250565b610494816103e1565b82525050565b60006020820190506104af600083018461048b565b92915050565b600080604083850312156104cc576104cb610282565b5b60006104da858286016102d5565b92505060206104eb85828601610402565b9150509250929050565b6000806020838503121561050c5761050b610282565b5b600083013567ffffffffffffffff81111561052a57610529610287565b5b6105368582860161038b565b92509250509250929050565b61054b81610317565b82525050565b60006020820190506105666000830184610542565b92915050565b600080fd5b6000601f19601f8301169050919050565b7f4e487b7100000000000000000000000000000000000000000000000000000000600052604160045260246000fd5b6105ba82610571565b810181811067ffffffffffffffff821117156105d9576105d8610582565b5b80604052505050565b60006105ec610278565b90506105f882826105b1565b919050565b600067ffffffffffffffff82111561061857610617610582565b5b61062182610571565b9050602081019050919050565b82818337600083830152505050565b600061065061064b846105fd565b6105e2565b90508281526020810184848401111561066c5761066b61056c565b5b61067784828561062e565b509392505050565b600082601f8301126106945761069361037c565b5b81356106a484826020860161063d565b91505092915050565b6000806000606084860312156106c6576106c5610282565b5b60006106d4868287016102d5565b935050602084013567ffffffffffffffff8111156106f5576106f4610287565b5b6107018682870161067f565b925050604061071286828701610402565b9150509250925092565b600080600080600060a0868803121561073857610737610282565b5b6000610746888289016102d5565b9550506020610757888289016102d5565b945050604086013567ffffffffffffffff81111561077857610777610287565b5b6107848882890161067f565b935050606061079588828901610402565b92505060806107a688828901610402565b9150509295509295909350565b6000819050919050565b6107c6816107b3565b82525050565b60006020820190506107e160008301846107bd565b9291505056fea2646970667358221220c9a4582e27ecd0e2e95c4a0f75e68a318d586b53d844c4aede01c629bc9e953664736f6c634300080f0033",
  "immutableReferences": {},
  "source": "pragma solidity ^0.8.15;\n\n// It's important to avoid vulnerabilities due to numeric overflow bugs\n// OpenZeppelin's SafeMath library, when used correctly, protects agains such bugs\n// More info: https://www.nccgroup.trust/us/about-us/newsroom-and-events/blog/2018/november/smart-contract-insecurity-bad-arithmetic/\n\nimport \"@openzeppelin/contracts/utils/math/SafeMath.sol\";\n\n/************************************************** */\n/* FlightSurety Smart Contract                      */\n/************************************************** */\ncontract FlightSuretyApp {\n    using SafeMath for uint256; // Allow SafeMath functions to be called for all uint256 types (similar to \"prototype\" in Javascript)\n\n    FlightSuretyDataAbstract flightSuretyData;\n    address flightSuretyDataAddress;\n\n    /********************************************************************************************/\n    /*                                       DATA VARIABLES                                     */\n    /********************************************************************************************/\n\n    // Flight status codees\n    uint8 private constant STATUS_CODE_UNKNOWN = 0;\n    uint8 private constant STATUS_CODE_ON_TIME = 10;\n    uint8 private constant STATUS_CODE_LATE_AIRLINE = 20;\n    uint8 private constant STATUS_CODE_LATE_WEATHER = 30;\n    uint8 private constant STATUS_CODE_LATE_TECHNICAL = 40;\n    uint8 private constant STATUS_CODE_LATE_OTHER = 50;\n\n    address payable private contractOwner; // Account used to deploy contract\n\n    struct Flight {\n        bool isRegistered;\n        uint8 statusCode;\n        uint256 updatedTimestamp;\n        address airline;\n    }\n    mapping(bytes32 => Flight) private flights;\n\n    /********************************************************************************************/\n    /*                                       EVENTS                                             */\n    /********************************************************************************************/\n\n    event Refund(address payable passenger, uint refund);\n\n    /********************************************************************************************/\n    /*                                       FUNCTION MODIFIERS                                 */\n    /********************************************************************************************/\n\n    // Modifiers help avoid duplication of code. They are typically used to validate something\n    // before a function is allowed to be executed.\n\n    /**\n     * @dev Modifier that requires the \"operational\" boolean variable to be \"true\"\n     *      This is used on all state changing functions to pause the contract in\n     *      the event there is an issue that needs to be fixed\n     */\n    modifier requireIsOperational() {\n        // Modify to call data contract's status\n        require(true, \"Contract is currently not operational\");\n        _; // All modifiers require an \"_\" which indicates where the function body will be added\n    }\n\n    /**\n     * @dev Modifier that requires the \"ContractOwner\" account to be the function caller\n     */\n    modifier requireContractOwner() {\n        require(msg.sender == contractOwner, \"Caller is not contract owner\");\n        _;\n    }\n\n    /********************************************************************************************/\n    /*                                       CONSTRUCTOR                                        */\n    /********************************************************************************************/\n\n    /**\n     * @dev Contract constructor\n     *\n     */\n    constructor(address _dataContract, address payable _owner) {\n        flightSuretyDataAddress = _dataContract;\n        flightSuretyData = FlightSuretyDataAbstract(_dataContract);\n        contractOwner = _owner; //msg.sender;\n    }\n\n    /********************************************************************************************/\n    /*                                       UTILITY FUNCTIONS                                  */\n    /********************************************************************************************/\n\n    function isOperational() public returns (bool) {\n        return flightSuretyData.isOperational(); // Modify to call data contract's status\n    }\n\n    function setOperatingStatus(bool mode) external requireContractOwner {\n        flightSuretyData.setOperatingStatus(mode);\n    }\n\n    function getDataContractAddress() public view returns (address) {\n        return flightSuretyDataAddress;\n    }\n\n    function getDataContract() public view returns (FlightSuretyDataAbstract) {\n        return flightSuretyData;\n    }\n\n    /********************************************************************************************/\n    /*                                     SMART CONTRACT FUNCTIONS                             */\n    /********************************************************************************************/\n\n    /**\n     * @dev Add an airline to the registration queue\n     *\n     */\n    function registerAirline()\n        external\n        pure\n        returns (bool success, uint256 votes)\n    {\n        return (success, 0);\n    }\n\n    /**\n     * @dev Register a future flight for insuring.\n     *\n     */\n    function registerFlight(\n        address airline,\n        string calldata flightId,\n        uint256 timestamp\n    ) public {\n        flightSuretyData.registerFlight(airline, flightId, timestamp);\n    }\n\n    /**\n     * @dev Called after oracle has updated flight status\n     *\n     */\n    function processFlightStatus(\n        address airline,\n        string memory flightId,\n        uint256 timestamp,\n        uint8 statusCode\n    ) internal {\n        if (statusCode == STATUS_CODE_LATE_AIRLINE) {\n            flightSuretyData.creditInsurees(airline, flightId, timestamp);\n        }\n    }\n\n    function getBalanceDue(address passenger) public view returns (uint256) {\n        return flightSuretyData.getBalanceDue(passenger);\n    }\n\n    function pay(address payable passenger) public payable {\n        require(msg.sender == contractOwner);\n        uint256 balanceDue = flightSuretyData.getBalanceDue(passenger);\n        flightSuretyData.pay{value: balanceDue}(passenger);\n    }\n\n    // Generate a request for oracles to fetch flight information\n    function fetchFlightStatus(\n        address airline,\n        string calldata flight,\n        uint256 timestamp\n    ) external {\n        uint8 index = getRandomIndex(msg.sender);\n\n        // Generate a unique key for storing the request\n        bytes32 key = keccak256(\n            abi.encodePacked(index, airline, flight, timestamp)\n        );\n\n        ResponseInfo storage response = oracleResponses[key];\n        response.requester = msg.sender;\n        response.isOpen = true;\n\n        emit OracleRequest(index, airline, flight, timestamp);\n    }\n\n    function buy(\n        address passenger,\n        address airline,\n        string memory flightId,\n        uint256 timestamp\n    ) external payable {\n        require(\n            flightSuretyData.flightExists(flightId) == true,\n            \"Flight must exist\"\n        );\n        uint256 insuranceValue = msg.value;\n        if (msg.value > 1 ether) {\n            contractOwner.transfer(1 ether);\n            payable(passenger).transfer(msg.value - 1 ether);\n            insuranceValue = 1 ether;\n        } else {\n            contractOwner.transfer(msg.value);\n        }\n        flightSuretyData.buy(\n            passenger,\n            airline,\n            flightId,\n            timestamp,\n            insuranceValue\n        );\n    }\n\n    function fund(address airlineAddress) public payable {\n        flightSuretyData.fund(airlineAddress, msg.value);\n    }\n\n    // region ORACLE MANAGEMENT\n\n    // Incremented to add pseudo-randomness at various points\n    uint8 private nonce = 0;\n\n    // Fee to be paid when registering oracle\n    uint256 public constant REGISTRATION_FEE = 1 ether;\n\n    // Number of oracles that must respond for valid status\n    uint256 private constant MIN_RESPONSES = 3;\n\n    struct Oracle {\n        bool isRegistered;\n        uint8[3] indexes;\n    }\n\n    // Track all registered oracles\n    mapping(address => Oracle) private oracles;\n\n    // Model for responses from oracles\n    struct ResponseInfo {\n        address requester; // Account that requested status\n        bool isOpen; // If open, oracle responses are accepted\n        mapping(uint8 => address[]) responses; // Mapping key is the status code reported\n        // This lets us group responses and identify\n        // the response that majority of the oracles\n    }\n\n    // Track all oracle responses\n    // Key = hash(index, flight, timestamp)\n    mapping(bytes32 => ResponseInfo) private oracleResponses;\n\n    // Event fired each time an oracle submits a response\n    event FlightStatusInfo(\n        address airline,\n        string flight,\n        uint256 timestamp,\n        uint8 status\n    );\n\n    event OracleReport(\n        address airline,\n        string flight,\n        uint256 timestamp,\n        uint8 status\n    );\n\n    event OracleRegistered(address oracle);\n\n    // Event fired when flight status request is submitted\n    // Oracles track this and if they have a matching index\n    // they fetch data and submit a response\n    event OracleRequest(\n        uint8 index,\n        address airline,\n        string flight,\n        uint256 timestamp\n    );\n\n    // Register an oracle with the contract\n    function registerOracle() external payable {\n        // Require registration fee\n        require(msg.value >= REGISTRATION_FEE, \"Registration fee is required\");\n\n        uint8[3] memory indexes = generateIndexes(msg.sender);\n\n        oracles[msg.sender] = Oracle({isRegistered: true, indexes: indexes});\n\n        emit OracleRegistered(msg.sender);\n    }\n\n    function getMyIndexes() external view returns (uint8[3] memory) {\n        require(\n            oracles[msg.sender].isRegistered,\n            \"Not registered as an oracle\"\n        );\n\n        return oracles[msg.sender].indexes;\n    }\n\n    // Called by oracle when a response is available to an outstanding request\n    // For the response to be accepted, there must be a pending request that is open\n    // and matches one of the three Indexes randomly assigned to the oracle at the\n    // time of registration (i.e. uninvited oracles are not welcome)\n    function submitOracleResponse(\n        uint8 index,\n        address airline,\n        string calldata flight,\n        uint256 timestamp,\n        uint8 statusCode\n    ) external {\n        require(\n            (oracles[msg.sender].indexes[0] == index) ||\n                (oracles[msg.sender].indexes[1] == index) ||\n                (oracles[msg.sender].indexes[2] == index),\n            \"Index does not match oracle request\"\n        );\n\n        bytes32 key = keccak256(\n            abi.encodePacked(index, airline, flight, timestamp)\n        );\n        require(\n            oracleResponses[key].isOpen,\n            \"Flight or timestamp do not match oracle request\"\n        );\n\n        oracleResponses[key].responses[statusCode].push(msg.sender);\n\n        // Information isn't considered verified until at least MIN_RESPONSES\n        // oracles respond with the *** same *** information\n        emit OracleReport(airline, flight, timestamp, statusCode);\n        if (\n            oracleResponses[key].responses[statusCode].length >= MIN_RESPONSES\n        ) {\n            emit FlightStatusInfo(airline, flight, timestamp, statusCode);\n\n            // Handle flight status as appropriate\n            processFlightStatus(airline, flight, timestamp, statusCode);\n        }\n    }\n\n    function getFlightKey(\n        address airline,\n        string calldata flight,\n        uint256 timestamp\n    ) internal pure returns (bytes32) {\n        return keccak256(abi.encodePacked(airline, flight, timestamp));\n    }\n\n    // Returns array of three non-duplicating integers from 0-9\n    function generateIndexes(address account)\n        internal\n        returns (uint8[3] memory)\n    {\n        uint8[3] memory indexes;\n        indexes[0] = getRandomIndex(account);\n\n        indexes[1] = indexes[0];\n        while (indexes[1] == indexes[0]) {\n            indexes[1] = getRandomIndex(account);\n        }\n\n        indexes[2] = indexes[1];\n        while ((indexes[2] == indexes[0]) || (indexes[2] == indexes[1])) {\n            indexes[2] = getRandomIndex(account);\n        }\n\n        return indexes;\n    }\n\n    // Returns array of three non-duplicating integers from 0-9\n    function getRandomIndex(address account) internal returns (uint8) {\n        uint8 maxValue = 10;\n\n        // Pseudo random number...the incrementing nonce adds variation\n        uint8 random = uint8(\n            uint256(\n                keccak256(\n                    abi.encodePacked(blockhash(block.number - nonce++), account)\n                )\n            ) % maxValue\n        );\n\n        if (nonce > 250) {\n            nonce = 0; // Can only fetch blockhashes for last 256 blocks so we adapt\n        }\n\n        return random;\n    }\n\n    // endregion\n}\n\ncontract FlightSuretyDataAbstract {\n    // function setContractOwner(address owner) public {}\n    function isOperational() public view returns (bool) {}\n\n    function setOperatingStatus(bool mode) external {}\n\n    function registerAirline() external {}\n\n    function registerFlight(\n        address airline,\n        string calldata flightId,\n        uint256 timestamp\n    ) external {}\n\n    function flightExists(string calldata flightId)\n        public\n        view\n        returns (bool)\n    {}\n\n    function buy(\n        address passenger,\n        address airline,\n        string memory flightId,\n        uint256 timestamp,\n        uint256 insuranceValue\n    ) external returns (bytes32) {}\n\n    function creditInsurees(\n        address airline,\n        string memory flightId,\n        uint256 timestamp\n    ) external {}\n\n    function getBalanceDue(address passenger) public view returns (uint256) {}\n\n    function pay(address passenger) public payable {}\n\n    function fund(address airlineAddress, uint funding) external payable {}\n}\n",
  "sourcePath": "/workspaces/flight_surety_dapp/app/contracts/FlightSuretyApp.sol",
  "compiler": {
    "name": "solc",
    "version": "0.8.15+commit.e14f2714.Emscripten.clang"
  },
  "schemaVersion": "3.4.8",
  "updatedAt": "2022-08-05T00:40:35.927Z",
  "devdoc": {
    "kind": "dev",
    "methods": {},
    "version": 1
  },
  "userdoc": {
    "kind": "user",
    "methods": {},
    "version": 1
  }
}