{
  "contractName": "FlightSuretyApp",
  "abi": [
    {
      "inputs": [
        {
          "internalType": "address",
          "name": "_dataContract",
          "type": "address"
        },
        {
          "internalType": "address payable",
          "name": "_owner",
          "type": "address"
        }
      ],
      "stateMutability": "nonpayable",
      "type": "constructor"
    },
    {
      "anonymous": false,
      "inputs": [
        {
          "indexed": false,
          "internalType": "address",
          "name": "airline",
          "type": "address"
        },
        {
          "indexed": false,
          "internalType": "string",
          "name": "flight",
          "type": "string"
        },
        {
          "indexed": false,
          "internalType": "uint256",
          "name": "timestamp",
          "type": "uint256"
        },
        {
          "indexed": false,
          "internalType": "uint8",
          "name": "status",
          "type": "uint8"
        }
      ],
      "name": "FlightStatusInfo",
      "type": "event"
    },
    {
      "anonymous": false,
      "inputs": [
        {
          "indexed": false,
          "internalType": "address",
          "name": "oracle",
          "type": "address"
        }
      ],
      "name": "OracleRegistered",
      "type": "event"
    },
    {
      "anonymous": false,
      "inputs": [
        {
          "indexed": false,
          "internalType": "address",
          "name": "airline",
          "type": "address"
        },
        {
          "indexed": false,
          "internalType": "string",
          "name": "flight",
          "type": "string"
        },
        {
          "indexed": false,
          "internalType": "uint256",
          "name": "timestamp",
          "type": "uint256"
        },
        {
          "indexed": false,
          "internalType": "uint8",
          "name": "status",
          "type": "uint8"
        }
      ],
      "name": "OracleReport",
      "type": "event"
    },
    {
      "anonymous": false,
      "inputs": [
        {
          "indexed": false,
          "internalType": "uint8",
          "name": "index",
          "type": "uint8"
        },
        {
          "indexed": false,
          "internalType": "address",
          "name": "airline",
          "type": "address"
        },
        {
          "indexed": false,
          "internalType": "string",
          "name": "flight",
          "type": "string"
        },
        {
          "indexed": false,
          "internalType": "uint256",
          "name": "timestamp",
          "type": "uint256"
        }
      ],
      "name": "OracleRequest",
      "type": "event"
    },
    {
      "anonymous": false,
      "inputs": [
        {
          "indexed": false,
          "internalType": "address payable",
          "name": "passenger",
          "type": "address"
        },
        {
          "indexed": false,
          "internalType": "uint256",
          "name": "refund",
          "type": "uint256"
        }
      ],
      "name": "Refund",
      "type": "event"
    },
    {
      "inputs": [],
      "name": "REGISTRATION_FEE",
      "outputs": [
        {
          "internalType": "uint256",
          "name": "",
          "type": "uint256"
        }
      ],
      "stateMutability": "view",
      "type": "function",
      "constant": true
    },
    {
      "inputs": [],
      "name": "isOperational",
      "outputs": [
        {
          "internalType": "bool",
          "name": "",
          "type": "bool"
        }
      ],
      "stateMutability": "nonpayable",
      "type": "function"
    },
    {
      "inputs": [
        {
          "internalType": "bool",
          "name": "mode",
          "type": "bool"
        },
        {
          "internalType": "address",
          "name": "sender",
          "type": "address"
        }
      ],
      "name": "setOperatingStatus",
      "outputs": [],
      "stateMutability": "nonpayable",
      "type": "function"
    },
    {
      "inputs": [],
      "name": "getDataContractAddress",
      "outputs": [
        {
          "internalType": "address",
          "name": "",
          "type": "address"
        }
      ],
      "stateMutability": "view",
      "type": "function",
      "constant": true
    },
    {
      "inputs": [],
      "name": "getDataContract",
      "outputs": [
        {
          "internalType": "contract FlightSuretyDataAbstract",
          "name": "",
          "type": "address"
        }
      ],
      "stateMutability": "view",
      "type": "function",
      "constant": true
    },
    {
      "inputs": [],
      "name": "registerAirline",
      "outputs": [
        {
          "internalType": "bool",
          "name": "success",
          "type": "bool"
        },
        {
          "internalType": "uint256",
          "name": "votes",
          "type": "uint256"
        }
      ],
      "stateMutability": "pure",
      "type": "function",
      "constant": true
    },
    {
      "inputs": [
        {
          "internalType": "address",
          "name": "airline",
          "type": "address"
        },
        {
          "internalType": "string",
          "name": "flightId",
          "type": "string"
        },
        {
          "internalType": "uint256",
          "name": "timestamp",
          "type": "uint256"
        }
      ],
      "name": "registerFlight",
      "outputs": [],
      "stateMutability": "nonpayable",
      "type": "function"
    },
    {
      "inputs": [
        {
          "internalType": "address",
          "name": "passenger",
          "type": "address"
        }
      ],
      "name": "getBalanceDue",
      "outputs": [
        {
          "internalType": "uint256",
          "name": "",
          "type": "uint256"
        }
      ],
      "stateMutability": "view",
      "type": "function",
      "constant": true
    },
    {
      "inputs": [
        {
          "internalType": "address payable",
          "name": "passenger",
          "type": "address"
        }
      ],
      "name": "pay",
      "outputs": [],
      "stateMutability": "payable",
      "type": "function",
      "payable": true
    },
    {
      "inputs": [
        {
          "internalType": "address",
          "name": "airline",
          "type": "address"
        },
        {
          "internalType": "string",
          "name": "flight",
          "type": "string"
        },
        {
          "internalType": "uint256",
          "name": "timestamp",
          "type": "uint256"
        }
      ],
      "name": "fetchFlightStatus",
      "outputs": [],
      "stateMutability": "nonpayable",
      "type": "function"
    },
    {
      "inputs": [
        {
          "internalType": "address",
          "name": "passenger",
          "type": "address"
        },
        {
          "internalType": "address",
          "name": "airline",
          "type": "address"
        },
        {
          "internalType": "string",
          "name": "flightId",
          "type": "string"
        },
        {
          "internalType": "uint256",
          "name": "timestamp",
          "type": "uint256"
        }
      ],
      "name": "buy",
      "outputs": [],
      "stateMutability": "payable",
      "type": "function",
      "payable": true
    },
    {
      "inputs": [
        {
          "internalType": "address",
          "name": "airlineAddress",
          "type": "address"
        }
      ],
      "name": "fund",
      "outputs": [],
      "stateMutability": "payable",
      "type": "function",
      "payable": true
    },
    {
      "inputs": [],
      "name": "registerOracle",
      "outputs": [],
      "stateMutability": "payable",
      "type": "function",
      "payable": true
    },
    {
      "inputs": [],
      "name": "getMyIndexes",
      "outputs": [
        {
          "internalType": "uint8[3]",
          "name": "",
          "type": "uint8[3]"
        }
      ],
      "stateMutability": "view",
      "type": "function",
      "constant": true
    },
    {
      "inputs": [
        {
          "internalType": "uint8",
          "name": "index",
          "type": "uint8"
        },
        {
          "internalType": "address",
          "name": "airline",
          "type": "address"
        },
        {
          "internalType": "string",
          "name": "flight",
          "type": "string"
        },
        {
          "internalType": "uint256",
          "name": "timestamp",
          "type": "uint256"
        },
        {
          "internalType": "uint8",
          "name": "statusCode",
          "type": "uint8"
        }
      ],
      "name": "submitOracleResponse",
      "outputs": [],
      "stateMutability": "nonpayable",
      "type": "function"
    }
  ],
  "bytecode": "0x60806040526000600460006101000a81548160ff021916908360ff1602179055503480156200002d57600080fd5b506040516200288c3803806200288c8339818101604052810190620000539190620001cc565b81600160006101000a81548173ffffffffffffffffffffffffffffffffffffffff021916908373ffffffffffffffffffffffffffffffffffffffff160217905550816000806101000a81548173ffffffffffffffffffffffffffffffffffffffff021916908373ffffffffffffffffffffffffffffffffffffffff16021790555080600260006101000a81548173ffffffffffffffffffffffffffffffffffffffff021916908373ffffffffffffffffffffffffffffffffffffffff160217905550505062000213565b600080fd5b600073ffffffffffffffffffffffffffffffffffffffff82169050919050565b60006200014f8262000122565b9050919050565b620001618162000142565b81146200016d57600080fd5b50565b600081519050620001818162000156565b92915050565b6000620001948262000122565b9050919050565b620001a68162000187565b8114620001b257600080fd5b50565b600081519050620001c6816200019b565b92915050565b60008060408385031215620001e657620001e56200011d565b5b6000620001f68582860162000170565b92505060206200020985828601620001b5565b9150509250929050565b61266980620002236000396000f3fe6080604052600436106100e85760003560e01c80635f1cc0e61161008a578063c10f270011610059578063c10f270014610289578063c590dda5146102b2578063cd905dff146102db578063f83f11c014610306576100e8565b80635f1cc0e6146101dc57806361e91ea11461020757806363e29a3f1461023257806364b4f7511461025e576100e8565b8063339d2590116100c6578063339d259014610150578063351831701461015a5780633cc0be9c14610176578063449d05431461019f576100e8565b80630c11dedd146100ed578063230244081461010957806324e0fbaa14610125575b600080fd5b610107600480360381019061010291906116dc565b61032f565b005b610123600480360381019061011e9190611747565b6104b8565b005b34801561013157600080fd5b5061013a610548565b60405161014791906117d3565b60405180910390f35b610158610571565b005b610174600480360381019061016f919061196a565b610695565b005b34801561018257600080fd5b5061019d60048036038101906101989190611a4d565b61097b565b005b3480156101ab57600080fd5b506101c660048036038101906101c19190611747565b610a12565b6040516101d39190611ad0565b60405180910390f35b3480156101e857600080fd5b506101f1610ab6565b6040516101fe9190611ba3565b60405180910390f35b34801561021357600080fd5b5061021c610bf6565b6040516102299190611bcd565b60405180910390f35b34801561023e57600080fd5b50610247610c20565b604051610255929190611c03565b60405180910390f35b34801561026a57600080fd5b50610273610c2e565b6040516102809190611ad0565b60405180910390f35b34801561029557600080fd5b506102b060048036038101906102ab9190611c58565b610c3a565b005b3480156102be57600080fd5b506102d960048036038101906102d49190611d1e565b611014565b005b3480156102e757600080fd5b506102f06110a5565b6040516102fd9190611d5e565b60405180910390f35b34801561031257600080fd5b5061032d60048036038101906103289190611a4d565b61113c565b005b600260009054906101000a900473ffffffffffffffffffffffffffffffffffffffff1673ffffffffffffffffffffffffffffffffffffffff163373ffffffffffffffffffffffffffffffffffffffff161461038957600080fd5b60008060009054906101000a900473ffffffffffffffffffffffffffffffffffffffff1673ffffffffffffffffffffffffffffffffffffffff1663449d0543836040518263ffffffff1660e01b81526004016103e59190611d9a565b602060405180830381865afa158015610402573d6000803e3d6000fd5b505050506040513d601f19601f820116820180604052508101906104269190611dca565b905060008054906101000a900473ffffffffffffffffffffffffffffffffffffffff1673ffffffffffffffffffffffffffffffffffffffff16630c11dedd82846040518363ffffffff1660e01b81526004016104829190611d9a565b6000604051808303818588803b15801561049b57600080fd5b505af11580156104af573d6000803e3d6000fd5b50505050505050565b60008054906101000a900473ffffffffffffffffffffffffffffffffffffffff1673ffffffffffffffffffffffffffffffffffffffff16637b1837de82346040518363ffffffff1660e01b8152600401610513929190611df7565b600060405180830381600087803b15801561052d57600080fd5b505af1158015610541573d6000803e3d6000fd5b5050505050565b60008060009054906101000a900473ffffffffffffffffffffffffffffffffffffffff16905090565b670de0b6b3a76400003410156105bc576040517f08c379a00000000000000000000000000000000000000000000000000000000081526004016105b390611e7d565b60405180910390fd5b60006105c73361123b565b9050604051806040016040528060011515815260200182815250600560003373ffffffffffffffffffffffffffffffffffffffff1673ffffffffffffffffffffffffffffffffffffffff16815260200190815260200160002060008201518160000160006101000a81548160ff021916908315150217905550602082015181600101906003610657929190611591565b509050507fd9d9fdcc9f936c76b5aafe54fc3db5dcec0c6583c9ccc4abe91d17575c5145a53360405161068a9190611bcd565b60405180910390a150565b6001151560008054906101000a900473ffffffffffffffffffffffffffffffffffffffff1673ffffffffffffffffffffffffffffffffffffffff16638d7f97af846040518263ffffffff1660e01b81526004016106f29190611f14565b602060405180830381865afa15801561070f573d6000803e3d6000fd5b505050506040513d601f19601f820116820180604052508101906107339190611f4b565b151514610775576040517f08c379a000000000000000000000000000000000000000000000000000000000815260040161076c90611fc4565b60405180910390fd5b6000349050670de0b6b3a764000034111561086557600260009054906101000a900473ffffffffffffffffffffffffffffffffffffffff1673ffffffffffffffffffffffffffffffffffffffff166108fc670de0b6b3a76400009081150290604051600060405180830381858888f193505050501580156107fa573d6000803e3d6000fd5b508473ffffffffffffffffffffffffffffffffffffffff166108fc670de0b6b3a7640000346108299190612013565b9081150290604051600060405180830381858888f19350505050158015610854573d6000803e3d6000fd5b50670de0b6b3a764000090506108cf565b600260009054906101000a900473ffffffffffffffffffffffffffffffffffffffff1673ffffffffffffffffffffffffffffffffffffffff166108fc349081150290604051600060405180830381858888f193505050501580156108cd573d6000803e3d6000fd5b505b60008054906101000a900473ffffffffffffffffffffffffffffffffffffffff1673ffffffffffffffffffffffffffffffffffffffff1663cf90cc4486868686866040518663ffffffff1660e01b8152600401610930959493929190612047565b6020604051808303816000875af115801561094f573d6000803e3d6000fd5b505050506040513d601f19601f8201168201806040525081019061097391906120d7565b505050505050565b60008054906101000a900473ffffffffffffffffffffffffffffffffffffffff1673ffffffffffffffffffffffffffffffffffffffff16633cc0be9c858585856040518563ffffffff1660e01b81526004016109da9493929190612131565b600060405180830381600087803b1580156109f457600080fd5b505af1158015610a08573d6000803e3d6000fd5b5050505050505050565b60008060009054906101000a900473ffffffffffffffffffffffffffffffffffffffff1673ffffffffffffffffffffffffffffffffffffffff1663449d0543836040518263ffffffff1660e01b8152600401610a6e9190611bcd565b602060405180830381865afa158015610a8b573d6000803e3d6000fd5b505050506040513d601f19601f82011682018060405250810190610aaf9190611dca565b9050919050565b610abe61162b565b600560003373ffffffffffffffffffffffffffffffffffffffff1673ffffffffffffffffffffffffffffffffffffffff16815260200190815260200160002060000160009054906101000a900460ff16610b4d576040517f08c379a0000000000000000000000000000000000000000000000000000000008152600401610b44906121bd565b60405180910390fd5b600560003373ffffffffffffffffffffffffffffffffffffffff1673ffffffffffffffffffffffffffffffffffffffff168152602001908152602001600020600101600380602002604051908101604052809291908260038015610bec576020028201916000905b82829054906101000a900460ff1660ff1681526020019060010190602082600001049283019260010382029150808411610bb55790505b5050505050905090565b6000600160009054906101000a900473ffffffffffffffffffffffffffffffffffffffff16905090565b600080816000915091509091565b670de0b6b3a764000081565b8560ff16600560003373ffffffffffffffffffffffffffffffffffffffff1673ffffffffffffffffffffffffffffffffffffffff168152602001908152602001600020600101600060038110610c9357610c926121dd565b5b602091828204019190069054906101000a900460ff1660ff161480610d2757508560ff16600560003373ffffffffffffffffffffffffffffffffffffffff1673ffffffffffffffffffffffffffffffffffffffff168152602001908152602001600020600101600160038110610d0c57610d0b6121dd565b5b602091828204019190069054906101000a900460ff1660ff16145b80610da157508560ff16600560003373ffffffffffffffffffffffffffffffffffffffff1673ffffffffffffffffffffffffffffffffffffffff168152602001908152602001600020600101600260038110610d8657610d856121dd565b5b602091828204019190069054906101000a900460ff1660ff16145b610de0576040517f08c379a0000000000000000000000000000000000000000000000000000000008152600401610dd79061227e565b60405180910390fd5b60008686868686604051602001610dfb95949392919061236d565b6040516020818303038152906040528051906020012090506006600082815260200190815260200160002060000160149054906101000a900460ff16610e76576040517f08c379a0000000000000000000000000000000000000000000000000000000008152600401610e6d9061242b565b60405180910390fd5b6006600082815260200190815260200160002060010160008360ff1660ff168152602001908152602001600020339080600181540180825580915050600190039060005260206000200160009091909190916101000a81548173ffffffffffffffffffffffffffffffffffffffff021916908373ffffffffffffffffffffffffffffffffffffffff1602179055507f43c853095c2752648493c88b4baac4d580d2594ffb00c6f1d4242d844514f7838686868686604051610f3b95949392919061245a565b60405180910390a160036006600083815260200190815260200160002060010160008460ff1660ff168152602001908152602001600020805490501061100b577fe23f5229de535c091e3b7bec2665f5d698192d3b31393066e8987b7a05076b6c8686868686604051610fb295949392919061245a565b60405180910390a161100a8686868080601f016020809104026020016040519081016040528093929190818152602001838380828437600081840152601f19601f820116905080830192505050505050508585611421565b5b50505050505050565b60008054906101000a900473ffffffffffffffffffffffffffffffffffffffff1673ffffffffffffffffffffffffffffffffffffffff1663c590dda583836040518363ffffffff1660e01b815260040161106f9291906124a8565b600060405180830381600087803b15801561108957600080fd5b505af115801561109d573d6000803e3d6000fd5b505050505050565b60008060009054906101000a900473ffffffffffffffffffffffffffffffffffffffff1673ffffffffffffffffffffffffffffffffffffffff1663cd905dff6040518163ffffffff1660e01b8152600401602060405180830381865afa158015611113573d6000803e3d6000fd5b505050506040513d601f19601f820116820180604052508101906111379190611f4b565b905090565b6000611147336114c5565b90506000818686868660405160200161116495949392919061236d565b6040516020818303038152906040528051906020012090506000600660008381526020019081526020016000209050338160000160006101000a81548173ffffffffffffffffffffffffffffffffffffffff021916908373ffffffffffffffffffffffffffffffffffffffff16021790555060018160000160146101000a81548160ff0219169083151502179055507f3ed01f2c3fc24c6b329d931e35b03e390d23497d22b3f90e15b600343e93df11838888888860405161122a9594939291906124d1565b60405180910390a150505050505050565b61124361162b565b61124b61162b565b611254836114c5565b81600060038110611268576112676121dd565b5b602002019060ff16908160ff16815250508060006003811061128d5761128c6121dd565b5b6020020151816001600381106112a6576112a56121dd565b5b602002019060ff16908160ff16815250505b806000600381106112cc576112cb6121dd565b5b602002015160ff16816001600381106112e8576112e76121dd565b5b602002015160ff1603611328576112fe836114c5565b81600160038110611312576113116121dd565b5b602002019060ff16908160ff16815250506112b8565b8060016003811061133c5761133b6121dd565b5b602002015181600260038110611355576113546121dd565b5b602002019060ff16908160ff16815250505b8060006003811061137b5761137a6121dd565b5b602002015160ff1681600260038110611397576113966121dd565b5b602002015160ff1614806113e05750806001600381106113ba576113b96121dd565b5b602002015160ff16816002600381106113d6576113d56121dd565b5b602002015160ff16145b15611418576113ee836114c5565b81600260038110611402576114016121dd565b5b602002019060ff16908160ff1681525050611367565b80915050919050565b601460ff168160ff16036114bf5760008054906101000a900473ffffffffffffffffffffffffffffffffffffffff1673ffffffffffffffffffffffffffffffffffffffff1663c8820a708585856040518463ffffffff1660e01b815260040161148c9392919061251f565b600060405180830381600087803b1580156114a657600080fd5b505af11580156114ba573d6000803e3d6000fd5b505050505b50505050565b600080600a905060008160ff166004600081819054906101000a900460ff16809291906114f19061255d565b91906101000a81548160ff021916908360ff16021790555060ff16436115179190612013565b408560405160200161152a9291906125a7565b6040516020818303038152906040528051906020012060001c61154d9190612602565b905060fa600460009054906101000a900460ff1660ff161115611587576000600460006101000a81548160ff021916908360ff1602179055505b8092505050919050565b826003601f0160209004810192821561161a5791602002820160005b838211156115eb57835183826101000a81548160ff021916908360ff16021790555092602001926001016020816000010492830192600103026115ad565b80156116185782816101000a81549060ff02191690556001016020816000010492830192600103026115eb565b505b509050611627919061164d565b5090565b6040518060600160405280600390602082028036833780820191505090505090565b5b8082111561166657600081600090555060010161164e565b5090565b6000604051905090565b600080fd5b600080fd5b600073ffffffffffffffffffffffffffffffffffffffff82169050919050565b60006116a98261167e565b9050919050565b6116b98161169e565b81146116c457600080fd5b50565b6000813590506116d6816116b0565b92915050565b6000602082840312156116f2576116f1611674565b5b6000611700848285016116c7565b91505092915050565b60006117148261167e565b9050919050565b61172481611709565b811461172f57600080fd5b50565b6000813590506117418161171b565b92915050565b60006020828403121561175d5761175c611674565b5b600061176b84828501611732565b91505092915050565b6000819050919050565b600061179961179461178f8461167e565b611774565b61167e565b9050919050565b60006117ab8261177e565b9050919050565b60006117bd826117a0565b9050919050565b6117cd816117b2565b82525050565b60006020820190506117e860008301846117c4565b92915050565b600080fd5b600080fd5b6000601f19601f8301169050919050565b7f4e487b7100000000000000000000000000000000000000000000000000000000600052604160045260246000fd5b611841826117f8565b810181811067ffffffffffffffff821117156118605761185f611809565b5b80604052505050565b600061187361166a565b905061187f8282611838565b919050565b600067ffffffffffffffff82111561189f5761189e611809565b5b6118a8826117f8565b9050602081019050919050565b82818337600083830152505050565b60006118d76118d284611884565b611869565b9050828152602081018484840111156118f3576118f26117f3565b5b6118fe8482856118b5565b509392505050565b600082601f83011261191b5761191a6117ee565b5b813561192b8482602086016118c4565b91505092915050565b6000819050919050565b61194781611934565b811461195257600080fd5b50565b6000813590506119648161193e565b92915050565b6000806000806080858703121561198457611983611674565b5b600061199287828801611732565b94505060206119a387828801611732565b935050604085013567ffffffffffffffff8111156119c4576119c3611679565b5b6119d087828801611906565b92505060606119e187828801611955565b91505092959194509250565b600080fd5b600080fd5b60008083601f840112611a0d57611a0c6117ee565b5b8235905067ffffffffffffffff811115611a2a57611a296119ed565b5b602083019150836001820283011115611a4657611a456119f2565b5b9250929050565b60008060008060608587031215611a6757611a66611674565b5b6000611a7587828801611732565b945050602085013567ffffffffffffffff811115611a9657611a95611679565b5b611aa2878288016119f7565b93509350506040611ab587828801611955565b91505092959194509250565b611aca81611934565b82525050565b6000602082019050611ae56000830184611ac1565b92915050565b600060039050919050565b600081905092915050565b6000819050919050565b600060ff82169050919050565b611b2181611b0b565b82525050565b6000611b338383611b18565b60208301905092915050565b6000602082019050919050565b611b5581611aeb565b611b5f8184611af6565b9250611b6a82611b01565b8060005b83811015611b9b578151611b828782611b27565b9650611b8d83611b3f565b925050600181019050611b6e565b505050505050565b6000606082019050611bb86000830184611b4c565b92915050565b611bc781611709565b82525050565b6000602082019050611be26000830184611bbe565b92915050565b60008115159050919050565b611bfd81611be8565b82525050565b6000604082019050611c186000830185611bf4565b611c256020830184611ac1565b9392505050565b611c3581611b0b565b8114611c4057600080fd5b50565b600081359050611c5281611c2c565b92915050565b60008060008060008060a08789031215611c7557611c74611674565b5b6000611c8389828a01611c43565b9650506020611c9489828a01611732565b955050604087013567ffffffffffffffff811115611cb557611cb4611679565b5b611cc189828a016119f7565b94509450506060611cd489828a01611955565b9250506080611ce589828a01611c43565b9150509295509295509295565b611cfb81611be8565b8114611d0657600080fd5b50565b600081359050611d1881611cf2565b92915050565b60008060408385031215611d3557611d34611674565b5b6000611d4385828601611d09565b9250506020611d5485828601611732565b9150509250929050565b6000602082019050611d736000830184611bf4565b92915050565b6000611d84826117a0565b9050919050565b611d9481611d79565b82525050565b6000602082019050611daf6000830184611d8b565b92915050565b600081519050611dc48161193e565b92915050565b600060208284031215611de057611ddf611674565b5b6000611dee84828501611db5565b91505092915050565b6000604082019050611e0c6000830185611bbe565b611e196020830184611ac1565b9392505050565b600082825260208201905092915050565b7f526567697374726174696f6e2066656520697320726571756972656400000000600082015250565b6000611e67601c83611e20565b9150611e7282611e31565b602082019050919050565b60006020820190508181036000830152611e9681611e5a565b9050919050565b600081519050919050565b60005b83811015611ec6578082015181840152602081019050611eab565b83811115611ed5576000848401525b50505050565b6000611ee682611e9d565b611ef08185611e20565b9350611f00818560208601611ea8565b611f09816117f8565b840191505092915050565b60006020820190508181036000830152611f2e8184611edb565b905092915050565b600081519050611f4581611cf2565b92915050565b600060208284031215611f6157611f60611674565b5b6000611f6f84828501611f36565b91505092915050565b7f466c69676874206d757374206578697374000000000000000000000000000000600082015250565b6000611fae601183611e20565b9150611fb982611f78565b602082019050919050565b60006020820190508181036000830152611fdd81611fa1565b9050919050565b7f4e487b7100000000000000000000000000000000000000000000000000000000600052601160045260246000fd5b600061201e82611934565b915061202983611934565b92508282101561203c5761203b611fe4565b5b828203905092915050565b600060a08201905061205c6000830188611bbe565b6120696020830187611bbe565b818103604083015261207b8186611edb565b905061208a6060830185611ac1565b6120976080830184611ac1565b9695505050505050565b6000819050919050565b6120b4816120a1565b81146120bf57600080fd5b50565b6000815190506120d1816120ab565b92915050565b6000602082840312156120ed576120ec611674565b5b60006120fb848285016120c2565b91505092915050565b60006121108385611e20565b935061211d8385846118b5565b612126836117f8565b840190509392505050565b60006060820190506121466000830187611bbe565b8181036020830152612159818587612104565b90506121686040830184611ac1565b95945050505050565b7f4e6f74207265676973746572656420617320616e206f7261636c650000000000600082015250565b60006121a7601b83611e20565b91506121b282612171565b602082019050919050565b600060208201905081810360008301526121d68161219a565b9050919050565b7f4e487b7100000000000000000000000000000000000000000000000000000000600052603260045260246000fd5b7f496e64657820646f6573206e6f74206d61746368206f7261636c65207265717560008201527f6573740000000000000000000000000000000000000000000000000000000000602082015250565b6000612268602383611e20565b91506122738261220c565b604082019050919050565b600060208201905081810360008301526122978161225b565b9050919050565b60008160f81b9050919050565b60006122b68261229e565b9050919050565b6122ce6122c982611b0b565b6122ab565b82525050565b60008160601b9050919050565b60006122ec826122d4565b9050919050565b60006122fe826122e1565b9050919050565b61231661231182611709565b6122f3565b82525050565b600081905092915050565b6000612333838561231c565b93506123408385846118b5565b82840190509392505050565b6000819050919050565b61236761236282611934565b61234c565b82525050565b600061237982886122bd565b6001820191506123898287612305565b60148201915061239a828587612327565b91506123a68284612356565b6020820191508190509695505050505050565b7f466c69676874206f722074696d657374616d7020646f206e6f74206d6174636860008201527f206f7261636c6520726571756573740000000000000000000000000000000000602082015250565b6000612415602f83611e20565b9150612420826123b9565b604082019050919050565b6000602082019050818103600083015261244481612408565b9050919050565b61245481611b0b565b82525050565b600060808201905061246f6000830188611bbe565b8181036020830152612482818688612104565b90506124916040830185611ac1565b61249e606083018461244b565b9695505050505050565b60006040820190506124bd6000830185611bf4565b6124ca6020830184611bbe565b9392505050565b60006080820190506124e6600083018861244b565b6124f36020830187611bbe565b8181036040830152612506818587612104565b90506125156060830184611ac1565b9695505050505050565b60006060820190506125346000830186611bbe565b81810360208301526125468185611edb565b90506125556040830184611ac1565b949350505050565b600061256882611b0b565b915060ff820361257b5761257a611fe4565b5b600182019050919050565b6000819050919050565b6125a161259c826120a1565b612586565b82525050565b60006125b38285612590565b6020820191506125c38284612305565b6014820191508190509392505050565b7f4e487b7100000000000000000000000000000000000000000000000000000000600052601260045260246000fd5b600061260d82611934565b915061261883611934565b925082612628576126276125d3565b5b82820690509291505056fea2646970667358221220b8c5032edad4382dc26466515cf531a1f380d38e1e92c0a0aa742ea7522a3a6664736f6c634300080f0033",
  "immutableReferences": {},
  "source": "pragma solidity ^0.8.15;\n\n// It's important to avoid vulnerabilities due to numeric overflow bugs\n// OpenZeppelin's SafeMath library, when used correctly, protects agains such bugs\n// More info: https://www.nccgroup.trust/us/about-us/newsroom-and-events/blog/2018/november/smart-contract-insecurity-bad-arithmetic/\n\nimport \"@openzeppelin/contracts/utils/math/SafeMath.sol\";\n\n/************************************************** */\n/* FlightSurety Smart Contract                      */\n/************************************************** */\ncontract FlightSuretyApp {\n    using SafeMath for uint256; // Allow SafeMath functions to be called for all uint256 types (similar to \"prototype\" in Javascript)\n\n    FlightSuretyDataAbstract flightSuretyData;\n    address flightSuretyDataAddress;\n\n    /********************************************************************************************/\n    /*                                       DATA VARIABLES                                     */\n    /********************************************************************************************/\n\n    // Flight status codees\n    uint8 private constant STATUS_CODE_UNKNOWN = 0;\n    uint8 private constant STATUS_CODE_ON_TIME = 10;\n    uint8 private constant STATUS_CODE_LATE_AIRLINE = 20;\n    uint8 private constant STATUS_CODE_LATE_WEATHER = 30;\n    uint8 private constant STATUS_CODE_LATE_TECHNICAL = 40;\n    uint8 private constant STATUS_CODE_LATE_OTHER = 50;\n\n    address payable private contractOwner; // Account used to deploy contract\n\n    struct Flight {\n        bool isRegistered;\n        uint8 statusCode;\n        uint256 updatedTimestamp;\n        address airline;\n    }\n    mapping(bytes32 => Flight) private flights;\n\n    /********************************************************************************************/\n    /*                                       EVENTS                                             */\n    /********************************************************************************************/\n\n    event Refund(address payable passenger, uint refund);\n\n    /********************************************************************************************/\n    /*                                       FUNCTION MODIFIERS                                 */\n    /********************************************************************************************/\n\n    // Modifiers help avoid duplication of code. They are typically used to validate something\n    // before a function is allowed to be executed.\n\n    /**\n     * @dev Modifier that requires the \"operational\" boolean variable to be \"true\"\n     *      This is used on all state changing functions to pause the contract in\n     *      the event there is an issue that needs to be fixed\n     */\n    modifier requireIsOperational() {\n        // Modify to call data contract's status\n        require(true, \"Contract is currently not operational\");\n        _; // All modifiers require an \"_\" which indicates where the function body will be added\n    }\n\n    /**\n     * @dev Modifier that requires the \"ContractOwner\" account to be the function caller\n     */\n    modifier requireContractOwner() {\n        require(msg.sender == contractOwner, \"Caller is not contract owner\");\n        _;\n    }\n\n    /********************************************************************************************/\n    /*                                       CONSTRUCTOR                                        */\n    /********************************************************************************************/\n\n    /**\n     * @dev Contract constructor\n     *\n     */\n    constructor(address _dataContract, address payable _owner) {\n        flightSuretyDataAddress = _dataContract;\n        flightSuretyData = FlightSuretyDataAbstract(_dataContract);\n        contractOwner = _owner; //msg.sender;\n    }\n\n    /********************************************************************************************/\n    /*                                       UTILITY FUNCTIONS                                  */\n    /********************************************************************************************/\n\n    function isOperational() public returns (bool) {\n        return flightSuretyData.isOperational(); // Modify to call data contract's status\n    }\n\n    function setOperatingStatus(bool mode, address sender) external {\n        flightSuretyData.setOperatingStatus(mode, sender);\n    }\n\n    function getDataContractAddress() public view returns (address) {\n        return flightSuretyDataAddress;\n    }\n\n    function getDataContract() public view returns (FlightSuretyDataAbstract) {\n        return flightSuretyData;\n    }\n\n    /********************************************************************************************/\n    /*                                     SMART CONTRACT FUNCTIONS                             */\n    /********************************************************************************************/\n\n    /**\n     * @dev Add an airline to the registration queue\n     *\n     */\n    function registerAirline()\n        external\n        pure\n        returns (bool success, uint256 votes)\n    {\n        return (success, 0);\n    }\n\n    /**\n     * @dev Register a future flight for insuring.\n     *\n     */\n    function registerFlight(\n        address airline,\n        string calldata flightId,\n        uint256 timestamp\n    ) external {\n        flightSuretyData.registerFlight(airline, flightId, timestamp);\n    }\n\n    /**\n     * @dev Called after oracle has updated flight status\n     *\n     */\n    function processFlightStatus(\n        address airline,\n        string memory flightId,\n        uint256 timestamp,\n        uint8 statusCode\n    ) internal {\n        if (statusCode == STATUS_CODE_LATE_AIRLINE) {\n            flightSuretyData.creditInsurees(airline, flightId, timestamp);\n        }\n    }\n\n    function getBalanceDue(address passenger) public view returns (uint256) {\n        return flightSuretyData.getBalanceDue(passenger);\n    }\n\n    function pay(address payable passenger) public payable {\n        require(msg.sender == contractOwner);\n        uint256 balanceDue = flightSuretyData.getBalanceDue(passenger);\n        flightSuretyData.pay{value: balanceDue}(passenger);\n    }\n\n    // Generate a request for oracles to fetch flight information\n    function fetchFlightStatus(\n        address airline,\n        string calldata flight,\n        uint256 timestamp\n    ) external {\n        uint8 index = getRandomIndex(msg.sender);\n\n        // Generate a unique key for storing the request\n        bytes32 key = keccak256(\n            abi.encodePacked(index, airline, flight, timestamp)\n        );\n\n        ResponseInfo storage response = oracleResponses[key];\n        response.requester = msg.sender;\n        response.isOpen = true;\n\n        emit OracleRequest(index, airline, flight, timestamp);\n    }\n\n    function buy(\n        address passenger,\n        address airline,\n        string memory flightId,\n        uint256 timestamp\n    ) external payable {\n        require(\n            flightSuretyData.flightExists(flightId) == true,\n            \"Flight must exist\"\n        );\n        uint256 insuranceValue = msg.value;\n        if (msg.value > 1 ether) {\n            contractOwner.transfer(1 ether);\n            payable(passenger).transfer(msg.value - 1 ether);\n            insuranceValue = 1 ether;\n        } else {\n            contractOwner.transfer(msg.value);\n        }\n        flightSuretyData.buy(\n            passenger,\n            airline,\n            flightId,\n            timestamp,\n            insuranceValue\n        );\n    }\n\n    function fund(address airlineAddress) public payable {\n        flightSuretyData.fund(airlineAddress, msg.value);\n    }\n\n    // region ORACLE MANAGEMENT\n\n    // Incremented to add pseudo-randomness at various points\n    uint8 private nonce = 0;\n\n    // Fee to be paid when registering oracle\n    uint256 public constant REGISTRATION_FEE = 1 ether;\n\n    // Number of oracles that must respond for valid status\n    uint256 private constant MIN_RESPONSES = 3;\n\n    struct Oracle {\n        bool isRegistered;\n        uint8[3] indexes;\n    }\n\n    // Track all registered oracles\n    mapping(address => Oracle) private oracles;\n\n    // Model for responses from oracles\n    struct ResponseInfo {\n        address requester; // Account that requested status\n        bool isOpen; // If open, oracle responses are accepted\n        mapping(uint8 => address[]) responses; // Mapping key is the status code reported\n        // This lets us group responses and identify\n        // the response that majority of the oracles\n    }\n\n    // Track all oracle responses\n    // Key = hash(index, flight, timestamp)\n    mapping(bytes32 => ResponseInfo) private oracleResponses;\n\n    // Event fired each time an oracle submits a response\n    event FlightStatusInfo(\n        address airline,\n        string flight,\n        uint256 timestamp,\n        uint8 status\n    );\n\n    event OracleReport(\n        address airline,\n        string flight,\n        uint256 timestamp,\n        uint8 status\n    );\n\n    event OracleRegistered(address oracle);\n\n    // Event fired when flight status request is submitted\n    // Oracles track this and if they have a matching index\n    // they fetch data and submit a response\n    event OracleRequest(\n        uint8 index,\n        address airline,\n        string flight,\n        uint256 timestamp\n    );\n\n    // Register an oracle with the contract\n    function registerOracle() external payable {\n        // Require registration fee\n        require(msg.value >= REGISTRATION_FEE, \"Registration fee is required\");\n\n        uint8[3] memory indexes = generateIndexes(msg.sender);\n\n        oracles[msg.sender] = Oracle({isRegistered: true, indexes: indexes});\n\n        emit OracleRegistered(msg.sender);\n    }\n\n    function getMyIndexes() external view returns (uint8[3] memory) {\n        require(\n            oracles[msg.sender].isRegistered,\n            \"Not registered as an oracle\"\n        );\n\n        return oracles[msg.sender].indexes;\n    }\n\n    // Called by oracle when a response is available to an outstanding request\n    // For the response to be accepted, there must be a pending request that is open\n    // and matches one of the three Indexes randomly assigned to the oracle at the\n    // time of registration (i.e. uninvited oracles are not welcome)\n    function submitOracleResponse(\n        uint8 index,\n        address airline,\n        string calldata flight,\n        uint256 timestamp,\n        uint8 statusCode\n    ) external {\n        require(\n            (oracles[msg.sender].indexes[0] == index) ||\n                (oracles[msg.sender].indexes[1] == index) ||\n                (oracles[msg.sender].indexes[2] == index),\n            \"Index does not match oracle request\"\n        );\n\n        bytes32 key = keccak256(\n            abi.encodePacked(index, airline, flight, timestamp)\n        );\n        require(\n            oracleResponses[key].isOpen,\n            \"Flight or timestamp do not match oracle request\"\n        );\n\n        oracleResponses[key].responses[statusCode].push(msg.sender);\n\n        // Information isn't considered verified until at least MIN_RESPONSES\n        // oracles respond with the *** same *** information\n        emit OracleReport(airline, flight, timestamp, statusCode);\n        if (\n            oracleResponses[key].responses[statusCode].length >= MIN_RESPONSES\n        ) {\n            emit FlightStatusInfo(airline, flight, timestamp, statusCode);\n\n            // Handle flight status as appropriate\n            processFlightStatus(airline, flight, timestamp, statusCode);\n        }\n    }\n\n    function getFlightKey(\n        address airline,\n        string calldata flight,\n        uint256 timestamp\n    ) internal pure returns (bytes32) {\n        return keccak256(abi.encodePacked(airline, flight, timestamp));\n    }\n\n    // Returns array of three non-duplicating integers from 0-9\n    function generateIndexes(address account)\n        internal\n        returns (uint8[3] memory)\n    {\n        uint8[3] memory indexes;\n        indexes[0] = getRandomIndex(account);\n\n        indexes[1] = indexes[0];\n        while (indexes[1] == indexes[0]) {\n            indexes[1] = getRandomIndex(account);\n        }\n\n        indexes[2] = indexes[1];\n        while ((indexes[2] == indexes[0]) || (indexes[2] == indexes[1])) {\n            indexes[2] = getRandomIndex(account);\n        }\n\n        return indexes;\n    }\n\n    // Returns array of three non-duplicating integers from 0-9\n    function getRandomIndex(address account) internal returns (uint8) {\n        uint8 maxValue = 10;\n\n        // Pseudo random number...the incrementing nonce adds variation\n        uint8 random = uint8(\n            uint256(\n                keccak256(\n                    abi.encodePacked(blockhash(block.number - nonce++), account)\n                )\n            ) % maxValue\n        );\n\n        if (nonce > 250) {\n            nonce = 0; // Can only fetch blockhashes for last 256 blocks so we adapt\n        }\n\n        return random;\n    }\n\n    // endregion\n}\n\ncontract FlightSuretyDataAbstract {\n    // function setContractOwner(address owner) public {}\n    function isOperational() public view returns (bool) {}\n\n    function setOperatingStatus(bool mode, address sender) external {}\n\n    function registerAirline() external {}\n\n    function registerFlight(\n        address airline,\n        string calldata flightId,\n        uint256 timestamp\n    ) external {}\n\n    function flightExists(string calldata flightId)\n        public\n        view\n        returns (bool)\n    {}\n\n    function buy(\n        address passenger,\n        address airline,\n        string memory flightId,\n        uint256 timestamp,\n        uint256 insuranceValue\n    ) external returns (bytes32) {}\n\n    function creditInsurees(\n        address airline,\n        string memory flightId,\n        uint256 timestamp\n    ) external {}\n\n    function getBalanceDue(address passenger) public view returns (uint256) {}\n\n    function pay(address passenger) public payable {}\n\n    function fund(address airlineAddress, uint funding) external payable {}\n}\n",
  "sourcePath": "/workspaces/flight_surety_dapp/app/contracts/FlightSuretyApp.sol",
  "compiler": {
    "name": "solc",
    "version": "0.8.15+commit.e14f2714.Emscripten.clang"
  },
  "schemaVersion": "3.4.8",
  "updatedAt": "2022-08-03T23:30:21.536Z",
  "networkType": "ethereum",
  "devdoc": {
    "kind": "dev",
    "methods": {
      "constructor": {
        "details": "Contract constructor"
      },
      "registerAirline()": {
        "details": "Add an airline to the registration queue"
      },
      "registerFlight(address,string,uint256)": {
        "details": "Register a future flight for insuring."
      }
    },
    "version": 1
  },
  "userdoc": {
    "kind": "user",
    "methods": {},
    "version": 1
  }
}